:020000040100F9
:10000000289F002165FE0101357B020195FE01015B
:1000100095FE010195FE010195FE01010000000021
:1000200000000000000000000000000011FC0101C1
:1000300095FE010100000000B5FB0101ADF60101D4
:1000400025FE010125FE010125FE010125FE01011C
:1000500025FE010125FE010125FE010125FE01010C
:100060002380020125FE010125FE010125FE01017B
:10007000EB7F020125FE010125FE010125FE0101A4
:1000800025FE01010980020125FE010125FE010175
:1000900025FE010125FE010125FE010125FE0101CC
:1000A00025FE010125FE010125FE010125FE0101BC
:0800B00025FE010125FE0101FE
:1000B80053B94AB9002908BF00281CBF4FF0FF31C7
:1000C8004FF0FF3000F070B9ADF1080C6DE904CEC7
:1000D80000F006F8DDF804E0DDE9022304B070471B
:1000E8002DE9F047089E0D4604468A46002B7FD12D
:1000F8008A42174641D9B2FA82F24AB1C2F12001C6
:1001080005FA02F39740944020FA01F141EA030A04
:100118004FEA17484FEA144C1FFA87F9BAFBF8FE62
:1001280008FB1EA30EFB09F14CEA0343994206D9CA
:10013800FB1802D2994200F224810EF1FF3E591AAF
:10014800A3B2B1FBF8F008FB101100FB09F943EA70
:100158000144A14505D93C1902D2A14500F20E81FE
:100168000138A4EB090440EA0E4000211EB1D44036
:100178000023C6E90043BDE8F08702B9FFDEB2FA02
:1001880082F2002A4FD1CB1B4FEA174E1FFA87F88D
:100198000121250CB3FBFEFC0EFB1C302B4608FB93
:1001A8000CF945EA0045A9450AD97D192CBF012358
:1001B8000023A94502D9002B00F0D9800CF1FF3C9F
:1001C800A5EB0905A3B2B5FBFEF00EFB105508FB25
:1001D80000F843EA0544A04505D93C1902D2A045D8
:1001E80000F2C9800138A4EB080440EA0C40BDE7DE
:1001F8008B4208D9002E00F0B1800021C6E9000525
:100208000846BDE8F087B3FA83F1002946D1AB422E
:10021800C0F0A780824240F2A4800846002EAAD0EF
:10022800C6E9004AA7E7C2F12000974001FA02F3A5
:100238004FEA174EC14024FA00F51FFA87F8944098
:100248001D43B1FBFEF02B0C0EFB101100FB08FC4C
:1002580043EA01439C4509D9FB182CBF0121002121
:100268009C4502D9002900F095800138A3EB0C03C6
:10027800ADB2B3FBFEF10EFB113301FB08FC45EAFE
:100288000345AC4505D97D1902D2AC4500F28980F9
:100298000139A5EB0C0341EA00417AE7C1F12004DA
:1002A8008B4002FA01F705FA01FCE24020FA04F853
:1002B800E54000FA01FE134348EA0C024FEA1348EE
:1002C8004FEA124C1FFA83F9B5FBF8FA08FB1A55E6
:1002D8000AFB09F04CEA054C60450AD913EB0C0CF3
:1002E8002CBF01250025604501D9002D55D00AF104
:1002F800FF3AACEB000C92B2BCFBF8F008FB10CC58
:1003080000FB09F942EA0C4CE14505D913EB0C0C4A
:1003180001D2E1453BD8013840EA0A40ACEB090C70
:10032800A0FB0789CC4545464A4602D306D1C645B7
:1003380004D20138B8EB070569EB03022EB3BEEB14
:1003480005036CEB020C23FA01F20CFA04F42CFA04
:1003580001F300211443C6E900430CE73146304657
:1003680009E7841A65EB030301209A4656E7ACF1C6
:10037800020C3D4424E702383C4434E702383C444C
:10038800EFE6AEF1020E3B44D9E63146F3E6023819
:100398009C44C1E702383B4468E7AAF1020A9C443E
:1003A800A7E702393D4474E7704700BF73B50A4CAC
:1003B80015461E46A46914B1A04702B070BD0DF1E0
:1003C80007008DF8074019F0E7FF9DF80730204631
:1003D800ED1A3570F1E700BF44120021014B18797E
:1003E800704700BF64120021044B1A79824286BF0D
:1003F8001B6803EB40100020704700BF6412002107
:100408002DE9F047DFF8E48098F82E40E4B204F1D3
:10041800080908EB89035D78202D4BD0314E324F07
:100428006401631908EB430393F83430013B052B4F
:1004380053D8DFE803F00352524845034FF0070A48
:100448000EB100E000BFEFF3108272B608EB890925
:10045800631999F8021008EB4303A94293F8353061
:1004680089F8013028D01AB90FB100E000BF62B690
:10047800631908EB430393F834203AB3062A25D0CE
:10048800032A23D0052A21D0012283F8342005EB42
:1004980085032846514608EB8303D3F8B4309847C0
:1004A80098F82E40E4B204F1080908EB89035D7856
:1004B800202DB5D1BDE8F087202389F80230D2E796
:1004C8004FF0030ABCE74FF0020AB9E72C440123B6
:1004D80008EB440484F83430D9E740F6B3017020BF
:1004E80003F042FE00000000000000006C12002132
:1004F8002DE9F04F002385B0DFF8A8B18A460093B4
:10050800064601F108030BF1B409DFF89C81019359
:10051800019B1BF82340202C00F09880A50032682E
:100528002B190BEB8303D3F8BC30D31A1B02FF3310
:100538007BDB73899BB32F190BEB8707B7F8C230A6
:100548006BBBD7F8B80002F057FFB7F8C23097F97D
:10055800C020404503F103031344034400F29D8087
:10056800434500F39580002B03DA03F1F45303F5B8
:10057800902318460DF10B0203A902F04BFF9DF9D9
:100588000B103268039B0029A2EB0303CCBF342174
:1005980033211B0248BFFF33B1EB232F45DC04EBAB
:1005A8004A140BEB440494F83540202C4ED0A50097
:1005B800B6E7306802F020FF738996F908204045B5
:1005C80003F103031344034467D843455BDC002B62
:1005D80003DA03F1F45303F5902318460DF10B02E7
:1005E80003A902F017FF9DF90B2059F8073003996A
:1005F800002AA3EB0103CCBF342233221B0248BFDD
:10060800FF33B2EB232F21DD2544337B0BEB85052C
:1006180095F8C4209A421DD904EB4A140BEB440404
:1006280094F83540202C11D0A5002F197268BF000E
:10063800043759F8073009EB07019B1A1B02FF33EF
:10064800E2DB4B8913B17389002BB2D0009805B057
:10065800BDE8F08F31680122736800925B1AD5F803
:10066800BC209BF82B10134422F07F4023F07F43DB
:100678003060736000293FF44BAF0023009300986B
:1006880005B0BDE8F08F03F1614303F5F703A4E774
:1006980003F1614303F5F7036BE740F2E45170207F
:1006A80003F062FD6C120021FF7F841E2DE9F047E4
:1006B800344D074600F10808AB7F15F82840002B99
:1006C80014BF0026022602F0F7FC05F1B4024FEA37
:1006D800471C202104EB84030CEB040E9B0005EB64
:1006E8004E0E043352F803901344A9EB00095B68DB
:1006F80029F07F4A1B1A564543EA090307D813F421
:10070800400F04D1202909D12046BDE8F0879EF882
:1007180035302146202B30D01C46DBE77F0115F809
:10072800286004207B18324605EB430393F83530E4
:1007380005F8283000E02246BB18914205EB430338
:1007480083F8340093F83540F5D105EB88018B78B0
:10075800DBB2202B14D03B4405EB430383F8356010
:10076800174405EB88082023204605EB470588F841
:10077800022085F83530BDE8F08721461C46C1E7E0
:100788004E70EDE76C120021202A67D02DE9F04F5A
:10079800144683B0074689469B46DFF8D480DFF8C5
:1007A800D4A0A6007A683519AD00043558F805308C
:1007B80008EB05019B1A1B02FF3332DB4B8963B33D
:1007C8007B8953BB386802F017FE7B8997F90820AC
:1007D800504503F103031344034441D8534534DC23
:1007E800002B03DA03F1F45303F5902318460DF1B7
:1007F800030201A902F00EFE9DF9032058F8053006
:100808000199002AA3EB0103CCBF342233221B0237
:1008180048BFFF33B2EB232F03DC012003B0BDE850
:10082800F08F2644114B8BF8004003EB86063A7B89
:1008380096F8C41091420DD904EB491403EB440314
:1008480093F83540202CACD1E7E703F1614303F579
:10085800F703CBE7002003B0BDE8F08F0120704715
:1008680040F2E451702003F07FFC00BF6C120021BD
:1008780020130021FF7F841E2DE9F04391F80AC060
:10088800144691F80B9006461F465A480B890D46A8
:1008980087B00832C01A6381214684F80D9084F825
:1008A8000CC0D5F8048002F0B5FD236823F07F431F
:1008B8002360B9F1000F73D108F17D00211D02AA50
:1008C80002F0A8FD9DF90830DFF8309102A9002B4D
:1008D80063680DF107026089C8BF013323F07F43C5
:1008E800636002F097FD99F82F30202B5ED0D9F87D
:1008F8001030073323F07F42636839462768204663
:100908002260DB1B134423F07F436360FFF7F0FD95
:10091800EF68394B2A89F81E9F42D5F80480A0EB6E
:100928000200ED7A61D898424EDC002833DB02A938
:1009380004AA02F06FFD029B07EB080023F07F4337
:10094800029335B3012D4BD15E300DF1070203A997
:1009580002F060FD9DF907302168002B039AA1EB96
:1009680006006368C8BF013210F4400F22F07F42CE
:1009780004D1981B20F07F40904207D9334426F0D9
:100988007F465B1A266023F07F43636007B0BDE8AB
:10099800F0837D30D9E700F1F45000F59020C6E7E8
:1009A800B9F1010F1CD108F15E0087E7638906F1F0
:1009B8000B0873B999F83533029A934201D99B1AF7
:1009C800984428F07F4297E700F1614000F5F7006E
:1009D800ADE703F0C9F80028ECD106F13D08E9E7D6
:1009E80040F28961702003F0BFFB40F2E4517020AF
:1009F80003F0BAFBFD7F841EFF7F841E6C1200216A
:100A08002DE9F04F144695B0B64D834604EB8404A7
:100A1800069102F04BFB05F1B401A400D5F8382388
:100A2800019001202B19043410600FAEB8330F1950
:100A380051F80480B7F80A900FCB86E80F007B685E
:100A4800404609F10304079397F908301E460893B6
:100A580002F0D2FCA44B34449842044400F2FD82D4
:100A68009C4200F3F580002CC0F2BB806B7F2F7F87
:100A78000293B9F1000F04D095F82C20002A00F059
:100A8800F38095F834C30CF0FD03012B48D0002007
:100A9800B9EB00030246824618BF01230593002FD5
:100AA8000BBF394602213B46002303910199B1F15E
:100AB800807F6FD0A8EB01010902FF296ADD002BB6
:100AC80040F0F180DDF804B019464FF0010E00281F
:100AD80065D10497002F62D10399012071440390D6
:100AE800002B64D10298002840F08C80A8EB020EFD
:100AF8002EF07F46A6EB0B00000248BFFF30B1EB9B
:100B0800202F40F3F4801AB1BCF1030F40F0DE80CF
:100B1800002F40F0D8800024204615B0BDE8F08FA3
:100B2800B5F836A3D145AAEB090680F0AB810023BE
:100B38006D4AE01E9442A0EB0A0000F28E829042B9
:100B480000F38481002803DA00F1F45000F59020C6
:100B5800039319F100030DF12B020BA918BF012310
:100B6800059302F057FC059B0B9A1D2ED4BF00235A
:100B780003F0010395F834C3A8EB02021846039B5F
:100B880022F07F42002B8AD0322103910199B1F1E2
:100B9800807F8FD103214FF0040E002899D003984D
:100BA800002601440120CDE90360002B9AD0029B66
:100BB800002B3BD1A8EB020626F07F46A6EB0B03E1
:100BC8001B0248BFFF33B1EB232F40F38F80002A6D
:100BD800A1D04FF0000ABCF1030F524657469AD0F5
:100BE800E8E704F1F4546B7F2F7F04F59024029317
:100BF800B9F1000F3FF445AF3EE7002F8BD0023923
:100C080000221746A8EB020626F07F46A6EB0B004B
:100C1800000248BFFF30B1EB202F68DD002AECD07E
:100C280007B102394FF0000AEAE75246A8EB02067C
:100C380026F07F46A6EB0B031B0248BFFF33B1EB40
:100C4800232F53DD4FF0000A5746002AEDD162E703
:100C580004F161446B7F2F7F04F5F7040293B9F127
:100C6800000F3FF40EAF07E7039202F07DFF002864
:100C78007FF407AF95F834C3039A0CF0FD03012BFA
:100C880000F0EB80019BB3F1807F00F00981A8EBB5
:100C980003031B02FF2B40F3038101230246824614
:100CA80005933223039395F82D300493A3B1002FB5
:100CB80040F0D180002800F00A8139460023DDF891
:100CC80004B0039373E70239002711E707B102392B
:100CD8000022C6469246F7E719460123DDF804B01C
:100CE8009E46F4E66C120021FF7F841E0123002A31
:100CF80008BF4646099302F0DFF9099B301A000243
:100D0800B0F5785F80F2D680069A012A00F0B280AA
:100D1800019A701EB2F1807F14BF9B4643F0010B0D
:100D280020F07F40BBF1000F00F0D8804FF0000B9F
:100D3800019002F011F8019B0399F31A23F07F4206
:100D480091423FF6E8AE079A0199521A134313F4F9
:100D5800400F7FF4E0AE084602F04EFBC14A231A6A
:100D6800934240F2C880011B914240F24B81BE4A37
:100D7800934200F2BD80914240F29B81201ABB4B06
:100D8800C3180393AB7F53B9CA45049A534638BF77
:100D98004B4602B91E33039A934280F28F81069B19
:100DA800012B05D0022002F045FA012002F042FA98
:100DB800CA4500F2B280C0F007815AEA090040F043
:100DC800648101230322039902F07CF9002800F0D2
:100DD8009D8095F82D8095F82C30B8F1000F00F023
:100DE8001881B046BBF1000F40F0BA80002B00F02C
:100DF800218195F82D305BB19D4B01220520C3F868
:100E0800082502F017FA02F0FFFC002385F82D30C0
:100E1800079900224FF0FF330CAE109108990D94FA
:100E280001248DF844100299ADF846908DF84C7065
:100E38008DF84D10CDF83C800C920E938D4D0FCE51
:100E48000FC596E80F0085E80F0065E600F16140E0
:100E580000F5F7007CE6022130E7B5F836A3D14566
:100E6800AAEB0906FFF464AE1D2E0593D4BF00203B
:100E7800012089E6019BB3F1807F00F001814FF0EA
:100E8800000B58E719F100034FF0000218BF0123C7
:100E980005931D2ED4BF002303F001031846FEE579
:100EA800024601238246322003214FF0040E0593A7
:100EB80003900EE6731E19F1000B23F07F4318BF51
:100EC8004FF0010B1846019301F046FF33E7012369
:100ED800DDF804B004970393194668E6131A1B0259
:100EE800B3F5A06F80F29180FF2B7FF724AF12E655
:100EF800614B23441B1A039344E7012303990322FC
:100F0800A1EB0901184602F0DDF8A8B9022002F0A9
:100F180091F9012002F08EF9FDE5039B03220220DE
:100F2800A3EB0A01012302F0CDF880F00100C3B25F
:100F38000493059B002BE0D1012303220399002091
:100F480002F0C0F80028E1D0049B002B7DD00027D8
:100F580095F82C30B9F1000F7FF444AF464638E7D6
:100F6800002B74D1019B0126DFF804A10322A3F111
:100F7800320105200023CAF8086521F07F4102F0FC
:100F8800A1F8002800F09080052002F037F94FF012
:100F9800004395F82D2039490360CAF804650B60B1
:100FA800002A4DD0039BA3EB09011939002976DDEE
:100FB80003220123104602F085F800286AD0D5F8EC
:100FC800383300221A6023E70123039903221846C5
:100FD800A1EB090102F076F8BAF1000F0CBF00236B
:100FE80000F001030493002B8FD0039B03220220FF
:100FF800A3EB0A01012302F065F8002304930028FB
:101008009AD183E74B420393BCE6019001F0A4FE1A
:1010180091E62BB9B046BBF1000F3FF4F9AEA1E75A
:1010280002F0BAFB85F82C80B046BBF1000F3FF404
:10103800E0AE97E702F03CFB012385F82C30D8E6B8
:1010480002F0D4FB85F82D60ACE7B04680E702F0EB
:10105800A3FB002385F82C3084E740F2E45170208C
:1010680003F082F8FF1FA107FF7F841E00807BE149
:1010780000F000416C1200210080841E8050004165
:1010880040F6E601702003F06FF84FF41561702008
:1010980003F06AF840F64D21702003F065F840F639
:1010A8004221702003F060F840F24A31702003F0CA
:1010B8005BF840F6E521702003F056F840F6192158
:1010C800702003F051F800BF2DE9F041434C01F1C5
:1010D80008070E46804614F82750202D34D1404B7F
:1010E8000BB100E000BF01F0E7FF94F83030202B8F
:1010F80006D0E368C3F1020303441B02FF2B28DC7C
:10110800202D0CD041462A46FFF77AFCB8B304EBF1
:101118008707002384F83050FB70BDE8F08194F80D
:101128002C3033BB94F82D30B3B9042002F082F888
:1011380002F004F92021D4F83833002284F8301062
:1011480001201A60BDE8F0810846FFF7AFFA854232
:10115800C5D00020BDE8F081224B01220520C3F84C
:10116800082502F067F802F04FFB002384F82D30C1
:10117800DBE702F011FB002384F82C30D2E776017C
:1011880014F827C004217319624604EB430393F84B
:10119800353004F8273000E01A46B318954204EBBE
:1011A800430383F8341093F83530F5D104EB870105
:1011B8008B78DBB2202B0ED0334404EB430383F847
:1011C80035C0164404EB8707202304EB4604BA70A5
:1011D80084F83530A1E781F801C0F2E76C120021EC
:1011E8000000000000F00041002042F220014FF012
:1011F800FF3238B51A4C20250346218404F1340106
:10120800A260024684F8225084F8305084F8230003
:10121800206084F82E00A07784F82F5084F82800E6
:1012280084F82900A083A085C4F8340301F81320AA
:101238000133202BFAD1FF2301250A4884F83C33D7
:1012480084F82A5003F010F884F83D0303F074F88A
:10125800C4F8380301F01EFD84F8315038BD00BFD2
:101268006C1200210904000170B5012484401AB9E8
:10127800084BC3F8084570BD054600200E4601F02E
:10128800BDFF45F00045034A05603560C2F80445D6
:1012980070BD00BF00F000412DE9F84F9D4C01F0F2
:1012A8000BFF054602F04AF8A368013302D04FF05D
:1012B800FF33A360A37F002B00F0F480637E002B34
:1012C80079D001F067FE94F82A20002A40F01D81A9
:1012D80094F82F300121202B84F82A1000F0108177
:1012E800202194F82FA094F8343384F82F105FFA53
:1012F8008AFA84F82920023B94F82E80012BDFF823
:1013080020925FFA88F884F828208CBF00230123F4
:1013180008F108064FEA4817226004EB860B84F8A8
:101328003010237714F82650202D04D04046FFF7BC
:10133800BDF98542F6D1B9F1000F01D000E000BF38
:1013480001F0BAFE94F83030202B06D0E368C3F1E0
:10135800020303441B02FF2BE4DC202D31D02A4674
:101368000121FFF74DFB002860D004EB8603002223
:1013780084F83050DA7007EB0A0304EB430393F860
:101388003420022A39D004EB86060122737884F8C7
:101398002B20202B03D094F83D0302F081FF237FFC
:1013A800002B40F0A28002F0BFFF10B15A4B002280
:1013B8001A60BDE8F88FE81C20F07F4001F0CCFCF3
:1013C80081E794F82C30002B66D194F82D30002B4F
:1013D80055D1042001F02EFF01F0B0FFD4F83833C6
:1013E8000022202184F830101A6007EB0A0304EB6E
:1013F800430393F83420022AC5D104EB8601062062
:101408008A7883F83400D3B2202B76D03B4404EB9F
:10141800430383F835A05744202204EB860304EBEA
:10142800470783F802A087F83520ACE77B1914F842
:101438002600042104EB4303024693F8353004F8F0
:10144800263000E01A46BB18954204EB430383F8A4
:10145800341093F83530F5D19BF80230DBB2202BED
:1014680048D03B4404EB430383F83500BB182021E4
:101478008BF8022004EB430383F8351052E7274B1F
:1014880001220520C3F8082501F0D4FE02F0BCF9BA
:10149800002384F82D309CE702F07EF9002384F8BD
:1014A8002C3092E7D4E903304FF40C71C01A0002D3
:1014B80048BFFF30001218F080FF23690344EB1A7D
:1014C8001B02FF33FFF6FAAE94F82F30082194F888
:1014D8002F0003EB830304EB8303D3F8B43098475E
:1014E80040F23A41702002F03FFE01F071FF002304
:1014F800A38358E78BF80100B8E781F801A08AE7D1
:1015080040F24E41702002F02FFE40F24B41702015
:1015180002F02AFE6C120021048C004100F0004108
:101528000000000070B5124E054602F025FA0023AF
:1015380096F82E4006F13401E4B201EB841102E082
:101548000133202B12D011F81320D8B2002AF7D17A
:1015580003EB4414012203EB830306EB440406EB7C
:10156800830384F83420C3F8B45070BD184670BDA6
:101578006C12002108B5034B93F8350301F03CFFCA
:1015880080B208BD6C1200211F2813D8114A92F8A6
:101598002E3000EB431302EB430393F8343053B17E
:1015A80092F82E3000EB431302EB430393F83430E8
:1015B800012B02D000231846704710B492F82E4031
:1015C800002100EB441010BC02EB400080F83410FE
:1015D800184670476C12002108B501F06DFDBDE892
:1015E800084001F009BF00BF164A904208B501EB58
:1015F800000321D81448814219DC1448814211DBC8
:10160800934209DC002B01DB184608BD03F1F453B3
:1016180003F59023184608BD03F1614303F5F7036A
:10162800184608BD40F2E651702002F09DFD40F2D8
:10163800E551702002F098FD40F2E451702002F06C
:1016480093FD00BFFF7F841E0020A10700E05EF825
:10165800C04A5368C3F308032DE9F04F8BB0002B41
:1016680000F07581103B59B20029C0F2E080BA4BF6
:101678005B5C4FEA531B0378002B40F0E38007467E
:10168800B64DB74C039324B1002140F2336000E01B
:1016980000BF95F82E604FF0000385F82B30F3B2A9
:1016A800019324B100214FF4C76000E000BFBBF1F3
:1016B800000F40F0868024B100214FF4C86000E09C
:1016C80000BF01F0F9FC3B788146002B40F0C38055
:1016D8007A89D7F80C80ADF824207A68A8F103003D
:1016E8003B8916469F4AADF82230C01A9045FB7ACE
:1016F80000F25C819B4A904200F3F180002803DAF3
:1017080000F1F45000F590200DF1180A08AA029390
:10171800B044514601F07EFE069A029B22F07F42B9
:101728000692002B40F0D68008F17D0005AA07A993
:1017380001F070FE9DF91430002B079BC8BF0133E0
:1017480023F07F43079324B1002140F2466000E074
:1017580000BF95F82F30202B7AD02B690699CA1A2A
:101768001202FF3274DA079823F07F424FF0010823
:10177800034406925B1A23F07F43079324B10021A8
:101788004FF4CA6000E000BF24B1002140F2566067
:1017980000E000BFDDE90632A3EB0903A2EB090272
:1017A800134313F4400F5ED0BBF1000F40F09C8050
:1017B80095F82B30002B7FF466AF03980BB0BDE88B
:1017C800F08F019A684B02F101081E4603EB821E56
:1017D80008F00108BEE80F0006EB881C5FFA88F9DC
:1017E800ACE80F00BEE80F00ACE80F00BEE80F0041
:1017F800ACE80F009EE80F008CE80F0024B1002130
:101808004FF4B56000E000BF019E08F108080836F3
:1018180055F8263045F82830002C00F09580002136
:1018280040F2AC50CDF8049000E000BF43E703F06D
:101838000F03043B13441B7E4FEA531B0378002B12
:101848003FF41DAF0023039303980BB0BDE8F08F5E
:101858004FF0000892E70DF1180A019B39465246ED
:10186800FFF70AF86FE7BBF1000F27D1B8F1000FB7
:1018780008D104B3002140F2696000E000BF0123F1
:10188800039395E7069801F0B7FDBDF822309DF95E
:10189800202003331344334A9042034400F28680E5
:1018A800934272DC002B03DA03F1F45303F590231F
:1018B800FB60002CDED10123039379E701995046A0
:1018C800FEF716FE48EA00085FFA88F8B8F1000F3C
:1018D800CFD0D7E7012B6ED108F15E0026E700F1E3
:1018E800614000F5F7000FE70DF1130205A9BDF8F7
:1018F800220001F08FFD95F82F30202B36D02B6970
:10190800073323F07F46079B3046069906965B1AF5
:10191800334423F07F43079301F06EFDBDF8223076
:101928009DF92020033313440E4A904203443DD8C6
:1019380093422FDC002B03DA03F1F45303F59023D1
:10194800FB600123039333E7CDF80490B3E64FF02F
:10195800080B90E600ED00E000E400E06C120021C6
:1019680000000000FF7F841EA0120021BDF8223075
:1019780009F10B069BB995F83533059A934201D9BD
:101988009B1A1E4426F07F46BDE703F1614303F529
:10199800F7038DE703F1614303F5F703D0E702F09E
:1019A800E3F80028E7D109F13D06E4E740F2E45105
:1019B800702002F0D9FB40F28961702002F0D4FB5C
:1019C800BA4A53682DE9F04FC3F308038DB089462E
:1019D8000090002B00F0A382103B59B20029C0F2FE
:1019E800B081B34B5B5C5B090193002B40F0B38182
:1019F800DFF8D0A29AF82F30202B00F0348399F822
:101A080000300193002B40F02483DFF8BCB2BBF117
:101A1800000F04D0002140F23F7000E000BF009B9F
:101A2800012603EB83039B000393BBF1000F04D053
:101A3800002140F2477000E000BF26B99D4B0BB172
:101A480000E000BF62B64FF000039AF82E808AF8D3
:101A58002B305FFA88F8019B002B40F03781BBF1EF
:101A6800000F04D0002140F25B7000E000BF01F0DD
:101A780023FB99F800300546002B40F07E81D9F809
:101A88000C40B9F80830E01EB9F80A20ADF82A3041
:101A9800C01A894BADF82C209C4299F80B60D9F8F4
:101AA800047000F2D182844B984200F33B820028F4
:101AB80003DA00F1F45000F5902008AB0AAA3C4480
:101AC8001946029301F0A6FC089B23F07F43089374
:101AD800002E40F0C98104F17D0007AA09A901F090
:101AE80099FC9DF91C30002B099BC8BF013323F0DA
:101AF8007F430993BBF1000F04D0002140F26270CC
:101B080000E000BF4FEA4814009BE3180AEB4303C8
:101B180093F83430013B012B00F237810899674B69
:101B28004A1B1340002B40F0348108F10807009B42
:101B380004200AEB8701E2188B780AEB4202DBB239
:101B480082F83400202B00F03F82009A234411468B
:101B58000AEB430383F835200C4420220AEB870361
:101B680001250AEB4404997084F835200AEB8707AD
:101B7800FC78E4B2BBF1000F04D0002140F2697098
:101B880000E000BF4E4B0BB100E000BFEFF3108741
:101B980072B63E46BBF1000F04D0002140F26F70D0
:101BA80000E000BF9AF82B3003F0FF01002B7FF410
:101BB8003CAFBBF1000F03D040F2777000E000BFEC
:101BC800039B0AEB030C029B0CF1B80C0FCB8CE8BF
:101BD8000F00A5B3BBF1000F04D0002140F28470C0
:101BE80000E000BF019B002B0CBF002404F001049F
:101BF800C4B19AF82F30202B14D1BBF1000F04D0B8
:101C0800002140F2897000E000BF41460220FFF742
:101C18005BFA38B999F80030002B00F0E581012B08
:101C280000F0A180BBF1000F04D0002140F2A670A3
:101C380000E000BF01238AF82E808AF82B30BBF120
:101C4800000F04D0002140F2AF7000E000BF27B9B8
:101C5800184B0BB100E000BF62B6BBF1000F04D017
:101C6800002140F2B37000E000BF9DB19AF82E3019
:101C78000AEB830393F82130202B0BD0BBF1000F24
:101C880004D0002140F2BA7000E000BF9AF83D038A
:101C980002F006FBBBF1000F04D0002140F2BF7038
:101CA80000E000BF28460DB0BDE8F08F00ED00E071
:101CB80000E400E000000000FF7F841EFEFFFF003C
:101CC800000000006C12002100000000C34D08F164
:101CD800010405EB881704F001040FCF05EB841508
:101CE8000FC50FCF0FC50FCF0FC597E80F0085E8B9
:101CF8000F00BBF1000F04D000214FF4B56000E0E5
:101D080000BF08F1080804F108035AF828204AF827
:101D18002320BBF1000F04D0002140F2AC5000E0BA
:101D280000BFBBF1000F04D0002140F2517000E069
:101D380000BF9AF82B30002B7FF477AE5FFA84F857
:101D48008DE603F00F03043B13441B7E5B090193EC
:101D5800002B3FF44DAE99F80030012B00F28D8135
:101D6800DFF880A251E6BBF1000F3FF45EAE0146FA
:101D780040F29C7000E000BF57E608AB49461A469F
:101D880002934346FEF778FDB4E6002508F10807FC
:101D9800ECE6099B5D1B154315F4400F7FF4C5AEB7
:101DA80008F108071AF82760202E63D006EB86038F
:101DB80035460AEB8303D3F8BC30CB1A1B02FF333A
:101DC800C0F2CF8020230493BDF82A30002B36D0F0
:101DD80005EB85030AEB8303B3F8C2207ABBD3F87B
:101DE800B800059301F008FB059BB3F8C22093F9EE
:101DF800C03003321A447A4B9842024400F22481DC
:101E08009A4200F3DC80002AC0F2B28007AB104689
:101E18000DF11B021946059301F0FCFA9DF91B0010
:101E2800059B0028DDE90721CCBF342033208A1A1E
:101E3800120248BFFF32B0EB222F00F396802544F0
:101E48000AEB450595F83520202A14D002EB8203C9
:101E5800154604960AEB8303D3F8BC30CB1A1B0251
:101E6800FF3308DB1646AFE7012E40F0F78004F198
:101E78005E0032E6324607AB414602988DF81C6098
:101E8800FEF782FC0546002800F085809DF81C10AE
:101E98008E424CD0202900F0EB806318202E0AEBEC
:101EA800430393F8352071D0A3190AEB430393F841
:101EB80035C083F835206246052000E01A46A3188D
:101EC8008A420AEB430383F8340093F83530F5D19E
:101ED8000AEB87008278D2B2202A79D022440AEB12
:101EE800420282F835C0009A4FF0200E60180AEBC3
:101EF800870CA21876450AEB40008CF802100AEB12
:101F0800420280F835E082F835301DD10AEB8703AC
:101F1800009901220AF82710DA700B461AE0082304
:101F2800019318E700F1614000F5F700C5E5202EA0
:101F380023D0A219009B0AEB4202E31892F835203D
:101F48000AEB430383F835202644009B0AEB460638
:101F580086F835301C4403230AEB440484F83430F3
:101F680004E6324607AB202686E73246049E83E71E
:101F780002F1F45202F5902248E7009B1AF8272054
:101F8800E3180AEB430383F83520BFE71AF827C0A4
:101F98000AF827208FE70AEB8701009D04208B7839
:101FA8006219DBB20AEB4202202B82F8340012D00D
:101FB800234429460AEB430383F83550CCE502F164
:101FC800614202F5F70221E7009B4B701946C3E511
:101FD80080F801C087E74D702946BDE5A0120021B1
:101FE800FF7F841E6C1200211946BBF1000F03D03D
:101FF80040F2917000E000BF9AF82E300425009A54
:10200800DBB203F108015B010AEB81069818B2788C
:102018000AEB4000D2B280F83450202A10D01A447B
:1020280000980AEB420282F8350003440AEB810269
:10203800202125460AEB4303907083F83510FEE50E
:10204800009A72701046F0E740F2E451702002F0F6
:102058008BF84FF4E761702002F086F840F289614E
:10206800702002F081F840F23571702002F07CF89F
:1020780040F28921702002F077F840F23C7170201C
:1020880002F072F82DE9F04FA04C83B080464FF073
:10209800010A9F4D04F1340B94F82E3025B100212C
:1020A80040F2CE7000E000BFBAF1000F04D1994BA6
:1020B8000BB100E000BF62B64FF0000384F82B308C
:1020C80025B1002140F2D37000E000BF94F82E90B3
:1020D8005FFA89F909F101060BEB891C06F0010684
:1020E800BCE80F000BEB86170FC7BCE80F000FC743
:1020F800BCE80F000FC79CE80F0087E80F0025B168
:1021080000214FF4B56000E000BF09F1080306F1B3
:10211800080954F8233044F8293025B1002140F249
:10212800AC5000E000BF94F82B3003F0FF02002B06
:1021380040F0B08035B1114640F2DD70019200E008
:1021480000BF019A770107EB080304EB430393F8F8
:102158003430032B7FD114F82930202B18BF984531
:1021680014BF0122002200F0C38019467A180846DD
:1021780004EB420292F83510884518BF202914BF95
:1021880001220022F2D1202965D08B4200F09480F0
:102198003944384404EB410104EB400091F8352000
:1021A80080F8352065B1002140F22D50019300E000
:1021B80000BF019B984503D104EB89030122DA7023
:1021C80025B1002140F2E27000E000BF07EB0803F0
:1021D80004EB430393F834204AB1062A07D0032AB4
:1021E80005D0052A03D0012283F8342005E04744AE
:1021F800012304EB470787F8343004EB890999F881
:102208000370FFB225B1002140F2ED7000E000BF7D
:10221800414B0BB100E000BFEFF3108A72B625B155
:10222800002140F2F27000E000BF94F82B30002B40
:1022380039D1F6B21FB194F82F30202B47D025B1F1
:10224800002140F60A0000E000BF012384F82E6058
:102258001A4684F82B3035B1002140F6130001925C
:1022680000E000BF019ABAF1000F0BD035B1002190
:1022780040F61700019200E000BF019A104603B033
:10228800BDE8F08F234B1BB1019200E000BF019A1B
:1022980062B6EBE7002D3FF401AF002140F2D970A0
:1022A80000E000BFFAE6002D3FF4F8AE002140F24E
:1022B800F67000E000BFF1E6FA1804EB420292F86B
:1022C800352004F82920002D7FF46DAF78E73146DA
:1022D8000220FEF7F9FE02460028B0D1002DBAD040
:1022E8000146019040F6050000E000BF019AB2E700
:1022F800202BB0D0FA1804EB420292F8352004F8EB
:102308002920002D3FF456AF4DE700BF6C12002185
:10231800000000000000000000000000002000F0A5
:102328006DBF00BF014B93F83C0370476C1200214E
:102338002DE9F041072800F29380DFE800F0184902
:10234800647291798A04BA4C94F82F30202B00F0EB
:10235800DD8094F82F30052194F82F0003EB8303D8
:1023680004EB8304D4F8B430BDE8F0411847B04C0E
:1023780094F82C30002B00F01981E38A23B101F086
:10238800F3FB002800F04F8194F82F30202B00F049
:10239800E580A16801234A1C84F8293006D003226D
:1023A800052000F08FFE002800F03881637E012BA5
:1023B80000F01E8194F82F30012103EB830394F879
:1023C8002F0004EB8303BDE8F041D3F8B43018477D
:1023D800974C94F82F30202B6FD0012584F8285083
:1023E80001F0C2FB002800F00F8194F82C30002B7C
:1023F80000F0F98094F82D30002B40F0E78094F835
:102408002F300021D9E78A4C00F0E2FFE38A002B45
:1024180040F0D28094F83433032B07D1012363773B
:1024280004E0834B0122D3F838331A60BDE8F08109
:102438007F4C94F82F30202B17D04FF0FF3294F8B0
:102448002930A260002B00F0DA8094F82F300621A2
:10245800B3E7774BBDE8F04193F83C0301F020BFA8
:1024680040F68F01702001F07FFE94F82E30DBB229
:1024780003F1080114F82120202A00F0CA8002EB99
:1024880043130227012504EB810604EB43030020D4
:10249800F57083F8347093F8353084F82B5004F8CD
:1024A800213084F82A0084F82F20A07701F03CFF1F
:1024B8000028C2D05F4B1D60BFE794F82E30DBB216
:1024C80003F1080114F82120202A00F0A28002EB71
:1024D80043130227012504EB810604EB4303002084
:1024E800F57083F8347093F8353084F82B5004F87D
:1024F800213084F82A0084F82F20A07701F014FFF7
:1025080000283FF46AAF4B4B1D6066E794F82E3005
:10251800DBB203F1080114F82120202A79D002EB5C
:1025280043130227012504EB810604EB4303002033
:10253800F57083F8347093F8353084F82B5004F82C
:10254800213084F82A0084F82F20A07701F0ECFECF
:1025580000283FF4FEAE374B1D60FAE694F82E30A3
:10256800DBB203F1080114F82120202A51D002EB34
:1025780043130227012504EB810604EB43030020E3
:10258800F57083F8347093F8353084F82B5004F8DC
:10259800213084F82A0084F82F20A07701F0C4FEA7
:1025A80000283FF4F6AE234B1D60F2E601F080F8F8
:1025B800012384F82C30E0E601F0D6FA00287FF4F5
:1025C80029AF40F67D01702001F0CEFD1A4B0122A3
:1025D8000520C3F8082500F02DFE01F015F90023A9
:1025E80084F82D300BE701F063F884F82C5001E7EC
:1025F8002069013820F07F4000F06CFCDAE640F6F4
:102608006401702001F0B0FD40F67301702001F004
:10261800ABFD40F29631702001F0A6FD40F6550161
:10262800702001F0A1FD40F64F01702001F09CFDE3
:102638006C120021048C004100F000410B4B93F810
:102648002F20202A0BD093F82F20042193F82F0055
:1026580002EB820203EB8203D3F8B430184710B5BB
:1026680040F69701702001F07FFD00BF6C12002139
:1026780010B52D4C82B094F82F30202B3BD0A36896
:1026880001334CD16268294913188A4242D8284A32
:1026980090423ADC274A904232DB8B421ADC002B0C
:1026A80013DB18460DF1030201A900F0B3FE9DF9F2
:1026B8000320019994F829300F2AC8BF013121F06D
:1026C8007F41A1605BB902B010BD03F1F45303F57B
:1026D8009023E6E703F1614303F5F703E1E70123FC
:1026E8000322052000F0EEFC0028ECD140F6CB21B7
:1026F800702001F039FD40F6C121702001F034FD51
:1027080040F2E651702001F02FFD40F2E5517020B3
:1027180001F02AFD40F2E451702001F025FD40F659
:10272800C221702001F020FD6C120021FF7F841E61
:102738000020A10700E05EF80E4A0B1A93420DD95B
:1027480010B5441A944207D90B4A934208D89442C8
:102758000AD90A48001B10BD604210BD18467047D0
:10276800074B0B44181A10BD40F6E521702001F004
:10277800FBFC00BFFF1FA107FF7F841E00807BE1D9
:102788000080841E10B50A4C94F831306BB194F86F
:102798003C33FF2B02D00023184610BD01F064FD26
:1027A800002384F83C03184610BD6FF02203F3E7BA
:1027B8006C12002138B50F4B04460BB100E000BF86
:1027C800EFF3108572B6012321460322062000F09C
:1027D80079FC044625B9084B0BB100E000BF62B68E
:1027E80004B138BD054B93F83C03BDE8384001F00F
:1027F80057BD00BF00000000000000006C1200215F
:1028080000F05ABC2DE9F043634C83B094F82F30A4
:10281800202B00F0BC8094F82F50064694F82E30F8
:102828004FF0200C20680DF1030208330F463044A6
:1028380001A914F82380EDB28DF802C0D4F81090E5
:1028480000F0E8FD9DF90330A6F16401534A002B1E
:10285800019BC4BF0133019391421DD805EB850547
:1028680004EB8505D5E92E210B449A1A12F4400F82
:1028780012D123F07F4094F82E1042460DF1020346
:10288800206147482776FDF77FFF48B90320C4F841
:10289800109003B0BDE8F083012003B0BDE8F083D9
:1028A800A368013311D000F007FCA368181A0002CE
:1028B800B0F5407F03DAC4F810900220EDE7052058
:1028C80000F0B8FC4FF0FF33A3609DF8025094F875
:1028D8002E30202DDBB21DD1083314F8233094F8A4
:1028E8002E10012094F82F2084F82B0002EB4112BF
:1028F800607E216804EB420201280E4482F83530DC
:10290800266038D0202D34D094F83D0301F0C8FC5F
:102918000020C2E7580103F108010527431914F8FC
:1029280021C004EB4303624693F8353004F82130A4
:1029380000E01A468318954204EB430383F8347089
:1029480093F83530F5D104EB810E9EF80270FFB292
:10295800202F19D0074404EB470787F835C01044E7
:1029680004EB8101202704EB40008A7080F8357061
:10297800B5E7002091E72069013820F07F4000F09A
:10298800A9FA9DF80250BDE78EF801C0E7E740F6C6
:102998005C31702001F0E8FB6C1200219B1FA1073D
:1029A800781200212DE9F84F9D4C94F82E3000EB59
:1029B800431304EB430393F83430002B00F02B81CE
:1029C80094F82E700546974EFFB226B1002140F6C6
:1029D800AA3000E000BF7F01002E40F0D18007EB55
:1029E800050804EB480898F83430012B06D10EE0AE
:1029F80017F03EFD98F83430012B08D01A1F022A30
:102A0800F6D82F44012304EB470787F834304FF0FA
:102A1800010ADFF81C9226B1002140F6C13000E01F
:102A280000BFBAF1000F04D17F4B0BB100E000BF2B
:102A380062B64FF0000384F82B3026B1002140F62F
:102A4800C63000E000BF94F82EB05FFA8BFB0BF1A4
:102A5800010809EB8B1C08F00108BCE80F0009EB22
:102A680088170FC7BCE80F000FC7BCE80F000FC7D7
:102A78009CE80F0087E80F0026B100214FF4B560ED
:102A880000E000BF0BF1080308F1080B54F82330ED
:102A980044F82B3026B1002140F2AC5000E000BFD2
:102AA80094F82B3003F0FF01002B60D11EB14FF4D6
:102AB8003D6000E000BF04EB8B0359788D4200F0C5
:102AC8009A80202900F097808A464FEA481200E051
:102AD800BA4602EB0A0304EB430393F83570BD4290
:102AE80018BF202FF4D1202F1AD0B94200F08A80C5
:102AF8003A4404EB420292F8352083F8352026B197
:102B0800002140F2255000E000BF04EB8B039B78C6
:102B18009F425CD026B1002140F22D5000E000BF5A
:102B280026B1002140F6D43000E000BF3F4B0BB186
:102B380000E000BFEFF3108372B694F82B209A469A
:102B4800002A4FD15FFA88F8012284F82E8084F891
:102B58002B2023B9344B0BB100E000BF62B626B17D
:102B6800002140F6E73000E000BFBDE8F88F002EF6
:102B78003FF451AF002140F6CC3000E000BF4AE7F7
:102B88007A1904EB420292F83430012B3FF43FAF3C
:102B980090461A1F022A16D9002140F6B63000E0E6
:102BA80000BF17F065FC002140F6BA3000E000BF16
:102BB800002E3FF414AF98F83430012B3FF427AFC0
:102BC8001A1F022AE8D8012388F83430EBE726B127
:102BD80000214FF4A56000E000BF04EB8B0B8BF8DD
:102BE80002A097E7002E3FF416AF002140F6DA3036
:102BF80000E000BF0FE7202992D00F464FF0200ACF
:102C08004FEA48120A4404EB8B0304EB420292F8A1
:102C180035205A7073E740F6A131702001F0A4FA0C
:102C28006C120021000000000000000000000000FD
:102C3800A012002138B504460846154600F0DCFB12
:102C48001149031B8B420AD9221A8A420BD90F4910
:102C58008B420DD88A4212D90D4B2344C31A03F173
:102C68000F00281A38BD534203F10F00281A38BD47
:102C7800074B1B1B034403F10F00281A38BD40F60D
:102C8800E521702001F070FAFF1FA107FF7F841E65
:102C98000080841E30B404212B4C4FF08073002236
:102CA8002A484FF48055A17063602270C0F88050A4
:102CB800BFF34F8FBFF36F8F254B0121C0F88051B1
:102CC8004FF0FF3522724FF400345960C3F80853AF
:102CD800C3F84025C3F84021C3F84425C3F844216C
:102CE800C3F84825C3F84821C3F84C25C3F84C213C
:102CF8001961C0F88040BFF34F8FBFF36F8F154A3B
:102D0800C0F88041134651609160D3F80425002A29
:102D1800FBD14FF0FF310D4C4FF400350120C3F8C3
:102D28000813C3F84813C3F84025C3F84021C3F873
:102D38004425C3F84421C3F84825C3F84821256031
:102D4800186030BC704700BFAC15002100E100E0FE
:102D580000C000410010014155490A78012AF8B520
:102D680020D14B68834200F09980524D0626524B81
:102D78006FF48024C5F80865C3F808434E4B002457
:102D88006FF4A025C3F84853C3F84445C3F8444139
:102D9800494BD3F84831FBB9484B4FF40034C3F8DA
:102DA800804119E0434D0626434B6FF48024C5F853
:102DB8000865C3F80843002AE0D1C3F84843C3F8BC
:102DC8004025C3F84021C3F84425C3F844213A4BB1
:102DD800D3F84831002BDFD0374B4FF4803600242E
:102DE800374DC3F80863C3F84863C3F84041D3F8C4
:102DF8000445041B2C4252D014F4400F4FD1C3F8A1
:102E08004005C3F844632AB14C68D3F80425A21AD4
:102E18002A42FAD000220126284C4FF480558A70A5
:102E2800CE60C4F88050BFF34F8FBFF36F8F254B30
:102E38004FF0020C4FF0FF3EC4F8805104270A728D
:102E4800486040F201405E60C3F808E3C3F84025DB
:102E5800C3F84021C3F84425C3F84421C3F84825E2
:102E6800C3F84821C3F84C25C3F84C211E61C3F8A8
:102E78000425C3F808C5CA68DFF838C0C3F8107558
:102E8800DE60C3F80022104E104B114AC4F880517E
:102E9800336025601360CCF804750880F8BD064BD4
:102EA800002240F2CB116C20C3F8402501F05CF9F8
:102EB800AC15002100F000410010014100E100E0E4
:102EC800FEFFFF0000C00041C01101410200008068
:102ED80080C00041284AF8B517785668022F3DD0BF
:102EE800864243D0137A002B3BD0244B4FF48035D5
:102EF800234C00214FF0020CC4F808C5C3F808534E
:102F0800C3F84853C3F84011D3F804151D4C411AAF
:102F1800214202D011F4400F08D0184B002240F291
:102F2800E9116C20C3F8402501F01EF9C3F84005EB
:102F3800C3F8445327B1D3F80415711A2142FAD0C3
:102F480050600224104B40F20241104E104D0C48C4
:102F580033602B60C0F804451180F8BD8642C1D1AA
:102F6800F8BD40F2DD116C2001F0FEF840F2D911F5
:102F78006C2001F0F9F800BFAC15002100100141E8
:102F880000F00041FEFFFF0001000080C011014178
:102F98008CC00041F8B53C4C6FF480213B4B227843
:102FA800C3F80813002A5BD1C3F84813C3F84025B7
:102FB800C3F84021C3F84425C3F84421D3F8483165
:102FC800002B5BD1324B4FF40031C3F88011022A39
:102FD80054D12E4B6168D3F80405033020F07F40AC
:102FE80081420FD0D3F804352A4ACB1A1A404AB185
:102FF80013F4400F06D1FFF7AFFEE368264AC2F884
:103008000032F8BD214B254AD3F80435CB1A1A40B3
:1030180012B113F4400308D0012200211346E260E4
:103028001D4AA170C2F80032F8BD616001221A4938
:1030380002251B4804271B4EC0F8085540F20145DD
:10304800A3701346E2604A60CA60174AC0F8047564
:103058003260C1F88020104A2580C2F80032F8BDDD
:1030680000216FF4A020C3F84803C3F84415C3F83F
:103078004411D3F84831002BA9D1A3E740F2F51148
:103088006C2001F071F800BFAC150021001001415F
:1030980000E100E0FCFFFF0000C00041FEFFFF0070
:1030A80000F00041C011014102000080014B586846
:1030B800704700BFAC150021014BD3F804057047D9
:1030C80000100141F8B50446062C00F28B80DFE8B9
:1030D80004F029292929040404004548057815B174
:1030E8004078A04279D0043C424801250026E4B249
:1030F80004F1100700EB8404BD40C0F80853C0F881
:103108004853C4F84061A2B3D0F80405081A20F067
:103118007F46B24202D810F4400F2AD00020C4F8EB
:103128004005F8BD32484568B5F1807F3AD005784A
:10313800022D3FD004F1100501202F4E00FA05F5AD
:10314800C6F808530AB306EB84073864D7F8400575
:10315800081A20F07F4700F44000BA4298BF0028C0
:103168000CBF0120002010D004F5A87446F82400F4
:10317800F8BD012BC4F8401502D11E4BC3F8045307
:103188001C4B0120C3F84453F8BD04F5A8741A4A2F
:10319800012B42F8241001D00120F8BDC2F80453D5
:1031A8001846F8BD057A002DC1D14FF40A716C207C
:1031B80000F0DAFF4078051F0328EDB206D9503534
:1031C8000C4E56F825000028B4D1FAE750300A4EC4
:1031D80056F82050002DFBD0ACE740F24B216C2074
:1031E80000F0C2FF4FF414716C2000F0BDFF00BF67
:1031F800AC1500210010014100C0004108B50628A7
:103208000FD8DFE800F00A0A0A0A040404000438A8
:10321800064BC0B203EB800008BD054B03EB8000F2
:1032280008BD4FF41D716C2000F09EFFC0110141D4
:10323800C0C1004170B582B006286BD8DFE800F045
:103248002323232304040400354A031F1178DBB227
:1032580011B1547884422BD0324903F11000012275
:103268000024314D824001EB8300C1F80823C1F8E6
:103278004823C0F84045C0F8404155F82330019331
:10328800019B02B070BD00F11002284C01230021FF
:10329800274D934004EB8002C4F80833C2F8401568
:1032A800C2F8401155F820300093009B02B070BD61
:1032B800204806240129C0F8084505D000204FF011
:1032C800807110705160C7E71B4C4FF48055C4F8EB
:1032D8008050BFF34F8FBFF36F8F4FF0FF36C4F8A6
:1032E8008051A0F54050002441601472C0F8086372
:1032F800C0F84045C0F84041C0F84445C0F84441D2
:10330800C0F84845C0F84841C0F84C45C0F84C41A1
:103318000161D3E740F2BD216C2000F025FF00BF1A
:10332800AC150021001001414011014100C00041CD
:1033380040C1004100F0004100E100E0204A6FF484
:103348008021204B1278C3F8081322BBC3F8481316
:10335800C3F84025C3F84021C3F84425C3F84421E5
:10336800184BD3F8483123B3174B00224FF0FF31E5
:10337800C3F80813C3F84025C3F84021C3F844250F
:10338800C3F84421C3F84825C3F84821C3F84C259D
:10339800C3F84C21704700226FF4A021C3F84813EA
:1033A800C3F84425C3F84421064BD3F84831002B11
:1033B800DAD1064B4FF40032C3F88021D4E700BFBE
:1033C800AC1500210010014100C0004100E100E0FF
:1033D800074B93F91030002B09DB5A09012103F040
:1033E8001F030448403201FA03F340F822307047C3
:1033F800AC15002100E100E043F60952C0F30803D0
:10340800400A02FB03F302FB00F003F5807300EBB4
:103418005320704730B448F23763440B43F60955DC
:1034280003FB04F30E4C1B0C05FB13005B0204FBAF
:1034380000F440020B6000F58070630D05FB13007B
:10344800400A1070086803440B6092F900301F2B83
:1034580004D1002313700B6801330B6030BC704734
:103468006F0C0100244BD3F80423D00310B502D508
:10347800D3F840210ABB204BD3F80423910302D58B
:10348800D3F844214ABB1C4BD3F80423520302D57A
:10349800D3F8482102B910BD4FF480200024174A00
:1034A8004FF40031C3F808030620C3F84841C2F8B6
:1034B8008011BDE81040FEF73BBF4FF48030002478
:1034C8000E4A4FF40031C3F808030420C3F8404102
:1034D800C2F88011FEF72CFFCDE74FF4003200242C
:1034E80006490520C3F80823C3F84441C1F88021E0
:1034F800FEF71EFFC7E700BF0010014100E100E032
:10350800F0B5594C85B0A378042B32D023785BB141
:10351800012B00F0A280237A002B00F0A080022368
:1035280060782370FFF786FE504BD3F80423150309
:1035380002D5D3F84C2112BB4C4BD3F804235003CB
:1035480003D5D3F84821002A34D1484BD3F80423B3
:10355800910303D5D3F84421002A46D1434BD3F82D
:103568000423D20303D5D3F84021002A58D105B04B
:10357800F0BD072005B0BDE8F040FEF7D9BE002237
:103588004FF400203A4D4FF48051C3F8080303204C
:10359800C3F84C25C3F84C212A68364B0092009A90
:1035A800C3F88011FEF7C4FE304BD3F80423500350
:1035B800CBD5C6E700224FF480202F4D4FF4805121
:1035C800C3F808030220C3F84825C3F848212A682D
:1035D800284B0192019AC3F88011FEF7A9FE234BEC
:1035E800D3F804239103B9D5B4E700224FF400308F
:1035F800224D4FF48051C3F808030120C3F8442535
:10360800C3F844212A681B4B0292029AC3F880111E
:10361800FEF78EFE154BD3F80423D203A7D5A2E7F5
:1036280000224FF4803116484FF48056C3F808132F
:103638000421C3F84025C3F8402100680D4D0390CC
:103648001046039FE260C5F88061A170C3F80022AC
:1036580005B0BDE8F040FEF76BBE23725FE74FF49C
:1036680065716C2000F080FDAC15002100C00041A0
:103678004CC1004100E100E048C1004144C10041A3
:1036880040C10041FEF7DABF054BD3F80C24D3F84C
:103698000C0410F4803018BF02F00100704700BF1E
:1036A80000500041014B5888704700BFC0150021E9
:1036B80010B5EFF3108472B6064A13790133DBB202
:1036C80013711379012B01D100F032FA04B962B6F3
:1036D80010BD00BFC015002170B50B4C26785EB92F
:1036E8000125A0602570FFF7E3FF00F03DFA28B937
:1036F800064B2573C3F80453002070BDA368002B44
:10370800FAD09847A660F7E7C0150021005000419D
:1037180008B5FFF7CDFF00F027FA084B38B1084A83
:103728000121116004225A7300229A7308BD0322F2
:1037380001215A73034AC2F80413F5E7C0150021A2
:10374800105000410050004138B5124CE37BC3B122
:10375800012B03D0A27B013B9A4212DA00F004FA53
:10376800054600F043FDE37B012B82BFA37B0133B9
:10377800A37355B12369C31A0133022B09D935B193
:103788002061BDE83840FFF7C3BF6369F3E76061B4
:10379800F7E738BDC015002110B5EFF3108472B6F5
:1037A8000A4B1A7922B940F20D116D2000F0DCFCA9
:1037B8001A79013AD2B21A711A791AB91B7E0BB961
:1037C80000F0BCF904B962B610BD00BFC0150021F5
:1037D80008B5054B1A7822B100221A731A70FFF740
:1037E800DBFF002008BD00BFC0150021EFF31081EA
:1037F80072B6044A137E0133DBB2137601B962B69E
:10380800704700BFC015002110B5EFF3108472B6E1
:103818000A4B1A7E22B940F225116D2000F0A4FC53
:103828001A7E013AD2B21A761A791AB91B7E0BB9E6
:1038380000F084F904B962B610BD00BFC0150021BC
:10384800024B587B003018BF01207047C01500217B
:1038580070B5194D6B7E2C467BB9E86900F0030002
:1038680000F0A8F948B100F0A1FA30B9EFF31083DD
:1038780072B66A7B12B103B962B670BD01226A736F
:1038880003B962B600230D4A0D4D8026C5F80863BA
:10389800136084F82030FFF73BFF94F8442002219E
:1038A800084B094853436362084B236300F084FACA
:1038B800C5F80463E1E700BFC01500211C510041B1
:1038C8000050004190D00300E41500215137000159
:1038D800F8B5244C94F84530002B42D0224B1E6892
:1038E80004331F6856B10122C3F80422237B2BB18D
:1038F8000025A36825730BB19847A5603FB11B4B02
:1039080000221A600222C3F80422FFF7A1FF184B15
:103918001A6894F82050EDB23EB1617B032904D1B6
:10392800042101206173134908606AB100221A60FA
:10393800637B042B04D04FF4DE716D2000F014FC7F
:1039480002236373FFF728FF5DB1002384F820305A
:10395800637B022B01D1FFF7DBFEBDE8F840FFF7E0
:103968001BBFF8BDC01500210051004104510041A2
:103978001C5100411050004110B5044CE06900F0A2
:10398800030000F017F90028F8D010BDC015002179
:10399800F8B5054660B10278022A09D8437852B9C9
:1039A800013B1F2B04D88378212B01D8012B07D189
:1039B8006FF0150065E0002BFAD18378002BF7D162
:1039C800534B2022C3F88020BFF34F8FBFF36F8F74
:1039D800C3F880214FF0FF324E4B4F4CC3F80823F9
:1039E80000234E4A13605360D3612371AB88638010
:1039F80000F0C8F810B1012323702371FFF744FECB
:103A080008B100F0ABF80123AA786978E3612B7854
:103A1800E2730022012B637684F84410A27307D066
:103A280043B1022B2ED04FF44C716D2000F09CFB5B
:103A38000223E36100F0AEF888B300F0B3F8E3695D
:103A480003F0030398422AD1AB791BBBFFF794FF1D
:103A5800E37B63B12B7853B900F086F8054600F094
:103A6800C5FB6FF00043002D4FD0C4E904030123C8
:103A78002022002084F84530254B6073C3F880214C
:103A88001A60F8BDFFF714FEFFF7FEFD0028FBD013
:103A98000323CEE71F4B0222C3F80423D8E70121F2
:103AA80000221F4B1F4E196032601A4A207FC2F84D
:103AB80018051D4801600221C2F80413A9790029DC
:103AC800C6D1D2F80423930702D440F2F121ACE71F
:103AD800164A1769116907F0100741F010011161C2
:103AE80033687BB1FFF748FF27B9104A136923F001
:103AF80010031361074B0222C3F808230022C3F8FE
:103B08000421A5E716F0B4FCEAE7C4E90430AEE7FF
:103B180000E100E000500041C015002100510041C3
:103B28000C500041045100410850004100ED00E0F4
:103B3800014B01221A60704700500041044B0122DA
:103B48001A600023034A1360034A1370704700BFCA
:103B5800045000410051004106160021014B01228A
:103B68001A70704706160021044B1B6823B9044BD2
:103B7800187800F0010070470120FAE70051004171
:103B880006160021024BD3F8080400F00100704724
:103B980000500041024BD3F8140400F001007047B4
:103BA80000500041024BD3F81C0400F0030070479A
:103BB80000500041084BD3F81824D3F8183413F4F4
:103BC800803306D002F00303C0B21B1A5842584192
:103BD80070471846704700BF00500041BFF35F8F21
:103BE800024A137803F0FE03137070470816002189
:103BF800064B1A78D20707D41A7842F001021A70D5
:103C0800BFF35F8F0120704700207047081600211E
:103C180008B5FEF7F5FD0A4B5B685B69181A0002E8
:103C2800B0F5407F04DB1846BDE80840FEF7C2BD8A
:103C3800FFF7D4FFFEF776FBBDE8084000F030BB85
:103C480008160021104A536870B4154623B9C36199
:103C5800506070BCFFF7DCBF46691A460024516902
:103C6800711A0902FF3109DBD169144621B9E369E8
:103C7800C361E06170BC70470A46F0E79342F6D131
:103C8800C3616860E5E700BF08160021074A53686A
:103C9800834203D1DB6953607047134623B1DA6965
:103CA8009042FAD1C269DA61704700BF0816002154
:103CB8002DE9F843FEF7A4FD3A4905464C688946C4
:103CC800002C6CD0FFF794FF804630B9E81C20F038
:103CD8007F40BDE8F843FEF76DBD4B685869401B4F
:103CE8000002B0F5407F22DA2F4E2046FFF7CEFFC4
:103CF800277C0FB36369013F002503F58003277410
:103D080023F07F436361FFF79DFFD9F8044054B166
:103D1800FEF776FD6369181A0002B0F5407F37DBBD
:103D28001846FEF747FDBDE8F843FFF757BFFFF712
:103D380055FF4B685869CCE7A069C8B1B042217AF1
:103D48001DD9B0FBF6F506FB1505002D08BF354655
:103D5800284616F059FB6369184420F07F406061DB
:103D6800A069401BB0FBF6F020742046FFF76AFFFD
:103D7800FFF734FFE368204645469847C5E716F045
:103D880043FB63692774184420F07F406061ECE7C7
:103D9800002DAAD0FEF7C6FA00F082FAC3E7BDE804
:103DA800F88300BF081600210020A1070148FEF78C
:103DB800E9BC00BFB93C00012DE9F0410546884641
:103DC800FFF716FF002874D0E5B13B4B5F68AFB929
:103DD80010223946A81800F045FBFEF711FDB8F18E
:103DE800010F064614D0B8F1000F46D0B8F1020F03
:103DF80043D04FF4B2716E2000F0B6F9BD4201D045
:103E0800FF69E4E7FFF7EAFE6FF01500BDE8F0810F
:103E18002868DFF8A8804045F4D8297A16F0F4FA23
:103E2800801B03021FD43046FFF7E6FA2C68844251
:103E380038BF4444241ADFF88880444528D9297AB1
:103E4800B4FBF8F708FB1747002F08BF4746E41BE9
:103E5800384616F0D9FA3044B4FBF8F420F07F4025
:103E68002C74686102E026F07F466E612846FFF7F1
:103E7800E9FEFFF7B3FE0020C8E72B7A2C6883B170
:103E88003D2C11D8B8F1020F4FF03F0400D1AC61BE
:103E9800297A204616F0B8FA304420F07F4068614D
:103EA800E4E75D2C38BF5D24B8F1020FC3D1AC61E3
:103EB800C1E76FF02200A9E708160021E17F841E00
:103EC8000020A107094B01225A604FF0FF32C3F8C6
:103ED80008234FF48032064BC3F88020BFF34F8F7E
:103EE800BFF36F8FC3F88021704700BF0000014106
:103EF80000E100E038B57D4D00240123C5F8FC4FF2
:103F0800C5F8FC3F00F010FA002800F0E380A72372
:103F18002C606C602246AC604FF0FF31EC602C6185
:103F28006C61AC61EC612C626C62AC62EC622C631B
:103F3800C5F88040C5F88440C5F88840C5F88C406D
:103F4800C5F89040C5F89440C5F89840C5F89C401D
:103F5800C5F8A040C5F8A440C5F8A840C5F8AC40CD
:103F6800C5F8B040C5F80041C5F80441C5F8084196
:103F7800C5F80C41C5F81041C5F81441C5F81841F9
:103F8800C5F81C41C5F82841C5F83041C5F8344189
:103F9800C5F83841C5F83C41C5F84041C5F8444129
:103FA800C5F84841C5F84C41C5F85041C5F85441D9
:103FB800C5F85841C5F85C41C5F86C41C5F8704171
:103FC800C5F88041C5F88441C5F88841C5F88C41D9
:103FD800C5F89041C5F89441C5F89841C5F89C4189
:103FE800C5F8A841C5F8B041C5F8B441C5F8B8410D
:103FF800C5F8BC41C5F8C041C5F8C441C5F8C841B9
:10400800C5F8CC41C5F8D041C5F8D441C5F8D84168
:10401800C5F8DC41C5F8EC41C5F8F041C5F80042E7
:10402800C5F80443C5F80843C5F80445C5F808456C
:10403800C5F80C45C5F81045C5F81445C5F8184528
:10404800C5F81C45C5F82045C5F82445C5F82845D8
:10405800C5F82C45C5F83045C5F83445C5F8384588
:10406800C5F83C45C5F84445C5F85445C5F860450C
:10407800C5F84046C5F84446C5F84846C5F8504610
:10408800C5F860361A4BC5F86446C5F86C364FF467
:104098002053C5F80049C5F80439164BC5F810393E
:1040A8004FF48053C5F81449C5F82849C5F82C4978
:1040B800C5F85049C5F85439A300013403F18243C7
:1040C800082C03F50043C3F80026C3F82026C3F8DC
:1040D8003019F1D1084B4FF48072C3F88020BFF338
:1040E8004F8FBFF36F8FC3F8802138BD0080004128
:1040F80000002D058232020000E100E070B5184D85
:1041080006460C462B783BBB164B6A60002808BF56
:104118001E462972FFF7EEFEFFF7D4FE3046FFF782
:1041280037FC0646B0B9FDF75FF8FFF791FB16F0CC
:1041380034F9002C0CDB04F01F0264090123A400ED
:10414800934004F1604404F56144C4F8803123606D
:1041580001232B70304670BD4FF0FF36FAE700BFE1
:1041680010160021308D02017FB5124B5D6885B9AC
:10417800FEE7B4FBF6F4D3B20132002CF9D104AA5D
:104188001A4402F80C4C0A223BB901A8A84704B00B
:1041980070BD044600220A26EDE7013B04ACDBB201
:1041A800E618B0FBF2F402FB1400303006F80C0CF1
:1041B8002046E9E710160021074B93F90830002B39
:1041C80009DB5A09012103F01F03403201FA03F306
:1041D800024941F8223070471016002100E100E042
:1041E800014B1878704700BF101600211B4B4FF485
:1041F800803170B5C3F88010BFF34F8FBFF36F8F56
:10420800174D0020174CC5F80001C3F88011266926
:10421800216906F0100641F0100121610121C5F85D
:1042280004132960D5F80031A3B11EB9236923F01E
:10423800100323610A4B0122D3F808055A60C3F81A
:1042480008230022C3F800214FF48032034BC3F83F
:10425800802170BD16F00CF9E4E700BF00E100E032
:104268000000014100ED00E038B50C490523013B91
:10427800DBB2FF2B03D14B216920FFF775FF01EB60
:10428800C302157905F0FF04002DF0D141F8330081
:104298000121547118469471117138BD1C16002102
:1042A800042808B503D95A216920FFF75DFF094B97
:1042B80003EBC0000379012B01D05B21F4E74379BC
:1042C80082790133DBB29A4218BF4371BDE80840D6
:1042D800FFF772BF1C16002170B50625114C002689
:1042E800013D15F0FF0500D170BD94F8281004EBCE
:1042F800C1031A79012A09D158799A79904205D0CF
:104308005A79D2B29A7154F83130984794F82830D3
:104318000133DBB2042B94BF84F8283084F828607A
:10432800DEE700BF1C160021024B1868831E5842A6
:10433800584170473401FF010048704700070841A1
:10434800AAB1012A70B40D7806780DD0B5420BD108
:10435800044601E0AE4207D114F8016F11F8015F7D
:10436800E3431344D842F5D1701B70BC7047104624
:10437800704700BF81EA00032DE9F0419F075CD137
:1043880086075ED0002A56D0034601E0002A52D0A4
:1043980011F8014B013A03F8014B9D07F6D1032AA6
:1043A80028D941EA0305A2F1040C6C074BD1BCF1F2
:1043B8002B0F48D94FEA9C0CA1F108051C460CF1BB
:1043C80001084FEA580E03EBCE0EF5E90267E4E860
:1043D80002677445F9D128F00104A04503D051F8CB
:1043E800245043F824500CF1010402F00302A40005
:1043F80023442144FAB1541E022C20D922F0030789
:104408000C461D460F4454F8046BBC4245F8046B37
:10441800F9D122F00304A24223442144A2EB04056B
:1044280009D00A78012D1A7005D04A78022D5A70E1
:1044380001D08A789A70BDE8F0810346DAE715461C
:10444800EFE70346ABE74FEA9C0C1D1F0C460CF147
:10445800010701EB870754F8046BBC4245F8046F69
:10446800F9D1C0E78307C9B268D0002A6BD00346E8
:1044780001E0002A67D003F8011B13F0030F02F1D3
:10448800FF32F6D12DE9F043032A41EA012545EA36
:10449800054547D9A2F10408C3F380044FEA9807F9
:1044A800B8F1170F07F101074AD99946002C43D0F4
:1044B80049F8045BA7EB040E03EB84044FEA5E069D
:1044C80004EBC606C4E900550834A642FAD12EF01A
:1044D800010CCCEB8C76E64509EB8C0408EB8606E0
:1044E8001CD0A6F1040C2560BCF1030F16D9A6F167
:1044F800080C6560BCF1030F10D9A6F10C0CA5607F
:10450800BCF1030F0AD9A6F1100CE560BCF1030F4A
:1045180004D9143E2561032E88BF656102F00302A9
:1045280003EB870332B1013A197003D0012A59709D
:1045380018BF9970BDE8F0839046BBE70346A1E732
:104548001C461646CDE7704738B50E4C237803F065
:10455800FF05B3B96378012B06D102236370636842
:1045680013B16368984765606378032B09D1002508
:10457800657063682BB1A3685B699847636898475F
:10458800656038BD48160021042873B5064604D96D
:104598004FF489716820FFF7E7FD0E4C0125FFF7FE
:1045A800D3FF25706378022B11D1A3683046DB68EE
:1045B80098478DF8056004EB46035A7C824201A8AF
:1045C80028BF1D7CA3688DF804501B68984702B06B
:1045D80070BD00BF4816002110B520B940F2271160
:1045E8006820FFF7C1FD074B5A78022A1A4602D005
:1045F8005B78032B04D19368BDE810405B681847CB
:1046080010BD00BF4816002110B5084C6378022B76
:1046180002D06378032B02D1A3689B6898470023D4
:104628002370BDE81040FFF78FBF00BF4816002178
:10463800064B5A78022A1A4602D05B78032B02D11D
:1046480093681B6918470020704700BF481600216F
:10465800064B5A78022A1A4602D05B78032B02D1FD
:1046680093689B6918470020704700BF48160021CF
:104678002DE9F047C41CB1F100091D4E4FF00002AE
:1046880024F003040746337814BF10462046717897
:1046980000F0DEFC96F80080737800250444984406
:1046A800AA465FFA88F8EBB2984512D80334B9F1F4
:1046B800000F5246414624F0030414BF0020204650
:1046C80000F0F0FD2044073020F00700C01BBDE8D3
:1046D800F087737901353279032BF178B07838BFD8
:1046E8000323032A38BF032217F07CFB8244DAE74E
:1046F800000000211FB572B6174B1D68DDB9BFF366
:104708004F8F1649164BCA6802F4E0621343CB6018
:10471800BFF34F8F00BFFDE7B4FBF6F4D3B201320D
:10472800002CF9D104AA1A4402F80C4C0A2233B915
:1047380001A8A847E3E7044600220A26EEE7013B62
:1047480004ACDBB2E618B0FBF2F402FB1400303024
:1047580006F80C0C2046EAE79805002100ED00E079
:104768000400FA051FB5184C02A86379032B38BF5B
:1047780003238DF809302379032B38BF03238DF8E1
:104788000830E378ADF80C30A378ADF80A3013F0B0
:1047980049FD18B19C210320FFF7ACFFA36801A8CD
:1047A800019313F057FD08B1A021F4E79DF80030FC
:1047B800684643F001038DF8003018F071FA08B12B
:1047C800A421E8E704B010BD0000002110B504469C
:1047D80098B3FFF705FD10B94FF0FF3010BDFEF795
:1047E80061FFB0F5FA7FF7D80023154A32F8231095
:1047F800814218D302EB83039A78124B12481A713C
:104808001C6000F0D1F9EFF3108472B60F486FF016
:104818000C0100F059FF0E4801F050FB40B1B321E4
:104828000320FFF767FF01330C2BDFD10022E4E7F9
:10483800002CD3D162B62046D0E76FF01500CDE743
:104848007C8D0201980500216D470001006200403F
:10485800E149000108B510B16FF02C0012E051B128
:10486800F2B101390329F7D8DFE801F0020D11167A
:1048780012780D4B1A7001210020FFF7F9FEB0F5F0
:10488800803FE9DA08BD1278074B5A70F3E71068E1
:10489800054BC3F80200EEE71268034B9A60EAE79B
:1048A8006FF01500EEE700BF0000002137B50D4698
:1048B800C8B1C1B10D4CFFF7D7FC00216071284683
:1048C800FFF7D6FE13F054FE0021607913F0FEFDC9
:1048D800237901A88DF8043017F00EFE012300207B
:1048E800A37103B030BD6FF01500FAE798050021F9
:1048F80050B1074B03F1140253F8041B934240F8DC
:10490800041BF9D1002070476FF01500704700BFF5
:10491800AC8D0201054B10B59C791CB913F070FDE4
:10492800204610BD4FF0FF30FBE700BF980500217F
:10493800054B10B59C791CB913F076FD204610BDC7
:104948004FF0FF30FBE700BF98050021054B10B57D
:104958009C791CB913F08AFD204610BD4FF0FF303A
:10496800FBE700BF98050021054B10B59C791CB9E1
:1049780013F090FD204610BD4FF0FF30FBE700BF5D
:1049880098050021054B10B59C791CB913F0A8FCBB
:10499800204610BD4FF0FF30FBE700BF980500210F
:1049A800054B10B59C791CB918F088F9204610BD44
:1049B8004FF0FF30FBE700BF98050021054B10B50D
:1049C8009C791CB918F084F9204610BD4FF0FF30CF
:1049D800FBE700BF9805002137B5114C256801A8F1
:1049E80000F016FF034618B1052816D033210BE056
:1049F800019A022A05D0032AF1D1226852B92B2143
:104A080002E022681AB926210420FFF773FE23600A
:104A1800A847E4E723600120FAE703B030BD00BFF0
:104A2800A005002138B505460C4600F077F870B1AE
:104A38003E2D0CD1122C05D1054B1A78022A01D033
:104A4800587820B12046BDE8384000F09FB838BDFE
:104A5800A4050021014B5870704700BFA405002130
:104A6800F7B5234C0646A578274665B12279E11C9F
:104A78000232FFF77FFC0023A370B1783078FFF78C
:104A8800D1FF054615E004F5827013F0EFFB80B105
:104A980094F80431142B0FD10A213E20FFF7C2FFEE
:104AA80050B904F58271304615F09DFD80B200289A
:104AB800E3D1284603B0F0BD97F804310A2B12D190
:104AC80005213E20FFF7AEFF68B9B7F8083101A904
:104AD8006846ADF8003016F0FAF80028D1D09521D4
:104AE8000820FFF707FE0349304615F0CFFDDDE744
:104AF800A4050021A8060021064B4FF0FF3141F61E
:104B0800FF72C3E90012044A002111601F229A6053
:104B1800704700BF10000021C80700213F280ED8A9
:104B280020280B4B03D80138C0B21B6802E021389B
:104B38005B68C0B223FA00F000F001007047FF285C
:104B480003D04038034BC0B2EFE70120704700BFE5
:104B580010000021C80700214368026843F0107361
:104B6800034942F48C2243F4FF630A604B607047A8
:104B7800100000210268014B1A607047C807002125
:104B88000268014B9A607047100000210138C3B2D7
:104B980001209840034B9B68184214BF0120002055
:104BA800704700BF10000021014B1860704700BF1C
:104BB800CC07002110B5FFF79FFF0020FFF74AFF41
:104BC80017F093FB034B04461B6803B19847204634
:104BD80010BD00BFCC070021244BD3F8A42201321A
:104BE80010B5044606D1D3F8A8224FF6FF7192B249
:104BF8008A4239D0D3F8A022D20735D5D3F8A422D7
:104C0800C4F80120D3F8A822A4F80520A27962F0FC
:104C18003F02A271D3F8902201321FD0D3F8942218
:104C280001321BD0D3F89822013217D0D3F89C2236
:104C3800013213D0D3F89022C4F80720D3F8942275
:104C4800C4F80B20D3F89822C4F80F20D3F89C326C
:104C5800C4F8133001232370002010BD1022002156
:104C6800E01DFFF7FFFBF5E70023F4E70000FF0175
:104C780080B588B000AF786039603B681B88BB831B
:104C8800BB8BC3F30E037B837B681B7F184616F030
:104C98004CF803463B837B681A883B8B1344FB82A2
:104CA8007B6824333B617B8B3A691344FB603B8B05
:104CB800FA68128892B21A44FB8A13445A1EFB8A75
:104CC80092FBF3F39BB2FA8A02FB03F37B817A8BA4
:104CD8007B891344FB837B685B88FA8B9A420AD2F0
:104CE800B7F91C200A4B13401AB2B7F91E30134308
:104CF8001BB2FB8305E0BB8BDB439AB2044B13402A
:104D0800FB833B68FA8B1A8000BF2037BD4680BD05
:104D18000080FFFF80B483B000AF0346FB71FB79CE
:104D2800064A32F8133003339BB223F003039BB2D5
:104D380018460C37BD4680BC704700BFD08D0201B5
:104D480080B483B000AF0023FB71084B1A78FB795D
:104D58001344FB71054B5A78FB791344FB71FB79BB
:104D680018460C37BD4680BC704700BFD0070021ED
:104D780080B588B000AFF8600B467A60FB72FB68BC
:104D8800002B0CBF01230023FB77FB7F002B01D0F6
:104D9800002301E007F10C03BB617968B86916F0DC
:104DA800DFFD7861FB7F83F00103DBB2002B05D0C8
:104DB800FB7AFA6804499B000B445A607B691846E1
:104DC8002037BD4680BD00BFD007002180B586B022
:104DD80000AF78600B46FB700023FB7529E07B6809
:104DE8001B68033323F003031A467B681A60FB7DB4
:104DF8001846FFF78FFF03461946FB7D104AD35C20
:104E080003FB01F33B61FB78002B01D0002301E099
:104E18007B681B68F97D3A691846FFF7A9FFF860B7
:104E28007B681A68FB681A447B681A60FB7D01334B
:104E3800FB75FB7D012BD2D900BF1837BD4680BD5D
:104E4800D007002180B485B000AF78600B46FB70B6
:104E58001346BB700023FB7334E07B681B68033385
:104E680023F003031A467B681A60BB7883F00103BA
:104E7800DBB2002B1CD0FB7B7A6812681549023321
:104E88009B000B445A600023BB730DE0FB7B114A67
:104E980002339B0013445A68BB7B9B0013440022D7
:104EA8001A60BB7B0133BB73BA7BFB789A42EDD3A4
:104EB8007B681A68FB789B001A447B681A60FB7B46
:104EC8000133FB73FB7B012BC7D900BF1437BD46E9
:104ED80080BC7047D007002180B485B000AF03467E
:104EE800FB710023FB81FB79012B02D1144B1B784A
:104EF800FB810023BB8114E0BA89FB8913447B81C1
:104F0800FB790F4A02339B0013445A687B899B0044
:104F180013441B68002B01D17B890BE0BB8901334B
:104F2800BB81FB79064AD35C9BB2BA899A42E3D328
:104F38004FF6FF7318461437BD4680BC704700BF54
:104F4800D007002190B585B000AF03463A60FB80DA
:104F58000B467B710023FB60FB88184616F0C2FDE8
:104F68000346002B03D1F3211720FFF7C3FB7B79FE
:104F7800244A02339B0013445A68FB889B0013445D
:104F88001B68002B03D0F4211720FFF7B3FB7B79B4
:104F98001C4A9B0013445B68002B01D100232CE0C2
:104FA8007B79184A9B0013445C687B791846FFF7A5
:104FB800B1FE03461946204616F01EFDF860FB6850
:104FC800002B19D07B790F4A02339B0013445A688F
:104FD800FB889B001344FA681A607B79012B03D97C
:104FE800FF211720FFF786FB7B79074A52F8233009
:104FF800F8883A68F9689847FB6818461437BD4638
:1050080090BD00BFD0070021C08D020180B582B0DD
:1050180000AF03460A46FB8013467B71FB8818469F
:1050280016F060FD0346002B0AD07B79074A02334D
:105038009B0013445A68FB889B0013441B6800E0DC
:10504800002318460837BD4680BD00BFD0070021A1
:1050580080B584B000AF7860084611461A4603460A
:10506800FB700B46BB7013467B70FA787B78134451
:10507800FF2B04D940F221111720FFF73BFBBA7828
:105088007B789A4204D94FF491711720FFF732FBCD
:105098007B68BB60FA787B781344FB737B68002BD2
:1050A8000CBF01230023BB737B68033323F0030287
:1050B8007B689A4204D04FF494711720FFF71AFBCB
:1050C8000D4A7B7813700C4AFB785370BA7B07F152
:1050D800080311461846FFF779FEBA7BF97B07F1FA
:1050E80008031846FFF7AEFEBA687B68D31A18465D
:1050F8001037BD4680BD00BFD007002180B582B003
:1051080000AF0346FB71FB79012B04D940F2531120
:105118001720FFF7EFFAFB79024AD35C18460837E5
:10512800BD4680BDD007002190B585B000AF0346CD
:105138000A46FB8013467B71FB884FF6FF72934249
:1051480002D143F2020334E07B79012B01D9072312
:105158002FE07A79FB8811461846FFF757FFF86069
:10516800FB68002B23D07B79144A52F82330FA8845
:10517800F968104698477B79114A02339B0013441B
:105188005A68FB889B00134400221A607B790C4AFA
:105198009B0013445C687B791846FFF7BBFD034608
:1051A8001A46F968204616F084FC002301E043F211
:1051B800020318461437BD4690BD00BFC88D0201D2
:1051C800D007002180B584B000AF7860786816F009
:1051D80062FE0346002B01D0102338E07B681B7861
:1051E8007B73FFF7ADFD03463B737B685B88FB81F0
:1051F80024E07B7B184A02339B0013445A68FB89DE
:105208009B0013441B68002B15D0FB8901339AB20D
:105218007B685A807B68FA899A807B7B0E4A0233C6
:105228009B0013445A68FB899B0013441A687B68E7
:105238009A6000230BE0FB890133FB813B7B9BB227
:10524800FA899A42D5D37B68FA895A800523184689
:105258001037BD4680BD00BFD007002180B483B0A1
:1052680000AF0023FB710023FB710DE00C4B1B68A2
:105278005A68FB799B0013441B68002B01D000235C
:1052880009E0FB790133FB71054B1B681B7AFA793E
:105298009A42EBD3012318460C37BD4680BC7047B1
:1052A800E407002180B586B000AFF8600B467A604D
:1052B800FB7200237B61FB68002B0CBF01230023DA
:1052C800FB74FB68033323F00302FB689A4203D0A4
:1052D80086211820FFF70EFAFB7A002B36D0796862
:1052E800002016F03DFB78617B690C337B61FB7A0B
:1052F8009B007A6913447B61FB7C83F00103DBB27A
:10530800002B23D0144AFB681360134B1B68FA7AEE
:105318001A72114B1B68FA680C325A600E4B1B68E4
:105328005968FB7A9A000C4B1B680A441A600A4BAE
:105338001B685868FB7A9B001A460021FFF792F811
:10534800054B1B687968184616F00AFB7B691846F6
:105358001837BD4680BD00BFE407002190B589B06D
:1053680002AF0446084611461A462346FB80034608
:10537800BB800B467B8013463B803A4B1B68002B57
:1053880003D1A5211820FFF7B5F9364B1B681B7A06
:105398009BB2FA889A4208D2324B1B685A68FB883B
:1053A8009B0013441B68002B02D043F2020354E015
:1053B8003A88BB881146184616F0DAFC0346FB8289
:1053C8003A8D7B881146184616F0E8FC0346BB82E6
:1053D800FB8ABA8A1146184616F0F6FC03467B8209
:1053E800204B1B681B687A8A1146184616F004FB86
:1053F800F860FB68002B01D104232EE0BA8A7B8A6F
:105408001946F86816F088FCF86816F098FC7A884F
:10541800B98A3B8D0093012316F022FCF86816F038
:1054280099FCBA88F98A3B880093012316F046FC58
:10543800F86816F084FC0446F86816F08BFC0346FE
:105448001946204615F022FD064B1B685A68FB8852
:105458009B001344FA681A60002318461C37BD469F
:1054680090BD00BFE407002180B584B000AF0346BB
:10547800FB80224B1B68002B03D1C8211820FFF7A3
:1054880039F91E4B1B681B7A9BB2FA889A4208D2DC
:105498001A4B1B685A68FB889B0013441B68002B37
:1054A80002D143F2020324E0144B1B685A68FB88BC
:1054B8009B0013441B68FB60104B1B685A68FB88F1
:1054C8009B00134400221A600C4B1B681868FB6889
:1054D8005B881A46F96816F0ECFAFFF7BFFE034638
:1054E800002B05D0054B1B681B68184616F064FA9C
:1054F800002318461037BD4680BD00BFE4070021D1
:1055080080B582B000AF0C4B1B68002B10D0002375
:10551800FB7107E0FB799BB21846FFF7A5FFFB7903
:105528000133FB71044B1B681B7AFA799A42F1D359
:1055380000BF0837BD4680BDE407002180B584B0B0
:1055480000AF0346FB800023FB60144B1B68002B55
:1055580003D1EE211820FFF7CDF8104B1B681B7AFA
:105568009BB2FA889A4213D20C4B1B685A68FB8884
:105578009B0013441B68002B0AD0084B1B685A6811
:10558800FB889B0013441B68184616F0D8FBF8608C
:10559800FB6818461037BD4680BD00BFE4070021F0
:1055A80080B584B000AF0346FB800023FB60144B3A
:1055B8001B68002B03D1FC211820FFF79BF8104B28
:1055C8001B681B7A9BB2FA889A4213D20C4B1B6851
:1055D8005A68FB889B0013441B68002B0AD0084BB1
:1055E8001B685A68FB889B0013441B68184616F012
:1055F800B1FBF860FB6818461037BD4680BD00BF98
:10560800E407002110B500230124094A20FA03F118
:10561800C90709D504FA03F1C2F88010BFF34F8F08
:10562800BFF36F8FC2F880110133202BEED110BD6C
:1056380000E100E0420008B542BF00221E4BC3F85B
:10564800042583050BD51D4B01224FF0FF315A600D
:105658000022C3F80022C3F80813C3F80425820BFC
:1056680082EA503212F0010203D073211B20FFF7A7
:1056780041F810F4C04F18D00121114B4FF0FF3002
:105688005960C3F8080303F580539960C3F80022F2
:10569800C3F80803C3F80025C3F804159960C3F8D4
:1056A8000803C3F80025C3F80415064B40F6FF723B
:1056B800C3F8082508BD00BF00000841009000415C
:1056C80000D0004100F0004138B50D4B04460D46AE
:1056D8001860FFF7AFFF2046FFF794FF00F014F8BB
:1056E80000F08EFC074B40F6FF72C3F8082500F067
:1056F8006FFC284600F0C2F8BDE8384000F0D8BB7F
:10570800E807002100F0004108B5074814F092FEB0
:1057180018B124211D20FEF7EDFF044814F08AFE7D
:1057280008B12821F6E708BDEC070021ED070021A4
:105738002DE9F74F314D82463148D5F804352C46CE
:10574800304F019314F07AFE064610B9384614F02B
:1057580084FE4FF001080023DFF8B0B0C4F80480DD
:10576800C4F80031C4F80431C4F804A5C4F80080B2
:10577800D4F8003113B9D4F8043173B1D5F8043131
:10578800002BE8D12EB3019B1E48C5F8043514F050
:1057980055FE002003B0BDE8F08FDBF81030DB06C3
:1057A800E6D5194B4FF40052C3F88021EFF3108966
:1057B80072B60322C4F80423D4F8002122B9D4F81D
:1057C80004210AB914F054FEB9F1000FD0D162B621
:1057D800CEE7384614F032FE0028B7D103234FF441
:1057E80000520748C5F80833074BC5F80461C5F8E7
:1057F8000061C3F8802114F030FECAE700D00041F0
:10580800EC070021ED07002100E100E000ED00E0D9
:10581800114B1A6870B5E2B15A680C2101250132A2
:105828001E680C2A28BF002205FA02F426420DD071
:105838005A60EFF3108172B61A6822EA04021A60FD
:1058480001B962B65B680360002070BD0139E6D11A
:105858005A600520F9E700BFF007002110B5EFF303
:10586800108172B6044A01231468834023431360ED
:1058780001B962B610BD00BFF0070021024B00223B
:105888001A605A60704700BFF007002108B5FFF79B
:10589800E5FF034B1878BDE80840FEF701BD00BFDF
:1058A8001C00002170B505460E461446FEF73CFD67
:1058B80018B1174B0122C3F80025164B0122C3F873
:1058C8000425D3F80024002AFBD0114AD2F8083561
:1058D800002BFBD000230F489C420FD10023C0F8B7
:1058E8000435D0F80034002BFBD0FEF71DFD18B1AD
:1058F800074B0022C3F80025002070BD56F823206E
:1059080045F82320D0F80024002AFBD00133E3E730
:10591800004000410000084108B5144B1A78022ADB
:1059280004D04FF486711F20FEF7E4FE104A90421F
:1059380002D940F20D11F6E75A68012A03D847F256
:105948003051884201DD03219974C0F545200132A8
:10595800084900F541605A6058615878FCF730F8FA
:1059680010B940F21511DEE708BD00BFF8070021A5
:105978000F5C0C000008002110B5064C6078FBF79E
:1059880003FE18B9A1211F20FEF7B4FE00232370DF
:1059980010BD00BFF807002138B5334C6378834247
:1059A80004D04FF48D711F20FEF7A4FE013906299B
:1059B80057D8DFE801F004223A56565644002378B7
:1059C800022B02D04FF48F71EDE703232370237F5E
:1059D800012B04D1206A00F087FA052308E043B9B7
:1059E800206AD4E90921FFF75DFF0028F5D00623D6
:1059F8002370BDE83840FBF74FBCA569FBF7ECFD09
:105A080001462846FCF798FE184B984206D863686A
:105A1800012B03D8BDE83840FFF77EBF0320FFF70E
:105A280035FFBDE83840FFF7A7BFA469FBF7D4FDF1
:105A380001462046FCF780FE0C4B9842E9E72378A4
:105A4800052B05D0062B01D0022B07D1032000E03F
:105A58000220FFF71BFF04232370E2E74FF4B17124
:105A6800A1E74FF4B6719EE7F80700210F5C0C0020
:105A78002DE9F041C64D84B006460F462B7C032B1A
:105A880003D12B78834200F0BC80304603F008FD38
:105A9800012116F0A8F80446002800F0E681B0F8C5
:105AA8000080304603F0FCFC804540F0E281AC64A5
:105AB800082F00F29C81DFE817F06F0083001A00BE
:105AC8001A0015009A0109008800960113F09CFE3F
