:10000000484200205D31000039D400008D310000ED
:100010008D3100008D3100008D3100008D310000E8
:10002000000000000000000000000000B9300000E7
:100030008D310000000000006130000029CC00007C
:100040001D3100001D3100001D3100001D31000078
:100050001D3100001D3100001D3100001D31000068
:100060001D3100001D3100001D3100001D31000058
:100070001D3100001D3100001D3100001D31000048
:100080001D3100001D3100001D3100001D31000038
:100090001D3100001D3100001D3100001D31000028
:1000A0001D3100001D3100001D3100001D31000018
:1000B0001D3100001D3100001D3100001D31000008
:1000C0001D3100001D3100001D3100001D310000F8
:1000D0001D3100001D3100001D3100001D310000E8
:1000E0001D3100001D3100001D3100001D310000D8
:1000F0001D3100001D3100001D3100001D310000C8
:100100001D3100001D3100001D3100001D310000B7
:100110001D3100001D3100001D3100001D310000A7
:100120001D3100001D3100001D3100001D31000097
:100130001D3100001D3100001D3100001D31000087
:100140001D3100001D3100001D3100001D31000077
:040150001D3100005D
:1001540053B94AB9002908BF00281CBF4FF0FF312A
:100164004FF0FF3000F070B9ADF1080C6DE904CE2A
:1001740000F006F8DDF804E0DDE9022304B070477E
:100184002DE9F047089E0D4604468A46002B7FD190
:100194008A42174641D9B2FA82F24AB1C2F1200129
:1001A40005FA02F39740944020FA01F141EA030A68
:1001B4004FEA17484FEA144C1FFA87F9BAFBF8FEC6
:1001C40008FB1EA30EFB09F14CEA0343994206D92E
:1001D400FB1802D2994200F224810EF1FF3E591A13
:1001E400A3B2B1FBF8F008FB101100FB09F943EAD4
:1001F4000144A14505D93C1902D2A14500F20E8162
:100204000138A4EB090440EA0E4000211EB1D44099
:100214000023C6E90043BDE8F08702B9FFDEB2FA65
:1002240082F2002A4FD1CB1B4FEA174E1FFA87F8F0
:100234000121250CB3FBFEFC0EFB1C302B4608FBF6
:100244000CF945EA0045A9450AD97D192CBF0123BB
:100254000023A94502D9002B00F0D9800CF1FF3C02
:10026400A5EB0905A3B2B5FBFEF00EFB105508FB88
:1002740000F843EA0544A04505D93C1902D2A0453B
:1002840000F2C9800138A4EB080440EA0C40BDE741
:100294008B4208D9002E00F0B1800021C6E9000588
:1002A4000846BDE8F087B3FA83F1002946D1AB4292
:1002B400C0F0A780824240F2A4800846002EAAD053
:1002C400C6E9004AA7E7C2F12000974001FA02F309
:1002D4004FEA174EC14024FA00F51FFA87F89440FC
:1002E4001D43B1FBFEF02B0C0EFB101100FB08FCB0
:1002F40043EA01439C4509D9FB182CBF0121002185
:100304009C4502D9002900F095800138A3EB0C0329
:10031400ADB2B3FBFEF10EFB113301FB08FC45EA61
:100324000345AC4505D97D1902D2AC4500F289805C
:100334000139A5EB0C0341EA00417AE7C1F120043D
:100344008B4002FA01F705FA01FCE24020FA04F8B6
:10035400E54000FA01FE134348EA0C024FEA134851
:100364004FEA124C1FFA83F9B5FBF8FA08FB1A5549
:100374000AFB09F04CEA054C60450AD913EB0C0C56
:100384002CBF01250025604501D9002D55D00AF167
:10039400FF3AACEB000C92B2BCFBF8F008FB10CCBB
:1003A40000FB09F942EA0C4CE14505D913EB0C0CAE
:1003B40001D2E1453BD8013840EA0A40ACEB090CD4
:1003C400A0FB0789CC4545464A4602D306D1C6451B
:1003D40004D20138B8EB070569EB03022EB3BEEB78
:1003E40005036CEB020C23FA01F20CFA04F42CFA68
:1003F40001F300211443C6E900430CE731463046BB
:1004040009E7841A65EB030301209A4656E7ACF129
:10041400020C3D4424E702383C4434E702383C44AF
:10042400EFE6AEF1020E3B44D9E63146F3E602387C
:100434009C44C1E702383B4468E7AAF1020A9C44A1
:10044400A7E702393D4474E7704700BF10B5094877
:1004540009F098FF084C072120600BF0C3FB08212A
:1004640020680BF0BFFB20680921BDE810400BF0A9
:10047400B9BB00BF940C0100E00E00202DE9F84345
:100484000024144F01262546B846092138680BF08C
:1004940095FB01281AD0002C14BF28460020BDE883
:1004A400F883B9F1000F09D00721D8F800000BF048
:1004B40085FB4FF0000906FB005576000821D8F8AB
:1004C40000000BF07BFB0128EBD0DEE704468146FD
:1004D400F4E700BFE00E00202DE9F043194F00259A
:1004E400B946DFF86C8087B0FFF7C8FF060A3860AA
:1004F400FAD0012EC4B203D0022E08D104EB052495
:1005040099F8001010480BF0C5FB2546ECE7032EC4
:10051400F4D0042E14D10D4B04EB05241D681822CD
:1005240000216846C8F8004028350DF02FF86946C8
:100534000020CDE90158ADF80C6008F0ABF8DFE716
:100544002C46DDE7E80E00209B0C0100F0020100C0
:10055400E40E00204B1E59425941094B094A1970B7
:1005640009491878521A094B0949D20892010028FE
:1005740018BF194642F0030206480BF0BFBF00BF84
:100584005E29002078030100F8020100B30C010089
:10059400BB0C0100C40C01002DE9F041174B184CB1
:1005A4000746E41AE40888B0A40140B1014615489E
:1005B40044F001020BF0A2FF08B0BDE8F081124E36
:1005C40044F003084146114803AD0BF08AFF0FCEF7
:1005D4000FC533680E492B6003223B46009703A8DE
:1005E40005F030FB014618B10A4844F00102E1E786
:1005F400414609480BF075FFDEE700BFF802010031
:1006040078030100D40C0100E0030100F30C0100A5
:1006140068040100090D01002E0D010038B50A4DD2
:100624000C46286818B10DF0CBF900232B60074B5A
:10063400074A2146D21AD2089201064842F0030220
:10064400BDE838400BF05ABFEC0E0020F802010060
:1006540078030100590D010038B50D4A0D4B0446CD
:10066400D21AD208920131B1BDE838400A4842F0AA
:1006740001020BF043BF094D094842F003010BF09E
:1006840030FF2B681BB920460DF086F9286038BD71
:1006940078030100F8020100720D0100EC0E002045
:1006A4008D0D010008B50BF0AEFAA8B90B4805F0A2
:1006B40081FD0B4805F0FAF8014648B1094A0A4B96
:1006C4000A48D21AD208920142F001020BF016FF36
:1006D400BDE80840FFF700BF08BD00BF500100207F
:1006E4009D05000078030100F8020100D40C01000C
:1006F4000B6801330B60014B1B6818476401002031
:10070400014B1860704700BF6401002007B50B4619
:10071400002102460191034801A900F0FFF803B04B
:100724005DF804FBF506000030B5002585B0CDE981
:100734000101044601A90548039500F0EFF8DDE93D
:1007440002309842B8BF255405B030BD73BC0000D8
:100754002DE9F84FB0F81890044619F008089346AC
:100764000DD001290CBF49F0100949F02009A0F867
:1007740018908BF31188BFF36F8FBDE8F88F09F0E1
:100784000709022907D120460BF09EFA0028F0D071
:100794000128238B50D16769218B002F15DA256836
:1007A40021F00701C4E9008841F0010121830026FA
:1007B400218B01F0070ACA4502D0A368002B5CD143
:1007C4000DB9002E74D0002358E001F007035A1F1E
:1007D400012A20D821F00701062B256889B2C4E933
:1007E40000880CD1002D2B4638BF00232BB1628B1F
:1007F4001B6801326283002BF8D141F002012046CC
:1008040021830BF061FA06460028D1D0238B43F0F4
:1008140020032383CBE7042B0CD121F0070189B2F9
:10082400204621830BF050FA05460028BFD041F042
:10083400200121830025BAE7032809D1226923F086
:100844000703166843F00603002523832F46AFE70A
:10085400042806D1226923F00703566843F00403F1
:10086400F2E7052806D1226923F00703966843F0CE
:100874000503E9E700252E46E8E7012341F00801D6
:1008840021838BF31188BFF36F8F03BB002D33D10A
:1008940016B120462049B0474FF02003EFF3118BE7
:1008A40083F31188BFF36F8F238B23F00803238313
:1008B400238BDA0628D5012123F010032383B4F80F
:1008C400189009F0070900297FF45BAF51E7A1688C
:1008D4000029DBD00B68002B38BF00239946524611
:1008E4003B462046D1F804B0D847B9F1000FCDD02B
:1008F4004946D9F80030EEE729463B4652462046A1
:100904002D680BF0FDF9C1E713F020011EBF23F0A1
:10091400200302212383D2E731BD00002DE9F04FEB
:100924008B4692461C46002591B002909AF800002E
:1009340008B928465EE325280AF1010707D059467D
:10094400029B98470028C0F25583013510E2182213
:1009540000210AA80CF01AFE9AF80130252B78D051
:1009640000229446164696461046394617F8013B2F
:100974002B2B00F09D8000F29480202B00F09B80B4
:10098400232B00F09A8028B19DF8300040F0040039
:100994008DF83000BEF1000F05D09DF8300040F016
:1009A40008008DF830002EB19DF8300040F01000A2
:1009B4008DF83000BCF1000F05D09DF8300040F0F8
:1009C40020008DF830002AB19DF8302042F040021A
:1009D4008DF830209DF8302002F04400442803D1E3
:1009E4006FF386128DF830209DF830202A2B42F0C8
:1009F40080028DF830207BD19DF831204B1C42F0D1
:100A040001028DF831201A782E2A0CBF0121002111
:100A14009DF8312061F341028DF8312074D15A7868
:100A24002A2A6AD000210A260133184610F8012B1D
:100A3400A2F13007092F40F28E809DF830200E91EC
:100A4400C2F3400040EAD17161F341028DF83020D5
:100A54005AE00AF102078DF833309DF83130D90796
:100A640040F1498154F8049BB9F1000F07DA9DF86D
:100A74003020C9F1000942F004028DF830205A07F1
:100A840040F1428154F8048BB8F1000F80F24181A7
:100A94009DF831306FF341038DF831304FF0FF385A
:100AA40037E12D2B0CD0302B7FF46DAF01225CE7A6
:100AB4004FF0010E59E7012657E74FF0010C54E7B8
:100AC400012052E733460CFB0202303A1E4616F868
:100AD400010BA0F13007092FF4D9994293D09DF866
:100AE40030100D92D20F62F341018DF830108AE775
:100AF4000B4600224FF00A0CE8E79DF83120023340
:100B040042F004028DF831201F4617F8012B6C2A9D
:100B140041D025D8682A2BD06A2A46D04C2A4CD0FA
:100B24001F4617F8012B9DF83130782A8DF83320B1
:100B340000F2D980572A4DD8412A03D0453A022AD7
:100B440000F2D18004229DF8323062F302038DF862
:100B5400323001239EE006FB01210346303964E76D
:100B6400742A26D07A2ADBD106229DF831300DE092
:100B74005A78682A9DF8312006D1012161F3C60212
:100B84008DF831209F1CCCE71346022262F3C60382
:100B94008DF83130C5E75A786C2A9DF8312001D19F
:100BA4000421EBE713460322F0E705229DF83130D8
:100BB400ECE707229DF83130E8E7BDF8303023F444
:100BC400F04323F0020343F4804343F00203ADF8FF
:100BD4003030A6E7A2F15801202900F2848001A058
:100BE40050F821F0AD0C0000EB0C0000EB0C000001
:100BF400EB0C0000EB0C0000EB0C0000EB0C000015
:100C0400EB0C0000EB0C0000490B0000EB0C0000A7
:100C1400AD0C00006D0C0000490B0000490B0000F6
:100C2400490B0000EB0C00006D0C0000EB0C000005
:100C3400EB0C0000EB0C0000EB0C0000B50C00000A
:100C4400AD0C0000D10C0000EB0C0000EB0C00001C
:100C5400D10C0000EB0C0000AD0C0000EB0C00000C
:100C6400EB0C0000AD0C000001209DF8321003F0E5
:100C7400780360F30201402B8DF8321002BF9DF817
:100C8400301041F001018DF83010632A31D1003B5E
:100C940018BF01239DF83020C2F340010B4363F3D6
:100CA40041028DF83020D8E602209DF83210DEE7AC
:100CB40003219DF8322003F07803A3F1400061F38F
:100CC400020243428DF832204341E3E703219DF8B9
:100CD400322013F0780F61F3020214BF01230023C2
:100CE4008DF83220D6E79DF8303043F001038DF8BB
:100CF40030300023CEE79DF93020002AACBF4FF0FE
:100D0400FF39DDF83490BAE69B077FF5C7AEDDF80E
:100D140038800023CDE90D339DF832309DF8312021
:100D240003F00703012BC2F3C30236D1D31E042BF5
:100D340020D8DFE803F00307071F1F0054F8040B53
:100D4400C11704E0073424F00704F4E80201CDE9F4
:100D54000A019DF8303013F0030654D03B46524646
:100D6400594602980BF061FB0028C0F24381054408
:100D7400BA46DBE554F8040B012A4FEAE071CDE9E9
:100D84000A0105D19DF828300A9300230B93E0E76C
:100D9400022ADED1BDF92800D2E7022B23D1D31ECB
:100DA400042B13D8DFE803F0030A0A12120000210F
:100DB4002068231D0A900B911C46CAE7073424F0CF
:100DC4000703F3E80201CDE90A01F5E754F8043B0F
:100DD400012A0A934FF000030B93D3D0022AB8D10F
:100DE400BDF82830D0E7042B07D1073424F00704DA
:100DF400F4E80201CDE90A01ABE7032B04BF54F880
:100E0400043B0A93A5E79DF833007828B0D86228FC
:100E140022D825283FF493AD5828A9D1DDE90A0149
:100E24000DF1260300930CAA04AB0BF0B3FA82462F
:100E3400B8F1000F0DF126000CDB9DF83020A0EB7B
:100E44000A036FF3861298458DF8302002D9A8EB77
:100E540003030D9380463DE06338152888D801A12B
:100E640051F820F0E90E00004D0F0000750D000050
:100E7400750D0000750D0000750D00004D0F00008C
:100E8400750D0000750D0000750D0000750D000056
:100E9400AB0F0000790F00007D0F0000750D0000FE
:100EA400750D0000C10E0000750D0000790F0000E3
:100EB400750D0000750D0000790F0000B8F1000FEA
:100EC400DDF828A00ADB414650460CF000FB002662
:100ED4000AEB0008BAF1000F0CD149E750460CF0B8
:100EE400EFFAF4E700260A9B0DF111088DF8103093
:100EF4000DF1100AA8EB0A0306B101339DF8322064
:100F0400D0066BD5023352060D9948BF0E9A0B4496
:100F140048BF9B18B9F1000F79DD9DF83020A9EB8B
:100F24000309C2F380030393530770D4500664D5B6
:100F340046B159463046029B984700285ADB039B2A
:100F440001351E46302359E01E0711D413F0100654
:100F540018BF2026DDE90A23002A73F10001BFF639
:100F64005DAF524263EB43032D26CDE90A2355E7D7
:100F74002B26EFE7002651E70A9848B30DF1260324
:100F84000093002104AB0CAA0BF004FABDF8323034
:100F9400824603F0EF0343F4F04343F010030026CA
:100FA400ADF8323044E70A9B072A3FF6E1AEDFE8AA
:100FB40002F00D04060D08080D0D1D70D8E61D8005
:100FC400D6E62846E917C3E90001D1E61D60CFE65D
:100FD400DFF8C4800646A8F1050A8BE7110748BF6D
:100FE400013390E7184603935946029B984700281B
:100FF400039B04DA11B0BDE8F08F20234D444A4628
:10100400002AA5EB090109F1FF39EBDC0D4636B1E5
:1010140059463046029B98470028EBDB01359DF882
:101024003230D90601D41A0706D559463020029B1E
:1010340098470028DEDB01359DF83230DB0607D502
:1010440059469DF83300029B98470028D2DB0135AE
:101054000D9E2E44731B002B16DC43465246594604
:1010640002980BF0E2F90028C4DB0544A944A9EB7B
:101074000503002B7FF77CAE59462020029B98473E
:101084000028B7DB0135F2E759463020029B984728
:101094000028AFDB0135DDE7A90D0100134B10B5C6
:1010A4001B68072B20D1124B1B68023B032B1BD858
:1010B400104AD35CC3B1104B104C1148E41AE40835
:1010C400A40144F0010421460BF00BFA21460D481B
:1010D4000BF007FA21460C480BF003FA404080F36A
:1010E40011884FF0040002DF002010BD3001FF0022
:1010F4003401FF00270E0100F8020100B8030100CB
:10110400AA0D0100D70D0100FE0D0100094B0A498B
:1011140000F01F024009012808BF0B4603EB8203BD
:10112400D3F8002222F0E04242F04052C3F80022F9
:10113400704700BF002584500028845070B54FF0DC
:101144002003EFF3118683F31188BFF36F8F01241B
:101154000B4D0C4B0020C3F80045C5F8D046FFF7F3
:10116400D5FF2046FFF7D2FFC5F80447C5F8044968
:10117400C5F8004B86F31188BFF36F8F002070BD54
:10118400004000500010005048B1054B1A68054B50
:10119400B2FBF3F2044B504343F00103184770478A
:1011A400E002002040420F006004010030B500223C
:1011B40089B00F490F480EF071FD0022002300246E
:1011C400CDE906230E230C4DCDE903344FF44072D0
:1011D4002846CDE90144094B0949009409F0EEFF82
:1011E400084928460EF078FC204609B030BD00BFFF
:1011F4000D12000098060020D0060020F51500000E
:10120400182A00202B0E0100014809F03FBF00BF3F
:101214004C05002008B500F049FA09480BF01EF906
:1012240004232822074908480EF051FA074B084ABC
:101234004FF400401A60BDE8084000F07FBC00BFD6
:10124400FC0E0020884F0020040F002068010020BD
:101254009FC40000F8B500250C4BD3E8EF7FC3E82A
:10126400E25F002AF9D10A4C0A4E361B3611B54208
:1012740000DBF8BD63685B792BB12368DB6813B1CD
:1012840039462046984701351034F0E7F40E002023
:10129400C8030100D8030100044BD3E8EF2F013247
:1012A400C3E8E12F0029F8D1704700BFF40E0020F5
:1012B400044A054B9B1AB1EBD30F34BF52F83100EB
:1012C40000207047F8020100C8030100094B42687E
:1012D400C31A1B11013310B5137101224368064C64
:1012E4005A712278196012B9044809F0CFFE01231B
:1012F400237010BDC80301005F2900204C050020A5
:1013040070B50F4BD3E8EF5F6A1CC3E8E12F0029E7
:10131400F8D12DB90B4C0C4E361B3611B54200DBFF
:1013240070BD237B43B123685B6903B198470422F2
:1013340000212046FFF7CAFF01351034EEE700BF55
:10134400F80E0020C8030100D8030100144B37B580
:101354009842044602D3134B98421CD30022002324
:10136400114801A909F0A2F90546B8B90122019B67
:10137400D3E8EF1FC3E8E02F0028F9D101982146F4
:101384001F2204300CF089F87E23019C84F823305A
:1013940084F824500434204603B030BD034CFAE7EB
:1013A400F4FF0000E02C0100040F0020330E0100C4
:1013B40048B1054B984205D3A03398422CBF002076
:1013C4000120704700207047884F00202DE9F04F1E
:1013D4004A4B04461B7885B003B940B34FF0200351
:1013E400EFF3118683F31188BFF36F8F44480BF03A
:1013F40045F8054686F31188BFF36F8F58B1414B0A
:10140400D3E8EF2F013AC3E8E12F0029F8D194B1D2
:1014140028460BF048F924B93B4B1B680BB1FFF786
:1014240019FF37480BF028F8041E18BF0124204682
:1014340005B0BDE8F08F354B1B78CBB92B7ADB07B1
:1014440016D40BF03FF9804628460BF00AF9014602
:1014540040460BF026F806462D4F2E4BDFF8D0B051
:10146400DB1BDB0803932C4BDB1B4FEAD30A36B997
:101474002A4E2B4F4FF00008BF1B3F113AE0B6FA3B
:1014840086F1C1F11F09494628460BF0EDF8254BBA
:101494000146984202D3244B98421AD30846FFF7D8
:1014A40087FF0246A8B9214B994212D06B89039950
:1014B400C3F389138B4238BF57F833204FEA8A139A
:1014C40043F00103ADF800304946434658460BF05B
:1014D40042F8012101FA09F126EA0106C7E7736817
:1014E4005B7923B13368294630461B68984708F175
:1014F40001081036B845F2DB8AE700BF5F290020F7
:10150400FC0E0020F00E0020F40E002060290020C4
:10151400F8020100C803010070030100C8030100C0
:10152400D8030100F4FF0000E02C0100330E010099
:101534004D0E0100274B73B51B6841810446984743
:10154400254DE060D5E8EF3F0133C5E8E23F002ACE
:10155400F8D14FF02003EFF3118683F31188BFF322
:101564006F8F1E4821460AF07DFF86F31188BFF372
:101574006F8F1B4B1B7883B14FF02003EFF3118463
:1015840083F31188BFF36F8F0020FFF71FFF84F3ED
:101594001188BFF36F8F02B070BD124A2B681268B6
:1015A400002AF8D0012B0AD1002200230E48CDE9ED
:1015B40000234FF4004200230AF0B2F8EBE70A2BB1
:1015C400E9D109480EF076FB084802B0BDE8704046
:1015D40009F05CBD68010020F00E0020FC0E002024
:1015E40060290020200F0020980600204C050020D0
:1015F40010B5FFF785FE09F043FD0C4B186030B1C0
:101604000B4B1B68092B02DD0A4809F03FFD094C0E
:101614000020FFF7DBFE0028FAD14FF0FF324FF035
:10162400FF33204609F058FDF2E700BF200F0020E9
:10163400F00E00204C050020F8B50E4F3D7875B92A
:10164400FFF75EFE0C4C0D4E361B3611B54207DB20
:101654000020FFF7BBFE0028FAD101233B70F8BD40
:1016640063685B791BB1236820461B699847013581
:101674001034EBE760290020C8030100D8030100FF
:1016840007B504380190D0E8EF3F5A1EC0E8E12FB7
:101694000029F8D1012B03D1034801A909F038F836
:1016A40003B05DF804FB00BF040F00204023202298
:1016B400014902480EF00BB828500020240F0020E6
:1016C400002337B5094D01930120FFF77FFE04463F
:1016D400FFF7E2FD00220023284601A908F0E6FFF7
:1016E40008B1002CF0D1019803B030BD240F0020C4
:1016F400002307B5002201930648002301A908F03E
:10170400D5FF10B1FFF7DCFF0190019803B05DF83D
:1017140004FB00BF240F0020F0B5037A457A85B09E
:101724000190D8074FEA15151CD4DDB100242646D4
:10173400314601980AF098FF0746FFF739FE70B169
:1017440034B9019B294618690AF0ABFE044648B136
:1017540024FA06F3D90702D53846FFF791FF01367C
:10176400AE42E5D3019B1A7A920704D55B69084C13
:101774000393039B2BB9064801A908F0C9FF05B0E0
:10178400F0BD1D68204603A908F0C2FF0395F0E7E9
:10179400240F00200EB403B503AB53F8042B014609
:1017A40004480193FFF7BAF802B05DF804EB03B004
:1017B400704700BF71CA00002DE9F04F11F0020418
:1017C40085B0904606461A469DF8387001F0010926
:1017D40001F0080507D011F0440F37D13249FFF763
:1017E400D9FF01460C46B9F1000F0AD02F4B304601
:1017F40053F827202E4B2F49002A08BF1A46FFF71B
:10180400C9FF3DB12C4B304653F827202B49FFF735
:10181400C1FF0546B8F1000F43D0012303FA07F7CF
:10182400274B17F0100F274F18BF1F46BDF8401065
:101834009DF83C00FFF73CFD394602463046FFF771
:10184400A9FF2844204405B0BDE8F08F1E4B196859
:101854000029C7D01D4B4FF4616E1B684FF47A7C8E
:10186400B2FBF3F3B3FBF1F4B4FBFEF20EFB124E46
:1018740001FB14340CFB04F4B4FBF1FB4FF03C0A01
:1018840001FB1B440CFB04F4BEFBFAF3B4FBF1F1C3
:10189400CDE901B10AFB13E100910D49FFF77AFF8D
:1018A4009FE7084FC2E700BF9E0E0100D00401006D
:1018B400900E0100A01F0100E4040100C30E01000A
:1018C4009A0E0100950E0100400F0020440F0020E5
:1018D400A70E010038B50C46E107054603D5084AB2
:1018E4000849FFF757FFE20608D4A3062846BDE8D7
:1018F40038404CBF04490549FFF74CBF38BD00BF11
:10190400900E0100A01F0100CA0E0100C90E0100C3
:101914002DE9F0471D46089B1746DA0604460E4695
:1019240005D499064CBF2A492A49FFF733FF4FF0E3
:101934000008DFF8A890A8452ADB0025DFF8A0807E
:10194400DFF8A090DFF894A0BD422FD2494620468C
:10195400725DFFF71FFF0135102D20D120461E496F
:10196400FFF718FF0025DFF87480DFF87C90AF42A2
:1019740028D9725D4946A2F120035F2B28BF2E228D
:101984002046FFF707FF0135102D14D1BDE8F0877D
:1019940049462046FFF7FEFE08F10108CBE76A0737
:1019A400D2D151462046FFF7F5FECDE74146204609
:1019B400FFF7F0FECFE76B07D9D141462046FFF78A
:1019C400E9FED4E741462046FFF7E4FEDBE700BF2B
:1019D400CA0E0100C90E0100D20E0100B62B01008F
:1019E400B42B0100CC0E0100D40E01002DE9F04708
:1019F4008B7A174613F0070805460E460A7A8AB012
:101A040021D0D2434989C3F3C203C1F38911CDE97B
:101A140000830291F368394602F00102FFF7CCFE1D
:101A24008146347AE44314F001040ED0294630464A
:101A34000AF0B2FEB8F1000F2BD0424639462846D0
:101A4400FFF748FF25E0C146EBE7B8F1000F26D1C8
:101A54002746EB6806AA069330463B46A9680AF077
:101A640087FE069A6B681A603AB1AB68134413F8A0
:101A7400014CA4F10A035C425C4128460AF0E9FFE8
:101A8400069B1F44002BE4D11CB128461349FFF7E1
:101A940081FE28460AF0DDFF0AB0BDE8F087304633
:101AA4000AF010FE0E4902462846FFF773FE4FF077
:101AB400100A05AA2346304606A9CDF814A00AF058
:101AC40057FE059A002AB8D04B462846009706A927
:101AD400FFF71EFF059B1C44EBE700BFD70E010078
:101AE400A01F010042F20F7373B58B4228BF0B464F
:101AF40005680446052168460D4A0AF0D8F80646EA
:101B0400636828460B225B680A490AF038FE63685A
:101B14003246694628465B680AF031FE63681B2238
:101B240028465B6804490AF02AFE02B070BD00BF73
:101B3400A4280100150F0100F90E01000123002162
:101B4400074A10B5074C1360A04204D801B11360D2
:101B5400054B186010BD012140085B00F4E700BF8D
:101B6400440F002040420F00400F0020F8B50D46FE
:101B74000446064F4618B44201D12846F8BD3868D9
:101B840014F8011B83685B689847F4E75C0F002036
:101B940001480AF05EBF00BF100501000148FFF7CD
:101BA400A1BF00BF1005010008B5034808F0EAFB17
:101BB400024B186008BD00BF210F01005C0F00201C
:101BC40010B50C4608460AF043FD214604480F228E
:101BD400FFF70CFF2046BDE810400AF064BD00BFCB
:101BE40010050100014B1970704700BF0000072069
:101BF4000020014B1870704700000720014B186843
:101C04000DF07BBB700F00200D4B13B5186800233B
:101C140082680093194614681A46A047014660B1C9
:101C2400084B094A0948D21AD208920142F001022B
:101C340002B0BDE810400AF061BC02B010BD00BFA4
:101C4400600F0020F8020100A8030100390F010011
:101C54000749D1E8EF3F43F00102C1E8E02F002833
:101C6400F7D1DB0703D4034808390DF0CFBD704723
:101C74006C0F002058070020F0B55F4B85B002932D
:101C8400062306468DF80C300D464FF0FF334FF413
:101C940000625A495A4809F02FFB5A495A480DF034
:101CA4001BFF0022594B5A4902A8C3E901121A60CA
:101CB40008F04AF8044668B1564A574B0146D21A0E
:101CC400D2089201554842F001020AF017FC20465E
:101CD40005B0F0BD524808F017F8044648B14D4A23
:101CE4004D4B0146D21AD20892014E4842F00102ED
:101CF400EBE74D494D4801AA0DF078F8044648B188
:101D0400444A454B0146D21AD2089201484842F04F
:101D14000102DAE7019B9A685AB930603E4B3D49AB
:101D24004448C91AC908890141F001010AF0D9FBE4
:101D3400CDE70C333360002BF0D03F4808F022FB92
:101D44003E4F38603E4808F01DFB3A6862B931499D
:101D5400314B3C48C91AC908890141F001010AF014
:101D6400C0FB6FF01204B2E740B92A492A4B364847
:101D7400C91AC908890141F00101F0E783682246C4
:101D84005B68324998470AF08DFE314F386060B97C
:101D94002049214B2F48C91AC908890141F0010182
:101DA4000AF09FFB6FF00B0491E70AF07BFE78606A
:101DB40040B91849184B2848C91AC908890141F083
:101DC4000101EDE73268254B10215A61244A3F682E
:101DD4005A60042236689A601A620222DE62214E38
:101DE400AA62214A9984DE61986199811F60AC617D
:101DF4002A62EB626BE700BF9D9D0000182D002056
:101E040058070020570F010070070020640F0020BE
:101E1400011C0000A8030100F8020100620F010088
:101E24009C010020850F0100B00F0100BA0F0100D2
:101E3400C20F0100DF0F0100312A0100600F0020F2
:101E44000B1001001110010034100100551C00009A
:101E5400700F002057100100801001006C01002059
:101E640000FC072000F80720200501002DE9FF41B0
:101E74000D46224C06462168284617460BF030FBD7
:101E8400A04698B12846E16C0BF02AFB68B12946BC
:101E94001B4B1C4A1C48D21AD208920142F0010280
:101EA40004B0BDE8F0410AF029BB01204C244443AE
:101EB400164B04F108000293444463682A46CDE9B2
:101EC400007331464FF0FF33404408F001F80246F6
:101ED40068B10B490B4B0E485B1A2946DB089B0182
:101EE40043F0010304B0BDE8F0410AF01BBB012339
:101EF40084F8483004B0BDE8F08100BF780F0020BA
:101F0400F8020100B0030100B7100100C3CA0000C9
:101F1400E110010037B5194D19492846FFF7ACFE09
:101F2400044668B1174A184B0146D21AD2089201E6
:101F3400164842F001020AF0E1FA204603B030BD2F
:101F4400134C4FF47C42204612490DF04DFB009493
:101F54002B68114A0A49114808F0F4F8044648B1BC
:101F6400084A094B0146D21AD20892010C4842F0A1
:101F74000102E0E701220B4B1A70DEE7101000208B
:101F8400F8070020B0030100F8020100121101005B
:101F9400A410002000040720711E0000141000206B
:101FA4003A1101006229002038B5114B04461B7810
:101FB400D3B9104B18681A4680B1DB6C6BB10E4B69
:101FC4000E4A0F48D21AD2089201214642F0010269
:101FD4000AF094FA6FF00B0038BD01204C23434300
:101FE400D518D4506960F7E76FF04300F4E700BFF9
:101FF40062290020780F0020F8020100B0030100DC
:10200400541101004C22034B02FB003090F84800AD
:10201400704700BF780F002037B54C240B460121D0
:102024004443CDE90021054D28190834D0E90B12A9
:10203400281907F03BFF03B030BD00BF780F002024
:10204400044608B54FF02002EFF3118382F31188A0
:10205400BFF36F8F0AF0E8FD204601F0C3FA03488E
:1020640009F018FE01F03CF8FCE700BF8E110100F6
:1020740010B5074808F086F9064C074B186020464F
:1020840001F090FC2046FEF73BFB002010BD00BF92
:10209400210F0100A1200000B01000200A2838B54B
:1020A4000446074D04D1286883680D215B6898476E
:1020B40028688368E1B25B689847204638BD00BF52
:1020C400B010002070B504460C250D480E46231AA6
:1020D4009A100C4B40215343DBB25D4305F1780366
:1020E40018440AF0F7FC011E04DB074B2B445B6821
:1020F4009847002120463346BDE87040184700BF8A
:10210400C4100020B76DDBB6580501002DE9F0417D
:102114000F4C104D031B9B105D43EBB20C255D432C
:10212400074605F178000E46204440210AF0EBFCF6
:10213400011E08DB084B2C44C4E91C36074B5B59D1
:10214400BDE8F041184738463346BDE8F04118472A
:10215400C4100020B76DDBB66DCB0000580501003C
:102164002DE9F843002201210646052000F0D0FEA7
:10217400052000F0AFFE114807F04CFB104B9842CD
:1021840019D10CF023FE00244FF01C080C27DFF8B3
:102194003490F568494608FB045009F0E4FD002832
:1021A40007DB012307FB04551C44042CAB67F0D167
:1021B4000020BDE8F8836FF00400FAE70122000074
:1021C4000000AD0B8805010001460C2300224B439F
:1021D400084870B5C4187833D4E91C5618442267EB
:1021E4000AF0AFFC2DB132462B46BDE870400248E0
:1021F400184770BDC410002010040020052811D811
:10220400DFE800F0030E10100C0A074B986F10F073
:10221400070007D1FFF7D8BF0220FBE70320F9E747
:102224000120F7E7704700BFC410002008B54FF045
:102234002003EFF3118183F31188BFF36F8F124AE8
:10224400136843F0020013F0010310600CD04FF048
:102254005022D2F80C34D2F80C2413F0010303D02A
:102264000A480AF06EFC012381F31188BFF36F8FD3
:1022740023B1BDE808400020FFF7A6BF0120BDE858
:10228400084007F0D7BA00BF641100203C110020B9
:10229400074BD3E8EF2F22F00201C3E8E01F002828
:1022A400F7D1D30702D4012007F018BB704700BF51
:1022B400641100207FB500220123CDE9022304AB81
:1022C400CDE90433094A6B46CDF800D0CDF804D0EB
:1022D4000AF07CFC002805DB4FF4804200236846AA
:1022E40008F0FAFE07B05DF804FB00BFA3CB0000C2
:1022F4002DE9F843012206463949D1E8EF3FC1E808
:10230400E02F0028F9D133B9364937484B60CB6008
:102314008A6009F03BFD731E012B32D8012E07D1D0
:102324004FF05023D3F81C3403F00303022B28D0BE
:102334000DF0C8FB044618B92C4B1B78002B47D171
:102344004FF02003EFF3118583F31188BFF36F8FF0
:102354000124274FDFF89C80DFF89C904FF0502237
:10236400D2F81834D2F81824D2030CD503F003039E
:10237400022B01D0012E06D124B385F31188BFF3BB
:102384006F8FBDE8F883C4B1284600F0B7FE4FF064
:102394005022D2F81835DBB2012BDFD1396800297D
:1023A400DCD00021396039680221C2F818152022D6
:1023B400C8F88021C9F80030D0E70021212008F0B6
:1023C4003DFEE4E74FF050230222C3F80423D8E78C
:1023D4004FF0502302220546C3F80823B9E700BF93
:1023E40068110020B4100020E0100020152A0020FD
:1023F4000451005000E100E00850005010B500F016
:102404005BF9041E0CDA21460D4A0E4B0E48D21A13
:10241400D208920142F001020AF070F8204610BD81
:102424000A4802F0FDFD041EF8DA054A054B214670
:10243400D21AD2089201064842F00102ECE700BF2A
:1024440028030100F8020100EC11010094050100C9
:102454001312010010B5017D0446022912D004298B
:102464000FD009B3114A124B1248D21AD208920162
:1024740042F001020AF042F8204606F09DFC0020DA
:1024840010BD052104F108000CF052FB204600F0B9
:1024940039F9011EF0DA054A054B0748D21AD20869
:1024A400920142F00102E5E70121EBE72803010074
:1024B400F80201003D1201004D1201002DE9F34123
:1024C4008046064618F8010B0D46042801F1FF3337
:1024D40010D0052800F09380022840F0C980032B17
:1024E4005CD86949694B6A48C91AC908890141F02D
:1024F400010109E0012B0CD86349644B6548C91AF2
:10250400C908890141F0010109F0EBFF02B0BDE8FF
:10251400F08173783E2B19D1F778022F18D0A7F1E8
:102524000D035F425F410222414601A80BF003F80C
:102534009DF80530033D9D420CD05349534B5648FA
:10254400C91AC908890141F00101DDE70027EAE75A
:102554000127E8E70022002339469DF8040001F032
:102564001BFB044650B9002FD0D14749474B4B4879
:10257400C91AC908890141F00101C5E700F108073A
:10258400022201A938460CF0B0FA2A46F11C38465A
:102594000CF0ABFA204602F00FFDB7E7002200234F
:1025A400032001F0BDFA044600B3042241460DEBBA
:1025B40002000AF0C0FF042204F1080738460DEBBC
:1025C40002010CF092FABDF80630053D9D424CD054
:1025D4002D492E4B3248C91AC908890141F001011D
:1025E40009F07FFF204606F0E7FB8FE72649274BDB
:1025F4002C48C91AC908890141F0010184E7032B59
:1026040008D82149214B2848C91AC908890141F031
:10261400010179E70022002301F082FA0446D8B1CF
:10262400042241460DEB02000AF085FF042204F166
:10263400080738460DEB02010CF057FABDF80630D6
:10264400053D9D4211D01049104B1848C91AC908BC
:10265400890141F00101C3E70B490C4B1448C91A25
:10266400C908890141F001014EE72A46711D8EE730
:10267400064B054A0146D21AD20892010D4842F08F
:10268400010209F03BFF41E728030100F8020100C1
:10269400C61201006512010086120100AA1201008F
:1026A400FF120100E5120100211301005A13010079
:1026B400401301007C1301000B4908B50B48FFF7D8
:1026C40073FC011E0BDA0A4B0A4A0B48D21AD208D1
:1026D400920142F0010209F011FF084808BD084BBD
:1026E40000201960FAE700BF1BCC0000A41301000E
:1026F400F802010030030100AF1301002AF8FFFFC4
:102704006C110020024B828981681868FFF784BC31
:102714006C11002008B5024B1868FFF773FC08BD64
:102724006C110020044A1368C81A20F07F40034447
:10273400136008F04BBF00BF7C1100202DE9F04767
:102744004FF480374FF00009860000F1500406F181
:102754005026A40006F58036A4B204F15024D6F81D
:102764004035DFF86C8021F07F4504F580348740E4
:10277400D8F804A5A3EB0A0323F07F432AF07F4291
:10278400012BC6F8402502D113200DF0A1F90AF15E
:102794000202AB1A23F07F43B3F5000F88BF15463E
:1027A400C4F80090236825F07F43C8F84473C6F842
:1027B4004035D8F804359A4506D0EB1A023B23F08D
:1027C4007F43B3F5000F01D8BDE8F0872B46CFE770
:1027D40000500150F8B5002427460F4E0F4B104A05
:1027E40018461D6804B1F8BDD2F80413C903FAD51C
:1027F40031680029F7D0346031684FF48031C2F871
:1028040048130124D2F8401525B100205A681F60EE
:10281400A847E3E70560E6E7405101507011002046
:102824000050015038B500244FF480334FF40012A7
:102834000D4D0121C5F80845C5F804330B4B15208F
:10284400C3F88021224600F063FB152000F042FB10
:102854000123074A02201360064A2B601360FFF726
:1028640047FD204638BD00BF0050015000E100E0A4
:102874000850015078110020134BB0F1FF3F08BFFE
:102884001846013800281CDD9842A8BF18460F4B93
:10289400D3F804250E4B1968521A12F4000F18BF0E
:1028A400002022F07F4301330A4A03440A4810609F
:1028B40000205060044A934294BFC9188918FFF756
:1028C4003DBF0020E3E700BFFFFF7F000050015041
:1028D4007C11002070110020292700004FF02002F5
:1028E400EFF3118382F31188BFF36F8F064AD2F896
:1028F4000405064A1268801A20F07F4083F3118889
:10290400BFF36F8F704700BF005001507C1100204F
:102914004FF02003EFF3118283F31188BFF36F8F1D
:102924000649074B0868D3F8043582F31188BFF3CE
:102934006F8F1B1A23F07F43184470477C110020CB
:1029440000500150014809F039B800BFA805010042
:1029540008B508B34368042B07D0082B13D0F3B190
:10296400006807F079FF00200CE000220368D3E838
:10297400EF1F012903D1C3E8E02F0028F7D109484C
:1029840008BF104608BD036800201B78064A03F5FB
:10299400807342F82300F5E76FF4E040F2E7034860
:1029A400F0E700BFE98FFFFF00000350EA8FFFFF4D
:1029B40010B5044618B90D4B0D485B68984761681B
:1029C40008290DD031F004030AD011F0020108D017
:1029D4002146084807F09CFE00232360002363601F
:1029E40010BD142220680AF0D1FDF7E71803002077
:1029F400F11301008011002010B5044618B9164BDC
:102A040016485B6898476368042B23D0082B21D0B1
:102A1400CBB92368BBB94FF0FF324FF0FF332146E7
:102A24000F4807F043FE08B923681BB90A4B0D4849
:102A34005B6898471422002120680AF0A7FD6368A8
:102A440043F00203636020680CF05CFE636843F0AB
:102A54000103636010BD00BF18030020F1130100DF
:102A6400801100201714010008B540B34368042BFB
:102A74000BD0082B16D003B300684FF0FF324FF091
:102A8400FF3307F071FE58B115E001220368D3E863
:102A9400EF1F002903D1C3E8E02F0028F7D10AD1A2
:102AA400002008BD0368074A1B7803F5807352F8B9
:102AB4002330002BF4D00448F3E70448F1E76FF423
:102AC400E040EEE700000350E98FFFFFEA8FFFFFCD
:102AD40008B506494023142205480CF0F8FDBDE86A
:102AE40008400449044808F0BBBF00BF9C11002003
:102AF40080110020C0050100B0050100F0B50746B3
:102B0400264E8DB001AD0C460FCE0FC50FCE0FC5AE
:102B140096E8070085E807003846002F39D0002CD6
:102B240039D0381F0246214610344B780D781B04E7
:102B340043EA0563CD7804312B4311F8025C8C42DF
:102B440043EA052342F8043FEFD10421144C8A07D9
:102B5400036916D1C3F30742A55C1A0EA25C42EACC
:102B64000562C3F30725655DDBB2E35C42EA054217
:102B740042EA03220CAD21F003032B4453F82C3C0E
:102B8400534050F8042F013153402C290361DED106
:102B940001200DB0F0BD2046FBE700BFF4030100A7
:102BA400441401002DE9F0431546064689B0002877
:102BB40058D0002959D0002A59D010230A46684613
:102BC40019462C4C0AF034F8294668460AF048F8AD
:102BD400A14605F11007A035E8466A46102311788E
:102BE400013B615C02F8011BF9D168460AF07DF8EB
:102BF400694604A80AF0B2F801A905A80AF0AEF8DB
:102C040002A906A80AF0AAF803A907A80AF0A6F8D8
:102C14001023684619460DEB03020AF009F83946F9
:102C2400684610370AF01CF8AF42D5D1102498F842
:102C34000030013C19F8033008F8013BF7D168462D
:102C44000AF053F8294668460AF00AF810236A463F
:102C54001946304609F0ECFF68461022214609F077
:102C6400F4FF012009B0BDE8F0830846FAE71046F6
:102C7400F8E700BF441401002DE9F04F0027036872
:102C84009DB003934368DFF8B8A104938368039C61
:102C94000593C36802910693036907934369DDE9C9
:102CA40006E2089383690993C369DDE908CB984672
:102CB4000A93059B0193049B0093029B019EDD599B
:102CC4000CAB2DBADD515AF8043B043705EB03096C
:102CD4004FEAF22585EAB21585EA72654D442BEA7E
:102CE400020302EA0C0983EA09032B444344DDE9A5
:102CF40000154FEA74384D4088EAB408254001EACB
:102D0400060985EA090588EAB458A844402F03EB6C
:102D14000E054344B646D84640F081804FF0100A71
:102D240046490B9151460AF1010A1CAE0AF00F07FD
:102D340006EB870757F8406C01F00F094FEAB648D5
:102D440001F10E070931029688EAF61801F00F0125
:102D54001CAE06EB890906EB810107F00F0751F859
:102D6400401C06EB870759F8406C57F8407C314407
:102D7400029E4FEAF74E88EAD6088EEA774E8EEA2C
:102D8400972E414471440B9E49F8401C4FEAF529A3
:102D940005EA020889EAB5192CEA050756F804EB96
:102DA40087EA080789EA75694F4477440B96009EC1
:102DB4003944594404EA060E84EA060B019E4FEA9C
:102DC40073370E4487EAB3070BEA030B8BEA0E0B47
:102DD400B04687EAB357009E5F44BAF1400FE3461A
:102DE4003944019623D1039E0E4404990660194484
:102DF400059B4160234400998360069B0B44C36098
:102E0400079B43440361089B2B444361099B134480
:102E140083610A9B6344C3611DB0BDE8F08F0099D0
:102E2400E346CDE9004194461C462A4645E79446CC
:102E340000942A461C4645460B4673E714060100D7
:102E4400D405010010B50446C8B17022002109F070
:102E5400FCFE0B4B0B4A0C49C4E900230B4B0C48FA
:102E6400C4E902130B4BC4E9040301200A4BA36118
:102E740003F17453A3F52303A3F69243E36110BD56
:102E840085AE67BB67E6096A72F36E3C3AF54FA5F7
:102E94007F520E518C68059BABD9831F0A4A0B499C
:102EA40093680968D867C3F8801009494B6843F0F0
:102EB40080534B60002383F31188BFF36F8F9368B3
:102EC400D3F88000704700BFF4180020F00B010015
:102ED40000ED00E043B2002B08DB012200F01F00EC
:102EE40002FA00F0024A5B0942F82300704700BF6F
:102EF40000E100E0054B420953F82220012300F0D1
:102F04001F0003FA00F01040704700BF00E100E02A
:102F140043B2002B01F10101ACBF03F16043064B46
:102F24004FEA4111C9B2ABBF03F5614300F00F0092
:102F340083F800131954704714ED00E042F8203C64
:102F4400009B0B4942F81C3C019B21F0010142F813
:102F5400183C029B42F8081C42F8143C4FF0807362
:102F640042F8043C0023203A8265C367704700BFDF
:102F740023BE0000044608B50E46154600F072FB59
:102F8400084B9C60E36E83F30B88284686F309881C
:102F9400002163B681F31188BFF36F8F00220023F1
:102FA40008F03DFFF418002073B506460C4601B343
:102FB400134B144D1448ED1AED08AD0145F001050D
:102FC400ADF80050D1E90123096809F0C4FAADF85D
:102FD4000050D4E90423E1680C4809F0BCFA2A46FD
:102FE400E1690B4809F08AFA2A46A169094809F0FF
:102FF40085FA2146304602B0BDE8704007F0EAB9D0
:10300400F802010098030100441501007315010042
:10301400A2150100B11501000E4A08B50E4B22F0AD
:103024007F029A60BFF34F8FBFF36F8FD3F888206E
:1030340022F47002C3F88820EFF3148323F004030E
:1030440083F3148807F058FA08F0C8F900F0DCFAA2
:1030540007F076FA0000000000ED00E013498A68EA
:103064004FF038001044EFF3098C80E8F01F202063
:1030740080F31188BFF36F8F0D4F4FF000668A6A9B
:103084008A603E60D06F0023D36780F3118802F119
:10309400380090E8F01F8CF3098802F1000004B5B1
:1030A4000AF0C0F9BDE8044070470000F41800209D
:1030B40004ED00E01EF0040F0CBFEFF30880EFF303
:1030C4000980816911F8021C0229FFD001B50AF0B8
:1030D400ADF901BD014910220A60704710ED00E00E
:1030E40072B6404080F31188BFF36F8FBFF34F8FE8
:1030F40030BF62B6BFF36F8F704700BF72B64940EE
:1031040081F3118820BF80F3118862B6704700BF35
:1031140030BFFFF7FDBF00BF01B572B60B4A506A5E
:1031240000281EBF002151620CF063FA62B6EFF36F
:103134000580A0F110004FEAC0000549014409C907
:103144009847BDE80140034908470000F4180020EF
:1031540094000100A131000009F07EF9202080F3E1
:10316400118808484FF40061401880F30988EFF390
:1031740014800221084380F31488BFF36F8FFFF794
:103184004BFF000088430020EFF30880EFF3098130
:1031940001B5724600F04EF901BD00BF044B9968B9
:1031A400986A884203D003494FF080520A607047FE
:1031B400F418002004ED00E070B5284B284C294D8C
:1031C400E41AE408A40144F001063146264809F053
:1031D40088F9AA6A930103D53146244809F081F994
:1031E400AB6ADD0104D5224844F0010109F079F904
:1031F4001C4DAE6A16F4801605D01E4844F0010139
:1032040009F06FF90226AB6A180304D51A4844F092
:10321400010109F066F9134DAA6A510304D5174850
:1032240044F0010109F05DF9AB6A9A0304D514482E
:1032340044F0010109F055F90A4DAB6ADB0304D5EA
:10324400104844F0010109F04CF9AB6A30466FEACA
:1032540003436FEA1343AB6270BD00BFF802010081
:103264009803010000ED00E0DF150100F7150100EF
:103274000A160100241601004E1601006C16010006
:1032840091160100AB1601002DE9F041284B294CA1
:10329400294DE41AE408A40144F0010807460E4647
:1032A4002648414609F01DF9AA6AD00603D54146CD
:1032B400234809F016F9AB6A190704D5214844F0EC
:1032C400010109F00EF91C4DAB6A9A0712D544F0BE
:1032D400010841461C4809F004F9696BAB6A1B06F6
:1032E40008D54246194809F009F91FB1AB6A23F021
:1032F4008003AB62104DAA6AD00704D5144844F089
:10330400010109F0EEF8AB6A990604D5114844F0BE
:10331400010109F0E6F80020074B9A6AD20658BF6B
:103324009A6A9A6A42F0FF029A623070BDE8F081AC
:10333400F80201009803010000ED00E0D616010038
:10334400EC1601001F170100321701004A17010093
:10335400601701007F1701002DE9F0412A4B2B4C27
:103364002B4DE41AE408A40144F0010807460E4674
:103374002848414609F0B5F8AA6AD10403D5414664
:10338400254809F0AEF8AB6A1A0504D5234844F081
:10339400010109F0A6F81E4DAB6A9B0512D544F055
:1033A400010841461E4809F09CF8A96BAB6A180451
:1033B40008D542461B4809F0A1F81FB1AB6A23F4B3
:1033C4000043AB62124DAB6A590504D5164844F06C
:1033D400010109F086F8AB6ADA050DD5134844F00B
:1033E400010109F07EF80020094A936A43F47F43FF
:1033F40093623070BDE8F081AB6A9B04F3D50C484E
:1034040044F00101EDE700BFF80201009803010058
:1034140000ED00E0AE170100C41701001F17010002
:10342400D5170100EE170100031801001E18010052
:103434007F1701002DE9F041564B0F465E680025C9
:103444008AB0C6F3080485F31188BFF36F8F02F0C6
:103454007F43B3F17F4F0DD102F00C03082B0BD146
:103464004D494E4B4E48C91AC908890141F0010122
:1034740009F037F82F4603E0120701D40746012567
:1034840000238DF80730E31E092B6AD8DFE803F028
:1034940005585C3C6969696969604FF000083F4BF5
:1034A4003D4E4048F61AF608B60146F0010631468C
:1034B40009F017F8374B8DF80780DC6A14F0020422
:1034C40005D03146384809F00CF800241FE0DB6AC7
:1034D4005B001CD53146354809F003F8344B1B78A2
:1034E4002BB101200DF10701FFF7CEFE0EE0314BA9
:1034F4001B782BB101200DF10701FFF72DFF05E02B
:103504002D4B1B889BB213B1FFF756FE04469DF862
:10351400073093B92022394602A80AF00CF8099B17
:103524009DB3C3F3080222B96FEA53236FEA43231E
:103534000993204602A9FFF737FD0AB0BDE8F081E0
:1035440000200DF10701CFE700200DF10701D4E7BA
:103554001149124B1948C91AC908890141F00101DE
:10356400B1E70E4A0C4B16489B1ADB0816F4F87F99
:103574004FEA8313134943F0010318BF0146A4F132
:103584001002114808F0CEFF9FE723F4FF7323F0E5
:103594000103CDE700ED00E098030100F80201000B
:1035A400361801006118010078180100991801000B
:1035B40028ED00E029ED00E02AED00E0B818010054
:1035C40003190100EE1801001C190100044B5A698B
:1035D40042F010025A615A6942F480625A6170479B
:1035E40000ED00E0BFF34F8F0549064BCA6802F4B3
:1035F400E0621343CB60BFF34F8F00BFFDE700BF12
:1036040000ED00E00400FA05002320210348C2185D
:103614000133452B82F80013F9D1704700E100E033
:1036240008B50E4B9B68834207D1EFF3058393B132
:103634000B4A536843F08053536007F051FB4FF03B
:103644002003EFF3118083F31188BFF36F8FBDE87C
:1036540008400CF055B907F03BFE00BFF4180020F9
:1036640000ED00E01FB5094C094A23460121094831
:1036740000F038F900230393074B0121E41A01A851
:103684000193029400F038F904B010BD0000072043
:1036940000000020D40601009806002010B50B6835
:1036A4000C7A23F01F0204F01F031A43CB68640949
:1036B40023F01F03044943EA440343F001038860F1
:1036C400CA600B6110BD00BF90ED00E0072810B583
:1036D4000DD9084B084A0146D21AD208920107486C
:1036E40042F0010208F00AFF6FF0150010BDFFF769
:1036F400D5FFFBE7F8020100800301003319010044
:103704002DE9F04F8946144606464FF00008544D03
:1037140085B0C84533DAD6F804A0BAF1000F4DD00D
:10372400BAF11F0F1ED91AF01F0F1BD1D6F800B023
:103734001BF01F0F16D1584609F09CFE07460AEBF2
:103744000B00013809F096FE87421CD06FF0150774
:10375400444A454B3946D21AD2089201434842F0B2
:10376400010208E041463F4A3F4B4148D21AD20881
:10377400920142F0010208F0C1FE6FF015042046E8
:1037840005B0BDE8F08F17F1160FE1D0631EBB4200
:10379400DEDBAF60E968AF602B6921F01F0143F005
:1037A4001F0BD6E900321A44994202F1FF3A1AD1AA
:1037B400D34507D13146F8B209F043FE08F10108B8
:1037C4000C36A6E73146AF60EB6822F01F0203F027
:1037D4001F031A43EA60E0B209F033FE10F1160F3A
:1037E400CBD0441CEAE7013BD345E0B223F01F03EE
:1037F400AF6006D12A69314602F01F0213432B61E0
:10380400EAE7296901F01F010B432B61314609F0F6
:1038140018FE10F1160FB0D0AF60EA689DF80830BA
:103824000BF1FF3B62F304038DF808302B699DF81C
:1038340008205B0863F347128DF80820D6E90032AC
:103844001344009323F01F035B44A3EB0A030130EA
:1038540023F01F036946C0B20393FFF737FFBDE7A8
:1038640090ED00E080030100F80201007C190100E2
:10387400591901000522034B5A60BFF34F8FBFF360
:103884006F8F704790ED00E0BFF35F8F0022014B14
:103894005A60704790ED00E038B50E4C2568082D4D
:1038A40014D8FFF7F1FF00200B4B0C4A1A63854232
:1038B40005D10B4B1D70FFF7DDFF002038BD61689B
:1038C40001EB0011FFF7EAFE0130F0E74FF0FF30A3
:1038D400F4E700BFE006010090ED00E0AAFF440019
:1038E4006329002010B5034C2278FFF709FF2070EC
:1038F40010BD00BF632900202DE9F74F264D8A46ED
:1039040006464FF00008AB46244FD0451BDAD6F8E4
:103914000490B9F1000F39D031680846019109F0DB
:10392400A9FD0199044609EB0100013809F0A2FD43
:1039340084424FF014021A4B08D06FF0150302FBB7
:1039440008F84BF8083003B0BDE8F08F14F1160FF7
:103954002C60F8D01978A142F5DD02FB08B0BC60F8
:10396400BC60FC6800F10801007B64F3040008718A
:1039740038690C79400860F347140C71F96821F038
:103984001F016960396921F01F01296108F10108EB
:1039940014350C36B9E700BF9C16002090ED00E00A
:1039A40063290020014B1860704700BF14020020F7
:1039B4004FF08053094A0020C2F80432C2F80032A2
:1039C40042F8D43C42F8D83C1022054BC3F84024BA
:1039D4004FF05023C3F81406704700BF00288450EA
:1039E400003000500E4B402928BF402170B51D46C1
:1039F4000C4C4618B04203F1020304D1002305F82D
:103A04001130074870BD02781209A25C03F8022C39
:103A140010F8012B02F00F02A25C03F8012CE9E775
:103A2400642900200D1A010030B503788BB00446D8
:103A340007AD032B21D8DFE803F0021A1C1E12493C
:103A4400284609F020FD63781E210493A3780F4AC9
:103A54000393E3780595029323790D4801936379E1
:103A64000093A37908F023F909480BB030BD094944
:103A7400E6E70949E4E70949E2E70A212846084A52
:103A840008F015F9DFE700BFC8190100EA190100C1
:103A9400E5290020CF190100D6190100E019010021
:103AA40008280100F0B402780446012A0B4616D017
:103AB400022A2CD08AB90D46184A02F110072E4664
:103AC40010685168083203C6BA423546F7D11278F5
:103AD400327062885A73120A9A73F0BC70470D46AA
:103AE4000E4A02F110072E4610685168083203C6C8
:103AF400BA423546F7D1127832706268C2F30721B0
:103B04005A73120CDA73120A99731A74E5E70146B0
:103B1400F0BC1122184609F00EBD00BF1E1A0100A8
:103B2400012838B505460CBF064807480AF07BFF54
:103B3400044620B1012108300AF09AFF2575204679
:103B440038BD00BF440600207C05002002460B4619
:103B540070B54FF02001EFF3118581F31188BFF3A5
:103B64006F8F00200B49D1F8F840C1F8F80085F3B5
:103B74001188BFF36F8F24B9BDE870400120FFF7AF
:103B8400CFBF0121A081217504F108000AF070FF64
:103B9400204670BD0000002070B504460F2C0D4671
:103BA4001046194605D80D2C12D9BDE87040FFF710
:103BB400CDBF132C0CD10B480AF035FF044628B1B5
:103BC400012108300AF054FF01232375204670BDFB
:103BD40002460B460DB10448EEE70120BDE87040F3
:103BE400FFF79EBF6C060020CC05002070B58CB09A
:103BF4006C460646094D0B2E0FCD0FC40FCD0FC4D6
:103C040095E80F0084E80F009DBF0CAB03EB86061C
:103C140056F8300C02480CB070BD00BF20040100FF
:103C2400211B0100F8B506460025094FFB79ECB2CB
:103C3400A34202D86FF0010408E0C4EBC40130468B
:103C4400394409F050FD01350028EFD12046F8BD74
:103C540000000020436837B50446580502D500200B
:103C640003B030BD22690AB1D907F8D51A4D2078BE
:103C7400EB798342F3D90023C0EBC00069462844A2
:103C84000093CDF8033009F02EFD0028E7D06068DA
:103C9400C20706D495F83430082B02D8A3689F2BAA
:103CA400DDD910F0300F02D02369002BD7D0C30622
:103CB40001D4236943B9D4E902239A42CFD81F2AF5
:103CC400CDD9B3F5804FCAD800F46030B0F5603078
:103CD40018BF0120C4E700BF000000200549064AC0
:103CE4008368521AD20892011978044842F00202F9
:103CF40008F004BCF802010020030100291B0100A4
:103D0400836810B51C88204602F0D8FB60B9084AC5
:103D1400084B2146BDE81040D21AD2089201064849
:103D240042F0010208F0EABBBDE8104009F048BEC9
:103D340020030100F8020100511B010038B583681B
:103D44001A78DAB9B3F80150284602F0B7FB0446F2
:103D540060B90B4B0B4A2946D21AD20892010A4881
:103D640042F00102BDE8384008F0C8BB012102F06E
:103D7400B1FB2046BDE8384009F022BE38BD00BF83
:103D8400F802010020030100751B0100F8B58668E4
:103D94003578F5B9B6F80170384602F08FFB044661
:103DA40060B90C4B0C4A3946D21AD20892010B481E
:103DB40042F00102BDE8F84008F0A0BBF3782946C0
:103DC400437202F087FB20462580BDE8F84009F0E5
:103DD400F7BDF8BDF802010020030100751B0100C6
:103DE40008B5012108300AF0B4FE064B064A0178F2
:103DF400D21AD2089201054842F00102BDE80840F7
:103E040008F07CBBF8020100200301009B1B0100A9
:103E140010B50A4A0A4C81898068A41AFFF7E2FDAA
:103E2400FDF794FAE408A40144F002040146224692
:103E3400BDE81040034808F061BB00BFF802010070
:103E440020030100BD1B010073B58568B5F801604E
:103E5400304602F033FB044660B91F4A1F4B31461B
:103E6400D21AD20892011E4842F0010208F046FB21
:103E740002B070BD2B78BBB92A79EB7843EA0223F0
:103E8400A0F89E30AA796B7943EA0223A0F8A43003
:103E9400EB792A7A43EA0223A0F8A63002F03AF931
:103EA400204609F08DFDE3E71A2BF9D1C378012BE5
:103EB400F6D14FF48061043009F018FC4305EFD4C7
:103EC400D4F8A03069460093D4F8A8302046019372
:103ED40002F02AFFE4E700BF20030100F80201001A
:103EE400511B01002DE9F043074685B090798846BF
:103EF400144604F0A5FE324E864216D0314BA0790A
:103F0400314D0097ED1A019004F09AFEED08AD01D1
:103F140045F00205CDE902062B46042269462B48EA
:103F240008F035FB05B0BDE8F083204604F090FEB0
:103F34004FF00C09264D09FB00535B88BB4211D09E
:103F4400204B214E2046F61A04F082FE09FB005055
:103F5400F608B60146F002064288334639461D4843
:103F640008F0E0FA204604F073FE0C2606FB00502D
:103F740043686BB1B8F1000F0AD1204604F068FE23
:103F840006FB005043681A7AD3E9000109F0C4FB28
:103F9400204604F05DFE0C2606FB00508368002BCF
:103FA400C0D0204604F054FE704305F8008020463B
:103FB40004F04EFE06FB0055A86807F067F8B1E769
:103FC4001C060020F802010020030100E11B01008F
:103FD400B0160020161C010073B50546084602EB16
:103FE400C3031178A9421AD008329A42F9D18689BA
:103FF400164B174C31468068E41AFFF7F3FCFDF7C3
:10400400A5F9E408A40144F0020403463246294613
:104014001048ADF8004008F09EFA02B070BD8189E6
:1040240053788B420DD9094A094B0B489B1A2A46EF
:10403400DB089B0143F0010302B0BDE8704008F0C7
:1040440071BA536802B0BDE870401847F802010025
:10405400200301006B1C0100491C01002DE9F047FD
:10406400474B484DDFF83C81ED1ADFF83C91464F51
:10407400ED084FF0FF324FF0FF3340460AF0D8FC12
:10408400017D0446012946D0032973D18389032B7A
:104094000CD840F2AC433A463C493D4807F0FAFD9F
:1040A400404080F311884FF0030002DF042104F143
:1040B40008000AF04EFDFF234288B0F800A0A18951
:1040C400CAF30B008A42E082637509D0AB01314820
:1040D40043F0010308F026FA204604F06DFE17E0D1
:1040E40002F0ECF9064638B9AA01E18A2A4842F0FE
:1040F400010208F003FAEFE702F07AFC214660754A
:104104004FEA1A32304602F07FF8304609F058FC84
:1041140006F046FFADE78389012B0CD841F2FB334F
:104124003A461A491A4807F0B5FD404080F3118811
:104134004FF0030002DF022104F108000AF009FD38
:104144000646007809F0A8FA83070CD441F2FF333D
:104154003A4612490E4807F09DFD404080F311880D
:104164004FF0030002DF04234A4621463078FFF76C
:1041740033FFB1E7AA010A4842F00102B9E700BFE0
:10418400F8020100200301008D1C0100C11C010084
:10419400DA1C0100F71C01001B1D01003D1D01007C
:1041A4006B1D0100FC000020A007010010B50121D7
:1041B400044608300AF0CDFC2146BDE81040072330
:1041C400014A0078FFF708BF4807010013B50C4CFB
:1041D4000146052294F8330002F0AEFA70B9094B97
:1041E400694618689A889B790090ADF8042094F881
:1041F400330004228DF8063002F09EFA02B010BD9E
:10420400000000205004010030B5134DC0EBC00085
:104214000C4685B0054471B10023694620460093DD
:10422400CDF8033009F05FFA28B12146284609F099
:1042340057FA05B030BD02A809F020FA02A8FFF72A
:10424400F1FC0028F7DA284602A909F049FA002C03
:10425400EFD029462046EAE7000000202DE9F84F78
:104264000026B1463C4D3D4BD0F80880ED1ADFF8EE
:10427400F8A0ED0898F800309E4201DBBDE8F88F05
:1042840008EB8603B3F801B0B3F80370584602F0A4
:1042940015F90446D8B100F1280B002F33D04FF0A4
:1042A4002003EFF3118283F31188BFF36F8FE36967
:1042B400B3B1013BE36182F31188BFF36F8F2046F2
:1042C40001F024FF013F06F0E1FEBFB2E5E7AA01D9
:1042D4005946234842F0010208F010F90136C9E7B3
:1042E40063692BB1A16918688B42606108BFA06142
:1042F40082F31188BFF36F8F4BB9A901194841F0BC
:10430400010108F0EEF8204609F05AFBE6E74FF009
:104314002002EFF3118182F31188BFF36F8FDA6803
:10432400E261C3F80090626AC3F80C908AB9C4E9E8
:10433400083381F31188BFF36F8F012104F130003A
:1043440009F0D4F9C307BAD4594650460BF05EFAC3
:10435400B5E713606362ECE720030100F802010093
:104364007F1D01009B1D0100380E0020F0B5284B75
:1043740005460F4685B0017803F1280009F0ADF930
:1043840010F0400F1A4608D003F1280009F0A5F9EF
:10439400C00502D51B7E8B4231D12E4616F8093B4F
:1043A400694682F83330002330460093CDF8033059
:1043B40009F099F90446287864B1314602F094F979
:1043C4000446F8B92878314602F04CF80546E0B1C5
:1043D40005210EE06FF0FF0302934FF6FF7302A96D
:1043E400ADF80C308DF80E3002F03CF8054660B1A3
:1043F400042102F06FF83D60204605B0F0BD6FF077
:104404002204F9E76FF01504F6E76FF00B04F3E705
:104414000000002038B50421044608300AF099FB56
:104424004578017822464088FFF75CFD25B1BDE858
:104434003840024806F02ABE38BD00BFE000002024
:1044440038B50321044608300AF083FBA3680578D5
:1044540022461978B0F80100FFF744FD25B1BDE804
:104464003840024806F012BE38BD00BFE00000200C
:104474002DE9F84F4FF0FF324FF0FF330546164851
:104484000E460AF0D0FA0027044600F1080B012179
:1044940058460AF0EDFA2046277504F0D9FB4FF090
:1044A4000C0ADFF838800AFB00804580204604F0BF
:1044B400CFFB0AFB00808760204604F0C9FB0AFB9F
:1044C40000800321476058460AF009FB8670058086
:1044D4002046BDE8F88F00BF1C060020B01600205F
:1044E4002DE9F041074615460C4686B021B9FFF781
:1044F400BFFF0446002855D00122002168460BF076
:10450400D1FA204604F0A4FB0C23284E03FB0060E0
:10451400C0F808D020460AF0BCFA214624480AF024
:10452400ABFA4FF4A0220023684606F0D5FD80467E
:1045340080B140F24D131F4A1F49204807F0AAFBDF
:1045440041461F4807F0A6FB404080F311884FF016
:10455400030002DF204604F07BFB0C234343F65C9C
:10456400BEB1184A184B39469B1ADB089B013246E8
:10457400164843F0020307F0D5FF204604F01CFC64
:10458400092E0CBF6FF03C006FF0040006B0BDE8CC
:10459400F08115B130462C60F8E7204604F00CFC9D
:1045A4002846F3E76FF03600F0E700BFB0160020AE
:1045B400140100208D1C0100B21D0100DA1C010051
:1045C400BB1D0100F802010020030100DB1D0100F6
:1045D40073B506460D4642F22F00002101AAFFF7EB
:1045E4007FFF044660B10C490C4B0D48C91AC90839
:1045F400890141F0010107F074FF204602B070BD4B
:1046040001988368B3F801203280B3F803302B801B
:1046140004F0D2FBF1E700BF20030100F80201001F
:10462400F71D010070B5154E062206F12D01054651
:1046340008F071FF0446E0B1062142F20500FFF7DD
:1046440017FF0446B8B10622294608300AF04DFA8D
:104654002146002242F20500FFF742FF044640B91A
:104664000622294606F12D0008F065FF012386F88D
:104674002C30204670BD6FF03604FAE700000020AD
:104684002DE9F743044611F001000E4690461D46FD
:1046940027D0274F2AB1880603D597F898305906B2
:1046A40042D5C4EBC403FB5C4FEAC409012B08D018
:1046B400A9EB04043B5DB8F1000F0DD100202B7071
:1046C40007E0072010FB04303844FFF7ABFF002855
:1046D400EED003B0BDE8F083B20648BF43F0020356
:1046E400ECE74B0710D5124EC4EBC403F35CE700B0
:1046F400012B05D1072010FB04303044FFF792FF53
:104704003C1B335D2B70E4E70621684601F02AFC6C
:1047140040B99DF80530684603F03F038DF8053035
:10472400FFF780FF0123EDE76FF02200D1E700BF20
:10473400000000202DE9F74F0C4620218246154643
:10474400FFF796FE064600285CD0202108300AF0C8
:10475400C6F920228146002108F018FF04EBC503A6
:10476400002509F1010B00930023D4F8008062684E
:1047740093420DD3009B08349C42F5D1002231466C
:10478400504689F8005003B0BDE8F04FFFF7A8BECB
:1047940098F80120A81C81181F2998F800C01AD97C
:1047A400BCF1090FC5F11D0201D1002A11DC174B20
:1047B40017491848C91AC908890141F0010107F0CD
:1047C40090FE304604F0F8FA6FF0150003B0BDE82F
:1047D400F08F4FF0080CD7B2791C0BF80510691C48
:1047E400C9B20BF801C0D8F804105BFA80F0019349
:1047F400023708F0A0FE019B3D44EDB2013308F1FD
:104804000808B4E76FF03600E0E700BFF8020100E3
:1048140020030100171E01002DE9F04F87B09DF819
:10482400488006460C4617460021102202A81D4661
:10483400DDF840909DF844A008F0A8FEB8F1000F00
:104844000ED0B4BB002D3FD1DFF8B0B0584608F00D
:1048540037FE09238DF801008DF80030CDF804B03F
:10486400CDE90247B8F1000F30D0BAF1000F2DD1D5
:1048740001230222CDF810D0059342F2080002A9C8
:10488400FFF758FF044638B9BAF1000F20D10421CC
:1048940006F1100008F02AFF204607B0BDE8F08FAB
:1048A40014F83320083A012A25D901339F42F7D15D
:1048B400C8E70023FAE715F83320083A012A1AD981
:1048C40001339945F7D1BFE70023FAE70122D4E782
:1048D4000122CDE90259B8F1000F03D0059202225A
:1048E400CDF810D042F2090002A9FFF723FF0028F7
:1048F400CDD00446D0E76FF01504CDE7970D010045
:104904007FB506460D4642F20A000121FFF7B0FDCD
:104914000446E8B10830CDB101210AF0EFF80623CE
:1049240020461036029301968DF80C5004F090F94D
:104934000C22094B214602FB003001AB43600022EC
:1049440042F20A00FFF7CCFD04B070BD2946E4E74B
:104954006FF03600F8E700BFB0160020024BD3F822
:104964002C311B69184700BF0000002038B50546EC
:104974000C4619B9FFF77CFD0446F0B140F6354307
:104984009D4214D12046FFF7E9FF054668B10C4B60
:104994000C4A0146D21AD20892010B4842F0010295
:1049A40007F0ACFD204604F007FA284638BD21463E
:1049B40006480AF061F80025F7E76FF03605F4E7DA
:1049C400F802010020030100301E01001401002040
:1049D400F8B50446C68A807904F032F921460AF013
:1049E40020FF2D4B93F84E309B0653D5607D02F08B
:1049F4000BF8054660B9294B294A617DD21AD208C1
:104A04009201284842F00202BDE8F84007F076BD62
:104A1400837A012B02D0073B012B15D8284608F0D6
:104A2400CFFF052140F63540FFF722FD0446D0B9FB
:104A34001A4B1B491C48C91AC908890141F00101D4
:104A4400BDE8F84007F04DBD144B15491748C91A85
:104A5400C908890141F0020107F043FD2846BDE879
:104A6400F84008F0ADBF00F10807012138460AF00C
:104A740036F801250421057038460AF030F8002381
:104A840006808570C3702146BDE8F84040F6354085
:104A9400FFF76CBFF8BD00BF00000020F802010062
:104AA40020030100521E0100A71E01007B1E01000D
:104AB4007FB5837A0446072B1ED1061D304608F0C5
:104AC4000CFE83041AD4E37823B1314B93F8983065
:104AD4001D0713D5022142F21600FFF7C9FC054653
:104AE40060B10221083009F0FAFF238829460380C7
:104AF40042F21600FFF73AFF04B070BD304608F0EA
:104B0400ECFD10F4805F224DC0F300311AD195F80A
:104B14009930D80716D5022300911A46204608F08A
:104B240064FE014620B98021304608F0DFFDE3E74A
:104B3400184A194B1948D21AD208920142F00102BC
:104B440007F0DCFC95F898309A06D5D5D5F82C31C9
:104B54009B689B07D0D50DF10E0103A8FFF738FD24
:104B64000028C9D1BDF80C102046BDF80E2008F06D
:104B74001FFE01460028BFD0074B064A0848D21A38
:104B8400D208920142F0010207F0B8FCB4E700BF7A
:104B94000000002020030100F8020100CA1E0100E9
:104BA400E41E010038B58368B3F80150284601F0CB
:104BB40085FC044660B9114B114A2946D21AD20821
:104BC4009201104842F00102BDE8384007F096BC5B
:104BD400051D6FF08001284608F093FD030607D5F4
:104BE4004FF48051284608F081FD2046FFF760FF0E
:104BF4002046BDE8384008F0E3BE00BFF8020100DB
:104C040020030100511B010070B58568B5F80160EF
:104C1400304601F053FC044660B9104A104B31464B
:104C2400BDE87040D21AD20892010E4842F0010247
:104C340007F064BC2B7823B90822E91CAC3008F0D7
:104C44007AFC4FF40051201D08F050FD2046FFF778
:104C54002FFF2046BDE8704008F0B2BE20030100DB
:104C6400F8020100511B010070B506460D4642F2E0
:104C740021000321FFF7FCFB044658B9BDE870404E
:104C84000B490C4B0C48C91AC908890141F00101B0
:104C940007F027BC0321083009F021FF8570068046
:104CA4002146BDE8704042F22100FFF75FBE00BF1D
:104CB40020030100F8020100001F0100F7B583681A
:104CC400D9789A781F8842EA0122ADF800205979F0
:104CD4001A79BCB242EA0122ADF802209A79D97954
:104CE400204642EA0122ADF804201A7A5B7A42EAAD
:104CF4000323ADF8063001F0E1FB064680B9204BF2
:104D0400204A2146D21AD20892011F4842F00102D9
:104D140007F0F4FB02212046FFF7A6FF03B0F0BD25
:104D2400694601F027FA38B91E212046FFF79CFF97
:104D3400304608F045FEF1E70E2142F22000FFF76D
:104D440097FB05460028F3D00E21083009F0C7FE72
:104D540004460E22002108F019FCBDF80030294653
:104D64006380BDF802302780A380BDF8043042F28E
:104D74002000E380BDF806302381FFF7F7FDD7E775
:104D8400F802010020030100511B01002DE9F84F36
:104D9400514D524BDFF84C91ED1ADFF874A1ED0838
:104DA400D9F80C304E486FF31033C9F80C3001F0C9
:104DB40021FB471C4FF0FF324FF0FF33394649487F
:104DC40006F00AFD60B141F2714352464649474834
:104DD40006F060FF404080F311884FF0030002DFCB
:104DE400434EDFF8008106F1E00B17B906F0D8F85E
:104DF400D6E7D8F80C10C1F30431012959D9042994
:104E040063D198F80C30002B57D100220023394885
:104E140009F00EFE044660B941F20E43524636498B
:104E2400324806F037FF404080F311884FF003000A
:104E340002DF4FF0FF334FF0FF32584606F04CF9D3
:104E4400D6F8F83063B1A9012C4841F0010107F00C
:104E540048FBD6F8F80003F0AFFF0023C6F8F8309B
:104E6400204609F016FEC6F8F8002046FFF776FD46
:104E74000146F0B1AA01224842F0010207F03EFBCC
:104E8400204806F003F9204603F0E2FE0C221E4BF4
:104E94001F2102FB003022464088FFF723F8D6F892
:104EA400F80003F089FF00232046C6F8F83003F029
:104EB40083FF08F11408013F97E7012BF9D1D8F8D3
:104EC4001000343801F030FDF3E7AA010F4842F036
:104ED400020207F013FBECE720030100F8020100D3
:104EE4002C02002018020020B21D0100DA1C01006F
:104EF4000000002014010020321A01001A1F0100D2
:104F0400301E0100E0000020B0160020351F010013
:104F14008D1C01002DE9F041044600F108063046DD
:104F240009F027FEB4F80C800546B8F1010F0CD83F
:104F340041F6AE031B4A1C491C4806F0ABFE404038
:104F440080F311884FF0030002DF0221304609F09C
:104F540000FE0746007808F09FFBC20706460CD403
:104F640041F6B2030F4A1249104806F093FE40403E
:104F740080F311884FF0030002DF052321460D4A18
:104F84003878FFF729F8B30707D52069A4F80C800F
:104F940010FA85F5A560BDE8F0812046BDE8F04132
:104FA40003F00ABF8D1C0100C11C0100DA1C0100C2
:104FB400561F0100D007010038B5017D05460129BF
:104FC40007D0032913D11248294609F055FD0020C2
:104FD4000CE08368187808F05FFBC307044602D529
:104FE4002846FFF797FF14F00200ECD138BD094BB7
:104FF400094A0A48D21AD208920142F0010207F083
:105004007DFA284603F0D8FE6FF01500EEE700BFE6
:10501400FC000020F8020100200301006F1F0100C2
:10502400084A0346D2F82C0130B9D96839B1196954
:1050340029B1C2F82C3170476FF0440070476FF00B
:1050440015007047000000202DE9F0432B4C87B079
:10505400022104F1940008F049FB294D294B2A4907
:10506400ED1A2A4EE3792046012B88BF0E46FEF73F
:10507400DBFCFCF76BF9ED08AD0145F003070246D4
:1050840031463B46224807F04DFAA0460126DFF898
:105094008C90E37908F107089E4222DB94F834608F
:1050A40045F003053046FEF7A1FDE38ECDE9020687
:1050B4000493638F02A90422059316482B4607F034
:1050C40066FA94F835603046FEF790FD32460146A4
:1050D400238F1148ADF8005007F03DFA07B0BDE842
:1050E400F0834046FEF7A0FCFCF730F93146024657
:1050F4003B46484607F016FA0136CAE7000000208E
:1051040020030100F80201007C100100CB0E010015
:10511400831F0100A31F0100E11F0100921F010072
:1051240000487047970D010037B50C46054618B97D
:1051340044B36FF0150422E0002369460093CDF8D0
:10514400033008F0D0FA0028F2D02B78012B04D1D8
:10515400AB7903F0C003C02B0AD0114B114912489C
:10516400C91AC908890141F0010107F0BAF9E0E759
:105174002846FEF757FD0028DADB6FF0440420468A
:1051840003B030BD094BDC79012C06D0621C2946E2
:105194002046DA71FFF738F8F1E76FF00B04EEE719
:1051A400F802010020030100082001000000002093
:1051B40070B586B0002141F2090001AAFFF790F909
:1051C4001F4E044668B11F491F4B2048C91AC9081D
:1051D400890141F0020107F084F90023F37106B05C
:1051E40070BD019B06229D6804A901350490ADF8A9
:1051F4001400284608F08FF918B9019803F0DCFD73
:10520400EBE74FF0FF330622284602A90293ADF8DC
:105214000C3008F080F90028EFD0294606220DF161
:10522400110008F088F901988DF8104003F0C4FDCE
:105234000123204604A9F371FEF7E6FFCFE700BF80
:105244000000002020030100F802010036200100C4
:105254002DE9F341254B074693F886400E4614F09A
:1052640001040AD12249234B2348C91AC9088901D8
:1052740041F0020107F035F912E000214FF6094030
:1052840001AAFFF72DF9054670B11A4B18491B48BE
:10529400C91AC908890141F0020107F022F9002462
:1052A400204602B0BDE8F0814FF01608019B9B68D0
:1052B4005C78B44228BF34469E1CA5420DDB01989D
:1052C40003F07AFD002CEBD109490A4B0C48C91AAA
:1052D400C908890141F00201CCE708FB05701622D8
:1052E400314608F028F90135E7E700BF0000002047
:1052F40020030100F8020100542001008020010075
:10530400A0200100F0B5144D89B0EC79F4B9012165
:1053140002A8FFF79DFFE871C0B116270FE002ABAA
:1053240007FB063106220DF1010008F004F9012300
:10533400694630468DF80030FEF766FF0134EB799C
:10534400E6B2B342EBD8002009B0F0BD0021084614
:10535400FFF7EAFEF8E700BF00000020F0B5664D55
:1053640089B0D5F82C31996811F001011CD140F6AF
:10537400034003AAFFF7B4F80446002840F0B880BD
:10538400039B9B681B7863B905F19403184608F0E6
:10539400A4F900F00500D3E8EF2FC3E8E10F0029DA
:1053A400F9D1039803F008FD002141F2030003AA98
:1053B400FFF796F80446002840F09A80039B0822E1
:1053C40099684E48013108F0B6F8039803F0F4FCEC
:1053D400214641F2010003AAFFF782F8044600289F
:1053E40040F08680039883685A7885F83420D97809
:1053F4009A7842EA0122EA861A7985F83520197AE0
:10540400DA7942EA01222A875A799B7942EA03230C
:105414006B8703F0D1FC214641F2020003AAFFF797
:105424005FF80446002863D1039B402299683448FE
:10543400013108F080F8039803F0BEFC00F05AFD37
:105444000446002854D195F84E309F061AD42D49AD
:105454002D4B2E48C91AC908890141F0020107F0F1
:1054640040F895F840305E0654D4274B2549284827
:10547400C91AC908890141F0010107F032F86FF037
:10548400120435E0072140F63340FEF7F1FF0746EA
:1054940010B96FF036042BE00721083009F01FFB28
:1054A40021460722064608F071F81B2333700623B1
:1054B400224674703471394640F63340F370FFF776
:1054C4000FF80446A0B9012140F63140FEF7D0FFA1
:1054D40006460028DDD00121083009F00FFB2246E2
:1054E400314640F63140FEF7FBFF04460028B8D0B1
:1054F400204609B0F0BD00BF000000203C000020A1
:105504004400002020030100F8020100C92001002A
:10551400F7200100002142F2030003AAFEF7E0FF96
:1055240004460028E4D1039B08229968C14801314C
:1055340008F001F8039803F03FFC214642F2020010
:1055440003AAFEF7CDFF04460028D1D1039B9B6834
:10555400B3F8012091B2A5F8C42021B1DA78B64895
:1055640011460AF09FFA039803F026FC95F8406070
:1055740016F0200600F0E08095F860301C0711D585
:10558400002142F21C0003AAFEF7AAFF04460028E9
:10559400AED10398836853F8012F5B68C5E92823CB
:1055A40003F00AFC95F89830980624D502A90DF169
:1055B4000600FFF70DF80446002899D1042142F2B1
:1055C4002400FEF755FF064600283FF462AF04218D
:1055D400083009F084FABDF8063022460380BDF88D
:1055E40008303146438042F22400FEF779FF044636
:1055F40000287FF47DAF082142F20100FEF738FF56
:10560400044600283FF445AF0821084409F067FA2E
:1056140095F8982012F0020F14BF2F230F23910640
:1056240095F8992048BF43F0400312F0090F4FF05A
:10563400000218BF43F400630370C3F30723214639
:1056440043708270C270027142718271C27142F2FF
:105654000100FEF745FF044600287FF449AF95F8A2
:1056640040309A061ED4B5F8C410D9B941F20500E9
:1056740003AAFEF735FF044600287FF439AFB5F8D6
:10568400C43063B9039B9B685A78997842EA012233
:10569400A5F8C4209A88684811460AF003FA0398CA
:1056A40003F08AFB082140F60140FEF7E1FE0446C0
:1056B40000283FF4EEAE0821084409F010FA102344
:1056C40003708823437002230022C37020232146E1
:1056D4008270027142718271C37140F60140FEF71B
:1056E400FFFE044600287FF403AF014602AA4FF6EA
:1056F4000140FEF7F5FE514E514BF61AF608B6017D
:10570400A8B3504846F0020106F0EBFEEB79002BFB
:105714007FF4EEAEFFF74CFDEB79002B7FF4E8AE9F
:10572400FFF7F0FD0446002800F0AF80464846F03D
:10573400010106F0D6FEDBE6022140F66D40FEF7DD
:1057440097FE044600283FF4A4AE0221083009F075
:10575400C6F90123214603704670324640F66D4077
:10576400FEF7BEFE044600283FF406AFC0E6029BE7
:1057740036489F6846F00303B7F80120032A96BF12
:105784003349344951F8221006F0CCFEB7F8011021
:10579400B7F80320022946F003032ED1032A2CD89C
:1057A4002D4951F822102D4806F0BCFE7A7946F0B6
:1057B4000303032A96BF2A49264951F8221029488F
:1057C400CDE90312BA7903A90592B7F80720069226
:1057D400D7F809200792052206F0D9FE029803F0B3
:1057E400EBFA00214FF6024002AAFEF779FE0746C3
:1057F40028B11D4846F0020186E71649D3E7029B0B
:10580400022299681948013107F095FE029803F0C5
:10581400D3FA95F885305B077FF578AF39464FF6B4
:10582400034002AAFEF75CFE20B3114846F00201D1
:105834006AE700BF98000020C80000202003010090
:10584400F80201001B210100EF2101003F210100AA
:10585400C0070100211B010090070100582101002D
:10586400F8070100702101009D210100850000203E
:10587400C62101000122029B09489968114407F0DE
:105884005AFE029803F098FA40E70648FEF7CAFE6B
:10589400044600283FF42CAE034846F0010148E7D3
:1058A40084000020010000200E2201002DE9704335
:1058B4003D4D0646D5F82C3188B07BB93B4B3C496D
:1058C4003C48C91AC908890141F0010106F009FEE2
:1058D4006FF01204204608B0BDE87083012105F181
:1058E400940007F003FF10F001045AD1324B4FF03B
:1058F40000084FF000091E606FF008034FF4806247
:10590400CDE90243CDE90689CDE900442B4B2C496E
:1059140004942C4805F052FC2B492A480AF0DCF880
:105924006FF007034FF48062CDE90243CDE90689A5
:10593400CDE90044254B26490494264805F03EFC55
:10594400254924480AF0C8F8D5F82C31DB68984773
:10595400044658B1154B164A0146D21AD208920190
:105964001E4842F0010206F0C9FDB3E766B9FFF72D
:10597400F5FC04460028ADD101F04EF80446002899
:10598400A8D1FFF761FBA5E7012105F1900007F01D
:10599400ADFEC3079ED4124805F1880109F036FF15
:1059A40098E76FF0440495E700000020F802010036
:1059B400200301002B220100C8160020914D000095
:1059C40018390020B0080020442201006140000082
:1059D40018350020280800204A2201005022010026
:1059E400380E002010B5FFF7B9FC044628B901F0C1
:1059F40013F8044608B9FFF727FB044B1B681BB1D7
:105A04002046BDE81040184710BD00BFC81600204E
:105A14002DE9F04F9A4600230D698FB0B5EB030BC7
:105A24000646834818BF4FF0010B0C469146079376
:105A340007F053FE870740F1ED800846FEF70AF9A8
:105A44000746002800F0E98006F11008404607F0F8
:105A540044FEC0F38011400600F1E2800F220AA840
:105A6400059107F093FDA3686068ADF82830E368FA
:105A7400ADF82A3007F022FE3278237805999A424D
:105A84008DF835008DF8361004D06FF480516848D5
:105A940007F037FE2078674B307083F833005A469E
:105AA40061680DF12D03FEF7EBFD834600286FD1ED
:105AB40006F10900002D48D0216907F011FE606845
:105AC400C1074AD5002D45D010F0100F14BF042390
:105AD400012321690DF12E008DF82C3007F000FE12
