:100000000C948A000C94B2000C94B2000C94B200D0
:100010000C94B2000C94B2000C94B2000C94B20098
:100020000C94B2000C94B2000C94B2000C94B20088
:100030000C94B2000C94B2000C94B2000C94B20078
:100040000C9409080C94B2000C94D7070C94B107D7
:100050000C94B2000C94B2000C94B2000C94B20058
:100060000C9453080C94B20008000000BE9224497E
:10007000123EABAAAA2ABECDCCCC4C3E00000080DA
:10008000BEABAAAAAA3E00000000BF000000803F4D
:100090000000000000084178D3BB4387D1133D190D
:1000A0000E3CC3BD4282AD2B3E68EC8276BED98F3A
:1000B000E1A93E4C80EFFFBE01C4FF7F3F0000007E
:1000C0000000000000080002010000030407000017
:1000D00000000000000000000000250028002B00A8
:1000E00000000000240027002A0004040404040483
:1000F00004040202020202020303030303030102D7
:1001000004081020408001020408102001020408A5
:100110001020720911241FBECFEFD8E0DEBFCDBF83
:1001200011E0A0E0B1E0EAEDF7E202C005900D9227
:10013000AA38B107D9F723E0AAE8B1E001C01D92BF
:10014000A239B207E1F710E0CAE8D0E004C0219775
:10015000FE010E94E513C938D107C9F70E94220A9F
:100160000C94EB130C94000090E0FC01E250FF4F64
:10017000249186519F4FFC018491882399F090E04F
:10018000880F991FFC01E052FF4FA591B491FC012B
:10019000EA52FF4F859194918FB7F894EC91E22B3E
:1001A000EC938FBF08954F925F926F927F928F92E0
:1001B0009F92AF92BF92CF92DF92EF92FF924090C8
:1001C00018035090190360901A0370901B03C0909D
:1001D0001003D0901103E0901203F090130320E07D
:1001E00030E0A901C301B2010E94C71218160CF039
:1001F00061C08090140390901503A0901603B090F6
:10020000170320E030E0A901C501B4010E94C71224
:1002100018160CF04FC023E333E343E35FE3C3015D
:10022000B2010E941C132B013C0120E030E040E2AF
:1002300051E4C501B4010E946D119B01AC01C301E1
:10024000B2010E946D119B01AC01C701B6010E9471
:10025000FB1060931003709311038093120390932B
:10026000130320E030E040EA51E460911003709104
:10027000110380911203909113030E94681187FF6C
:100280000CC080E090E0A0EAB1E48093100390936A
:100290001103A0931203B0931303FF90EF90DF902C
:1002A000CF90BF90AF909F908F907F906F905F9016
:1002B0004F90089524EA30E74DE75FE3C701B601A8
:1002C0000E941C13C6CFFC01538D448D252F30E0B6
:1002D000842F90E0821B930B541710F0CF96089553
:1002E00001970895FC01918D828D981761F0A28D80
:1002F000AE0FBF2FB11D5D968C91928D9F5F9F7346
:10030000928F90E008958FEF9FEF0895FC01918DFB
:10031000828D981731F0828DE80FF11D858D90E068
:1003200008958FEF9FEF0895FC01918D228D892F05
:1003300090E0805C9F4F821B91098F7399270895ED
:10034000FC01A48DA80FB92FB11DA35ABF4F2C914A
:10035000848D90E001968F739927848FA689B78941
:100360002C93A089B1898C91837080648C93938D38
:10037000848D981306C00288F389E02D80818F7DDB
:1003800080830895EF92FF920F931F93CF93DF9393
:10039000EC0181E0888F9B8D8C8D98131AC0E889C1
:1003A000F989808185FF15C09FB7F894EE89FF8990
:1003B0006083E889F98980818370806480839FBF2E
:1003C00081E090E0DF91CF911F910F91FF90EF902E
:1003D0000895F62E0B8D10E00F5F1F4F0F7311273E
:1003E000E02E8C8D8E110CC00FB607FCFACFE88979
:1003F000F989808185FFF5CFCE010E94A001F1CF60
:10040000EB8DEC0FFD2FF11DE35AFF4FF0829FB7EC
:10041000F8940B8FEA89FB8980818062CFCFCF93DC
:10042000DF93EC01888D8823B9F0AA89BB89E8891C
:10043000F9898C9185FD03C0808186FD0DC00FB6C2
:1004400007FCF7CF8C9185FFF2CF808185FFEDCF40
:10045000CE010E94A001E9CFDF91CF91089581E5FF
:1004600092E00E94940121E0892B09F420E0822F80
:10047000089580E090E0892B29F00E942F028111DD
:100480000C94000008958091DF019091E001891B98
:10049000990B089508950895AF92BF92CF92DF927D
:1004A000EF92FF920F931F93CF93DF936C017B0129
:1004B0008B01040F151FEB015E01AE18BF08C017BA
:1004C000D10759F06991D601ED91FC910190F0812D
:1004D000E02DC6010995892B79F7C501DF91CF91F0
:1004E0001F910F91FF90EF90DF90CF90BF90AF9052
:1004F000089590E0FC01EE53FF4F2491FC01E2507F
:10050000FF4F3491FC01E651FF4FE491EE23C9F017
:10051000222339F0233001F1A8F4213019F12230DF
:1005200029F1F0E0EE0FFF1FEA52FF4FA591B491C1
:100530008FB7F894EC91611126C030953E233C931F
:100540008FBF08952730A9F02830C9F0243049F72B
:10055000809180008F7D03C0809180008F77809391
:100560008000DFCF84B58F7784BDDBCF84B58F7DEE
:10057000FBCF8091B0008F778093B000D2CF809175
:10058000B0008F7DF9CF3E2BDACF3FB7F894809142
:10059000D3019091D401A091D501B091D60126B597
:1005A000A89B05C02F3F19F00196A11DB11D3FBFAB
:1005B000BA2FA92F982F8827BC01CD01620F711D7A
:1005C000811D911D42E0660F771F881F991F4A9574
:1005D000D1F708952FB7F8946091CF017091D001B1
:1005E0008091D1019091D2012FBF08952091AB014C
:1005F000260F3327331F21323105ECF420912702D7
:10060000FC0190E080E0243069F082E00895A09140
:10061000AB012191AC0145575E4FA40FB52FB11D21
:100620002C930196861798F38091AB01680F609325
:10063000AB0180E0089581E008951092270281E0E7
:10064000809326021092010261E082E10E94790209
:1006500061E083E10E947902E9EBF0E080818E7F26
:10066000808380818D7F808388E48093B80085E4D7
:100670008093BC000895CF93DF9391E090938A011B
:100680008823B9F0C091B800D091BA008091BC0025
:100690008A7B8093BC0060E082E10E94790260E086
:1006A00083E10E9479020E941D03D093BA00C09397
:1006B000B800DF91CF9108958F929F92AF92BF9231
:1006C000CF92DF92EF92FF920F931F93CF93DF931E
:1006D000D0915002D13208F0D7C0182FC0914F02EC
:1006E0000E94C5026B017C018091270281116BC0C1
:1006F00082E080932702109326028FEF80932502D9
:1007000010922402D0932302AFE2B2E0E3E0F2E0E1
:1007100080E0D81391C01092020280910202CC0FA7
:10072000C82BC093020280910102813009F088C079
:10073000109201020E94C5026B017C0180910202AD
:100740008093BB008091290290912A02A0912B02F4
:10075000B0912C02892B8A2B8B2BA1F00E94C50211
:100760000091290210912A0220912B0230912C0233
:100770006C197D098E099F09061717072807390785
:1007800008F442C08091BC0083FDD8CF85EC8093F3
:10079000BC000E94C5026B017C018091270282305F
:1007A00009F450C0809125028F3F09F46FC08091F9
:1007B0002502803209F46CC080912502803309F44F
:1007C00069C084E026C08091290290912A02A091FC
:1007D0002B02B0912C02892B8A2B8B2B09F484CF0E
:1007E0000E94C5028090290290902A02A0902B02BC
:1007F000B0902C026C197D098E099F098616970608
:10080000A806B90608F070CF809128020E943B0329
:1008100085E010922E021092500210922D02DF916C
:10082000CF911F910F91FF90EF90DF90CF90BF90ED
:10083000AF909F908F9008959D9191938F5F69CF16
:1008400085EEA5CF8091290290912A02A0912B02DA
:10085000B0912C02892B8A2B8B2B09F49ECF0E94FE
:10086000C5020091290210912A0220912B02309199
:100870002C026C197D098E099F0906171707280796
:10088000390708F08ACFC0CF81E0C3CF80E0C1CF65
:1008900082E0BFCF83E0BDCFCF92DF92EF92FF9295
:1008A0000F931F93CF93DF93D82FC62F613208F099
:1008B00098C00E94C5026B017C01809127028111C2
:1008C0006BC081E080932702809326029FEF909374
:1008D0002502109224029C0F90932302809302021F
:1008E00080910202DD0FD82BD09302028091010289
:1008F000813009F078C0109201020E94C5026B019C
:100900007C01809102028093BB008091290290912A
:100910002A02A0912B02B0912C02892B8A2B8B2BBF
:10092000A1F00E94C5020091290210912A02209193
:100930002B0230912C026C197D098E099F09061734
:1009400017072807390708F448C08091BC0083FDC9
:10095000D8CF85EC8093BC000E94C5026B017C015E
:1009600080912702813009F440C0809124028C17C5
:1009700010F4C0912402E3E0F2E0A1EEB1E080E0E7
:100980008C1355C08C2FDF91CF911F910F91FF9049
:10099000EF90DF90CF9008958091290290912A02E4
:1009A000A0912B02B0912C02892B8A2B8B2B09F45E
:1009B00084CF0E94C5020091290210912A02209141
:1009C0002B0230912C026C197D098E099F090617A4
:1009D00017072807390708F070CF809128020E9476
:1009E0003B03C0E0CFCF85EEB5CF80912902909137
:1009F0002A02A0912B02B0912C02892B8A2B8B2BDF
:100A000009F4AECF0E94C5020091290210912A027A
:100A100020912B0230912C026C197D098E099F09BF
:100A2000061717072807390708F09ACFD6CF9191F4
:100A30009D938F5FA5CF0895E091E0018091DF0144
:100A4000E81730F4F0E0EF51FE4F808190E0089518
:100A50008FEF9FEF08959091E0018091DF012FEFDC
:100A60003FEF981748F4E92FF0E0EF51FE4F208157
:100A700030E09F5F9093E001C9010895CF92DF922B
:100A8000EF92FF920F931F93CF93DF937C01CB01E3
:100A90008A0120912D02222389F0EB016B01C40E03
:100AA000D51ECC15DD0569F06991D701ED91FC915A
:100AB0000190F081E02DC7010995F3CF642F0E94CA
:100AC000F602C801DF91CF911F910F91FF90EF9037
:100AD000DF90CF900895CF93DF931F92CDB7DEB70D
:100AE000698320912D022223F9F0209150022032B7
:100AF00058F021E030E0FC013383228390E080E075
:100B00000F90DF91CF91089580912E02E82FF0E0B1
:100B1000E15DFD4F998190838F5F80932E028093DA
:100B2000500281E090E0ECCF61E0CE0101960E949E
:100B3000F602F7CFCF93C62F91E090932D0297E561
:100B400090934F0210922E0210925002682F8EEE58
:100B500092E00E946B056C2F8EEE92E00E946B0576
:100B600081E0CF910C945C0390E080E00895FC015B
:100B700001900020E9F73197AF01481B590BBC01E8
:100B800081E592E00C944C028F929F92AF92BF92BB
:100B90000F931F93CF93DF93CDB7DEB7A1970FB617
:100BA000F894DEBF0FBECDBF19A2423008F44AE070
:100BB0008E010F5D1F4F842E912CB12CA12CA5010D
:100BC00094010E94C313E62FB901CA01EA30F4F47C
:100BD000E05DD801EE938D01232B242B252B79F793
:100BE00090E080E0109719F0CD010E94B705A19622
:100BF0000FB6F894DEBF0FBECDBFDF91CF911F912E
:100C00000F91BF90AF909F908F900895E95CE1CFD6
:100C100091E090932D0297E590934F0210922E024F
:100C200010925002682F8EEE92E00E946B0580E0D9
:100C30000E945C0361E087E50E944C041092E00191
:100C40008093DF018EEE92E00E942B0508954F9273
:100C50005F926F927F928F929F92AF92BF92CF924C
:100C6000DF92EF92FF920F931F93CF936B017C0162
:100C7000742EAC019B010E948913882399F08FE4A4
:100C800091E0CF911F910F91FF90EF90DF90CF9067
:100C9000BF90AF909F908F907F906F905F904F909C
:100CA0000C94B70546015701E894B7F82FEF3FEFD2
:100CB0004FE75FE7C501B4010E94891381110DC0A0
:100CC0002FEF3FEF4FE75FE7C501B4010E946811C6
:100CD00018161CF483E591E0D4CF2FEF3FEF4FE7D8
:100CE0005FE4C701B6010E94C71218161CF487E51D
:100CF00091E0C7CF2FEF3FEF4FE75FECC701B601A1
:100D00000E94681187FDF3CF20E030E0A901C70100
:100D1000B6010E94681110E000E087FF0AC06DE292
:100D200081E592E00E94C2018C01F7FAF094F7F895
:100D3000F094C0E060E070E080E09FE37C1641F05A
:100D400020E030E040E251E40E946D11CF5FF6CF29
:100D5000A70196010E94FC102B013C010E94E611A4
:100D60004B015C014AE00E94C4057C01E00EF11ECB
:100D7000CC23C1F1C501B4010E9415129B01AC0145
:100D8000C301B2010E94FB104B015C016EE281E5E0
:100D900092E00E94C201E80EF91EC15018F120E055
:100DA00030E040E251E4C501B4010E941C132B0164
:100DB0003C010E94E6114B01B12CA12C4AE0C50177
:100DC000B4010E94C405E80EF91EC501B4010E94D9
:100DD00015129B01AC01C301B2010E94FB104B0133
:100DE0005C01DBCFC701CF911F910F91FF90EF9076
:100DF000DF90CF90BF90AF909F908F907F906F903B
:100E00005F904F900895682F82E00E94790261E020
:100E100083E00E94790260E083E00C947902CF9233
:100E2000DF92EF92FF92CF93DF93C82FD62F61E02E
:100E300084E00E9479020E94C5026B017C010E943D
:100E4000C5026C197D098E099F09683E73408105B2
:100E50009105A8F38C2F81700E940307C1FB88279E
:100E600080F90E940307C2FB882780F90E940307CC
:100E7000C3FB882780F90E940307C4FB882780F9F9
:100E80000E940307C5FB882780F90E940307C6FB61
:100E9000882780F90E9403078C2F881F8827881FC6
:100EA0000E9403078D2F81700E940307D1FB8827C2
:100EB00080F90E940307D2FB882780F90E9403076C
:100EC00080E00E94030780E00E94030780E00E9408
:100ED000030780E00E94030780E00E94030760E0B0
:100EE00084E0DF91CF91FF90EF90DF90CF900C9452
:100EF000790285ED8093BC008091290290912A02AD
:100F0000A0912B02B0912C020796A11DB11D23E0E8
:100F1000B695A795979587952A95D1F72091BC000E
:100F200024FD03C010922702089540912902509198
:100F30002A0260912B0270912C02452B462B472BE5
:100F400069F30097A105B10541F025E32A95F1F772
:100F500000000197A109B109E1CF809128020C940A
:100F60003B031F920F920FB60F9211242F933F93C2
:100F70004F935F936F937F938F939F93AF93BF93A1
:100F8000EF93FF9381E592E00E94A001FF91EF9122
:100F9000BF91AF919F918F917F916F915F914F9191
:100FA0003F912F910F900FBE0F901F9018951F9299
:100FB0000F920FB60F9211242F938F939F93EF935D
:100FC000FF93E0916102F09162028081E0916702FB
:100FD000F091680282FD1BC0908180916A028F5F50
:100FE0008F7320916B02821741F0E0916A02F0E06A
:100FF000EF5AFD4F958F80936A02FF91EF919F9179
:101000008F912F910F900FBE0F901F901895808198
:10101000F4CF1F920F920FB60F9211242F933F938C
:101020008F939F93AF93BF938091CF019091D00105
:10103000A091D101B091D2013091CE0123E0230FD4
:101040002D3758F50196A11DB11D2093CE01809337
:10105000CF019093D001A093D101B093D2018091A0
:10106000D3019091D401A091D501B091D601019600
:10107000A11DB11D8093D3019093D401A093D501FC
:10108000B093D601BF91AF919F918F913F912F91D6
:101090000F900FBE0F901F90189526E8230F029611
:1010A000A11DB11DD2CF1F920F920FB60F92112426
:1010B0002F933F934F935F936F937F938F939F9360
:1010C000AF93BF93EF93FF938091B900887F8036F1
:1010D00009F44AC0F0F5883209F4A7C018F5803148
:1010E00009F49BC0B8F4882309F4F9C0883009F4E6
:1010F00094C0FF91EF91BF91AF919F918F917F919C
:101100006F915F914F913F912F910F900FBE0F9074
:101110001F901895883109F488C0803251F7809368
:10112000250214C0803409F49DC040F48033B9F323
:101130008833F9F68093250285ECB0C0803509F438
:1011400085C0883509F496C0883499F60E947907DD
:10115000D0CF883909F48CC038F5883729F050F49D
:10116000883611F0803729F683E0809327021092A9
:10117000CD0157C0883809F47BC0803919F0803818
:1011800009F0B7CF8091CD01803208F071C0E091B5
:10119000CD0181E08E0F8093CD018091BB00F0E006
:1011A000E355FE4F80833DC0803B39F0E0F4803A48
:1011B00009F479C0883A09F09CCF84E08093270233
:1011C0001092AC011092AB01E091D901F091DA01DB
:1011D00009958091AB0181110FC081E08093AB0133
:1011E00010928B0109C0803C09F4A6CF883C09F419
:1011F000A3CF883B09F07DCFE091AC0181E08E0F59
:101200008093AC01F0E0E557FE4F80818093BB00F6
:101210009091AC018091AB0129C080910202809332
:10122000BB0085EC8093BC0064CF90912402809138
:101230002302981758F5E091240281E08E0F8093E5
:101240002402F0E0ED5FFD4F8081E9CFE0912402C0
:1012500081E08E0F809324028091BB00F0E0ED5F6F
:10126000FD4F808390912402809123029817C8F249
:1012700085E8D8CFE091240281E08E0F809324028C
:101280008091BB00F0E0ED5FFD4F808380912602EE
:1012900081115CCF81E08093010284EA8093BC00DD
:1012A0001092270226CF85EC8093BC001092270273
:1012B0008091CD01803230F4E091CD01F0E0E35532
:1012C000FE4F10826091CD0170E0E091D701F09166
:1012D000D8018DEA91E009951092CD010ACF1092C4
:1012E000250234CFE1E5F2E01382128288EE93E02A
:1012F000A0E0B0E084839583A683B7832FE231E03A
:101300003183208325EC30E03587248724EC30E0DE
:101310003787268720EC30E0318B208B21EC30E0C2
:10132000338B228B22EC30E0358B248B26EC30E0A3
:10133000378B268B118E128E138E148EEEEEF2E00A
:101340001382128284839583A683B78381E491E01C
:10135000918380838AE580939103EAEFF2E0118222
:1013600010821482158216821782108611861286C8
:1013700013861486158616861786108A118A128A95
:10138000138A158A148A80E090E0A0EAB1E4868B83
:10139000978BA08FB18F128E138E148E158E168E92
:1013A000178E10A211A212A213A214A215A216A2A5
:1013B00017A210A611A612A613A614A615A616A665
:1013C00017A610AA11AA12AA13AA14AA15AA16AA35
:1013D00017AA10AE11AE88E086AF8FE090E0909330
:1013E0003A038093390310923B0310923C0310920E
:1013F0003D0310923E0310923F031092400310925F
:10140000410310924203109243031092440310923E
:10141000450310924603109247031092480389E453
:1014200093E090938A038093890390938C03809335
:101430008B0310928E0310928D03109290031092E2
:101440008F030895CF93DF93CDB7DEB7CF54D10983
:101450000FB6F894DEBF0FBECDBF789484B582601E
:1014600084BD84B5816084BD85B5826085BD85B548
:10147000816085BD80916E00816080936E001092C6
:101480008100809181008260809381008091810041
:1014900081608093810080918000816080938000D2
:1014A0008091B10084608093B1008091B000816030
:1014B0008093B00080917A00846080937A0080915C
:1014C0007A00826080937A0080917A0081608093B4
:1014D0007A0080917A00806880937A001092C1002F
:1014E00082E00E94B40083E00E94B40084E00E9485
:1014F000B40060E082E00E94790260E083E00E9434
:10150000790260E084E00E9479021092FD0210925C
:10151000FC021092E0011092DF0110922E02109254
:1015200050020E941D038AE4E82E82E0F82EF09219
:10153000DA01E092D9010BE412E01093D801009394
:10154000D7018CE08093B8008FEF0E9408068131AC
:1015500041F08091FC029091FD02892B09F0ABC013
:10156000FFCF62E086E00E949A0587E00E940806AD
:10157000682F636087E00E949A0587E00E94080652
:10158000837E682F646087E00E949A056FEF89E090
:101590000E949A0587E00E940806682F606487E031
:1015A0000E949A0563E086E00E949A0560913803E4
:1015B00020E1629FC001112460913903682B89E00A
:1015C0000E949A0583E393E3A3E7BFE3809320039C
:1015D00090932103A0932203B0932303109224033A
:1015E000109225031092260310922703809328035C
:1015F00090932903A0932A03B0932B0310922C03FA
:1016000010922D0310922E0310922F0381E090E090
:101610009093FB028093FA021092E0011092DF0196
:1016200010922E02109250020E941D03F092DA01D5
:10163000E092D9011093D8010093D70182E00E9473
:101640000806182F84E00E940806181B1F7009F472
:1016500078C031E030932D0287E580934F021092DD
:101660002E021092500265E08EEE92E00E946B0511
:1016700080E00E945C03612F660F660F613208F004
:1016800060E287E50E944C04F82E1092E0018093FE
:10169000DF0100E08091E001F816B1F08EEE92E0FB
:1016A0000E942B05E1E0F0E0EC0FFD1FE00FF11DC3
:1016B00080830F5FEFCF8BE591E00E94B7058FE746
:1016C00091E00E94B7054CCFE0918B03F0918C0321
:1016D0008091890390918A03DE01119660E04C911C
:1016E00011962C911197542F422F12963C911297DC
:1016F00013962C911397349673E0E938F70711F499
:10170000E9E4F3E0518340833383228320918D0306
:1017100030918E032031310509F0FBC0049623E09F
:101720008938920711F489E493E06F5F14961613D9
:10173000D6CFF0938C03E0938B0390938A0380932E
:10174000890380918D0390918E03009709F4F9C36A
:10175000E0918B03F0918C039F0124503109309369
:101760008C0320938B0340815181628173812A967F
:101770004CAF5DAF6EAF7FAF2A972954334030F442
:1017800065E873E070938C0360938B0301979093EB
:101790008E0380938D03C0902403D0902503E090A6
:1017A0002603F090270320912003309121034091DC
:1017B000220350912303C701B6010E941C134B0161
:1017C0005C0128962EAD3FAD2897B90190E080E0EE
:1017D0000E9415129B01AC01C501B4010E94FC10CE
:1017E000609324037093250380932603909327032B
:1017F000A70196010E94FB1026966CAF7DAF8EAFBD
:101800009FAF2697C0902C03D0902D03E0902E031D
:10181000F0902F03209128033091290340912A034F
:1018200050912B03C701B6010E941C134B015C01B0
:101830002A964EAD5FAD2A97BA0190E080E00E94F3
:1018400015129B01AC01C501B4010E94FC1060930C
:101850002C0370932D0380932E0390932F03A701E5
:1018600096010E94FB102E966CAF7DAF8EAF9FAF9E
:101870002E97C0903403D0903503E0903603F0905B
:101880003703C0923003D0923103E0923203F092DA
:10189000330326966CAD7DAD8EAD9FAD26979058E7
:1018A0002BE73FE14BE75EE30E941C134B015C0119
:1018B00023E430E742E05FE3C701B6010E941C1356
:1018C0009B01AC01C501B4010E94FC109B01AC015D
:1018D00020933403309335034093360350933703FA
:1018E000C701B6010E94FC10062F372E282E229623
:1018F0009FAF229780910E0390910F038230910544
:1019000009F4A5C090F4009789F10197E9F110E07E
:1019100053C1A9014F5F5F4F50938E0340938D03D6
:10192000232B09F002CFCF0100CF8330910509F4BA
:10193000CDC0049761F70E94EA02C0901C03D090CA
:101940001D03E0901E03F0901F036C197D098E09A2
:101950009F09693C71058105910508F470C021E07B
:1019600030E030930F0320930E0369C00E94EA0217
:10197000613D77408105910550F261E070E0709320
:101980000F0360930E03C3CF209110033091110316
:101990004091120350911303602F732D822D2296D4
:1019A0009FAD22970E94C712181634F520E030E050
:1019B00048E454E4602F732D822D22969FAD229728
:1019C0000E94681187FF3EC0502F432D322D229672
:1019D0002FAD2297852F942FA32FB22F8093100322
:1019E00090931103A0931203B093130382E090E04D
:1019F00090930F0380930E030E94EA02C0901C0391
:101A0000D0901D03E0901E03F0901F036C197D0918
:101A10008E099F09613D77408105910580F0109204
:101A200014031092150310921603109217031092CC
:101A300018031092190310921A0310921B030E94AC
:101A4000D30065CF50E040E038E424E4C3CF2091D8
:101A50001003309111034091120350911303602F32
:101A6000732D822D22969FAD22970E94681187FFC9
:101A700007C043E050E050930F0340930E0347CF5D
:101A800020E030E048E454E4602F732D822D22964C
:101A90009FAD22970E94681187FF13C0502F432DDE
:101AA000322D22962FAD2297852F942FA32FB22F60
:101AB0008093100390931103A0931203B093130328
:101AC00026CF50E040E038E424E4EECF20E030E0E0
:101AD00040EF51E4602F732D822D22969FAD229707
:101AE0000E94FC10209110033091110340911203C9
:101AF000509113030E94681187FF7CC1802F932DA2
:101B0000A22D2296BFAD22978093180390931903BC
:101B1000A0931A03B0931B0364E070E070930F036B
:101B200060930E030E94EA02C0901C03D0901D0334
:101B3000E0901E03F0901F036C197D098E099F0928
:101B40000E9415126B017C0120E030E0A9010E9487
:101B50006811882331F12CEC3CEC4CEC5EE3609195
:101B600014037091150380911603909117030E943E
:101B70001C134B015C012AE939E949E15FE3C70124
:101B8000B6010E941C139B01AC01C501B4010E9467
:101B9000FC106093140370931503809316039093C5
:101BA00017030E94EA0260931C0370931D03809345
:101BB0001E0390931F0311E0C0901403D0901503EF
:101BC000E0901603F090170320E030E0A901C70170
:101BD000B6010E946811882309F425C1A701960166
:101BE00060E070E080E89FE30E946D1120E030E04B
:101BF0004AE754E40E941C1320E030E040E752E43E
:101C00000E941C1320E030E0A9010E94C7121816A0
:101C10000CF009C142E050E05093FB024093FA02FD
:101C200026962CAD3DAD4EAD5FAD2697CA01B901EC
:101C30000E941C1320913B0330913C0340913D03D3
:101C400050913E030E94FC106B017C01C0923B034B
:101C5000D0923C03E0923D03F0923E032E962CADD1
:101C60003DAD4EAD5FAD2E97CA01B9010E941C1368
:101C700020913F0330914003409141035091420332
:101C80000E94FC102B013C0140923F035092400304
:101C90006092410370924203609144037091450346
:101CA00080914603909147036F5F7F4F8F4F9F4F07
:101CB00060934403709345038093460390934703D6
:101CC000112309F45DC0209143032F5F2093430348
:101CD000233009F055C00E9415124B015C01AC0184
:101CE0009B01C301B2010E946D110E94D4122B010D
:101CF0003C01A5019401C701B6010E946D110E942B
:101D0000D4126B017C0120E030E048EC52E4C301C6
:101D1000B2010E941C13A70196010E946D116B0174
:101D20007C0120E030E044E852E40E94C71218161B
:101D30000CF067C0C701B6010E94E6116254109210
:101D400044031092450310924603109247031092E9
:101D50003F031092400310924103109242031092ED
:101D60003B0310923C0310923D0310923E031092ED
:101D70004303E62FF0E0E050FF4F8081809348035B
:101D80008091FC029091FD028230910509F475C0AA
:101D90008330910509F48CC0019701F582E891E048
:101DA0000E94B70528962EAD3FAD2897B90190E067
:101DB00080E04AE00E94C40585E891E00E94B705F2
:101DC0002A964EAD5FAD2A97BA0190E080E04AE0D6
:101DD0000E94C4058FE791E00E94B705112309F422
:101DE000B0CCE0918F03F0919003309709F4A9CC27
:101DF0000995A7CC82E090E090930F0380930E03A7
:101E000086CD20E030E048E452E4C701B6010E94EC
:101E1000C71260E018160CF092CFC701B6010E94FD
:101E2000E61162538CCF8091FA029091FB020297E7
:101E300009F0A6CF61E070E07093FB026093FA02B4
:101E400010924403109245031092460310924703E8
:101E500010923F03109240031092410310924203EC
:101E600010923B0310923C0310923D0310923E03EC
:101E7000109243031092480383CF82E891E00E94BE
:101E8000B70542E026966CAD7DAD8EAD9FAD269731
:101E90000E94270685E891E00E94B70542E02E9651
:101EA0006CAD7DAD8EAD9FAD2E970E94270692CF73
:101EB00082E891E00E94B70542E0602F732D822DE9
:101EC00022969FAD22970E94270685E891E00E9406
:101ED000B7056091100370911103809112039091E6
:101EE000130342E0E2CFA5019401C701B6010E94AD
:101EF000FB1020E038EB48E857E40E94C7121816A0
:101F00000CF086C080913803882309F481C0815089
:101F100051C0C701B6010E94FB10F3C0A12CB12C27
:101F2000C12CD12C25C120E030E040E05FE3B701B7
:101F3000C8010E94FB1024C1C701B6010E94FB101A
:101F40003DC10E94EA02009106031091070320910F
:101F5000080330910903601B710B820B930B653FE3
:101F600071408105910508F45DC080902403909034
:101F70002503A0902603B0902703C0902C03D09097
:101F80002D03E0902E03F0902F03A7019601C501C9
:101F9000B4010E94FB1020E038EB48E857E40E94AF
:101FA000C71218160CF09FCF809138038F3008F0BD
:101FB0009ACF8F5F809338036091380350E1659F1B
:101FC000C001112460913903682B89E00E949A05B1
:101FD0000E94EA0260930A0370930B0380930C0340
:101FE00090930D038091FC029091FD02892B81F06A
:101FF00087E891E00E94B7056091380370E090E0B7
:1020000080E04AE00E94C4058FE791E00E94B70596
:102010000E94EA026093060370930703809308030B
:10202000909309030E94EA020091DB011091DC0108
:102030002091DD013091DE01601B710B820B930B4F
:10204000693E73408105910508F4C8C061E085E5EB
:102050000E940F078091910331E030932D0280930D
:102060004F0210922E021092500267E08EEE92E024
:102070000E946B0580E00E945C0363E08091910305
:102080000E944C041092E0018093DF018EEE92E0FA
:102090000E942B058C018EEE92E00E942B0560962B
:1020A0008FAF60972F961FAE2F9760964EAD5FADA6
:1020B0006097042B152B8EEE92E00E942B05B80141
:1020C00090E080E00E9415122AE037ED43EA5CE3DD
:1020D0000E941C1323E333E948E853E40E94FB10F9
:1020E0006B017C0120E030E0A9010E94C71220E0D2
:1020F00030E040E05FE387FD0CCFC701B6010E94EE
:10210000FC100E94DF11862F62E00E940F07C09032
:102110001403D0901503E0901603F090170320E00D
:1021200030E0A901C701B6010E946811882309F4B3
:10213000F5CEA701960160E070E080E89FE30E9481
:102140006D1120E030E04AE754E40E941C1320E0C7
:1021500030E040E752E40E941C137B018C015B01DC
:102160006C0120E030E0A9010E94C71287FDDBCEA0
:1021700020E030E040E05FE3B501C6010E94FC10C2
:102180000E94DF11862F63E00E940F0760914803D1
:1021900070E090E080E00E9415126B017C0120E06D
:1021A00030E0A9010E94C71220E030E040E05FE388
:1021B00087FDC2CEC701B6010E94FC100E94DF114C
:1021C000862F64E00E940F070E94EA026093DB0101
:1021D0007093DC018093DD019093DE0160E070E09C
:1021E000672B09F42BCA0E942F02882309F426CA00
:1021F0000E94000023CA5058BB27AA270E9413112F
:102200000C948D120E947F1238F00E94861220F0EA
:1022100039F49F3F19F426F40C947C120EF4E095E7
:10222000E7FB0C947612E92F0E949E1258F3BA171E
:10223000620773078407950720F079F4A6F50C94DC
:10224000C0120EF4E0950B2EBA2FA02D0B01B90190
:1022500090010C01CA01A0011124FF27591B99F01C
:10226000593F50F4503E68F11A16F040A22F232F28
:10227000342F4427585FF3CF469537952795A79578
:10228000F0405395C9F77EF41F16BA0B620B730B1F
:10229000840BBAF09150A1F0FF0FBB1F661F771F90
:1022A000881FC2F70EC0BA0F621F731F841F48F445
:1022B000879577956795B795F7959E3F08F0B0CFCE
:1022C0009395880F08F09927EE0F979587950895B5
:1022D0000E94521208F481E008950E9481110C942A
:1022E0008D120E94861258F00E947F1240F029F44D
:1022F0005F3F29F00C94761251110C94C1120C948A
:102300007C120E949E1268F39923B1F3552391F336
:10231000951B550BBB27AA2762177307840738F054
:102320009F5F5F4F220F331F441FAA1FA9F335D0B1
:102330000E2E3AF0E0E832D091505040E695001C65
:10234000CAF72BD0FE2F29D0660F771F881FBB1F1F
:10235000261737074807AB07B0E809F0BB0B802DFD
:10236000BF01FF2793585F4F3AF09E3F510578F029
:102370000C9476120C94C1125F3FE4F3983ED4F3B0
:10238000869577956795B795F7959F5FC9F7880FFD
:10239000911D9695879597F90895E1E0660F771F4F
:1023A000881FBB1F621773078407BA0720F0621BE0
:1023B000730B840BBA0BEE1F88F7E09508950E940B
:1023C000E6116894B1110C94C11208950E94A612EE
:1023D00088F09F5798F0B92F9927B751B0F0E1F0E6
:1023E000660F771F881F991F1AF0BA95C9F714C096
:1023F000B13091F00E94C012B1E008950C94C01267
:10240000672F782F8827B85F39F0B93FCCF38695CE
:1024100077956795B395D9F73EF49095809570952B
:1024200061957F4F8F4F9F4F0895E89409C097FBA8
:102430003EF490958095709561957F4F8F4F9F4F9B
:102440009923A9F0F92F96E9BB279395F6958795DF
:1024500077956795B795F111F8CFFAF4BB0F11F4A2
:1024600060FF1BC06F5F7F4F8F4F9F4F16C0882349
:1024700011F096E911C0772321F09EE8872F762F7F
:1024800005C0662371F096E8862F70E060E02AF0C0
:102490009A95660F771F881FDAF7880F96958795AC
:1024A00097F90895990F0008550FAA0BE0E8FEEF81
:1024B00016161706E807F907C0F012161306E40708
:1024C000F50798F0621B730B840B950B39F40A2601
:1024D00061F0232B242B252B21F408950A2609F4DF
:1024E000A140A6958FEF811D811D089597F99F67E3
:1024F00080E870E060E008959FEF80EC089500248C
:102500000A941616170618060906089500240A9458
:1025100012161306140605060895092E0394000CDE
:1025200011F4882352F0BB0F40F4BF2B11F460FF6D
:1025300004C06F5F7F4F8F4F9F4F089557FD905896
:10254000440F551F59F05F3F71F04795880F97FB77
:10255000991F61F09F3F79F0879508951216130631
:102560001406551FF2CF4695F1DF08C01616170660
:102570001806991FF1CF8695710561050894089595
:10258000E894BB2766277727CB0197F908950E9427
:10259000521208F48FEF089516F00C948E130C94D9
:1025A0007C1268940C9476120E94A612A8F39923C8
:1025B000C1F3AEF3DF93CF931F930F93FF92C92F15
:1025C000DD2788232AF02197660F771F881FDAF707
:1025D00020E030E040E85FEB9FE3883920F0803E68
:1025E00038F021968F770E94FC10E8E6F0E004C0F6
:1025F0000E94FC10E5E9F0E00E949C138B01BE01F3
:10260000EC01FB2E6F5771097595771F880B990B9D
:102610000E94171228E132E741E35FE30E942F1383
:10262000AF2D9801AE01FF900F911F91CF91DF91D7
:102630000E9413110C948D120E942F130C948D1272
:102640000E947F1238F00E94861220F0952311F02C
:102650000C9476120C947C1211240C94C1120E94DA
:102660009E1270F3959FC1F3950F50E0551F629F26
:10267000F001729FBB27F00DB11D639FAA27F00DDB
:10268000B11DAA1F649F6627B00DA11D661F829F02
:102690002227B00DA11D621F739FB00DA11D621FE7
:1026A000839FA00D611D221F749F3327A00D611D04
:1026B000231F849F600D211D822F762F6A2F1124E6
:1026C0009F5750409AF0F1F088234AF0EE0FFF1F19
:1026D000BB1F661F771F881F91505040A9F79E3F70
:1026E000510580F00C9476120C94C1125F3FE4F314
:1026F000983ED4F3869577956795B795F795E795C6
:102700009F5FC1F7FE2B880F911D9695879597F9CE
:1027100008950E945212880B990B08959F3F31F043
:10272000915020F4879577956795B795880F911DFF
:102730009695879597F90895DF93CF931F930F93FD
:10274000FF92EF92DF927B018C01689406C0DA2E33
:10275000EF010E942F13FE01E894A5912591359178
:1027600045915591A6F3EF010E941311FE019701C7
:10277000A801DA9469F7DF90EF90FF900F911F9115
:10278000CF91DF910895A1E21A2EAA1BBB1BFD0178
:102790000DC0AA1FBB1FEE1FFF1FA217B307E40740
:1027A000F50720F0A21BB30BE40BF50B661F771F98
:1027B000881F991F1A9469F7609570958095909578
:1027C0009B01AC01BD01CF010895EE0FFF1F0590E5
:0A27D000F491E02D0994F894FFCF76
:1027DA0064646464636363636363626262626261C2
:1027EA0061616161616060606060605F5F5F5F5FDF
:1027FA005F5E5E5E5E5E5D5D5D5D5D00000000C207
:10280A00014C0263010F029401720186010000006B
:10281A00006B053E05B4051B0543022B051C056E1E
:10282A00616E00696E66006F7666004661696C6566
:10283A006420746F20696E697469616C697A6520B5
:10284A007468652048524D2073656E736F72000D6F
:0A285A000A00523A002C00493A002F
:00000001FF
